:020000040800F2
:1000000078530024AD020008B1C4000851B60008BE
:10001000C9C200088908000841F200080000000079
:1000200000000000000000000000000091D0000867
:10003000611600080000000051C50008E1D000086A
:10004000C7020008C7020008C7020008C70200086C
:10005000C7020008C7020008C7020008C70200085C
:10006000C7020008C7020008C7020008D10B000839
:10007000C7020008C7020008C7020008C70200083C
:10008000C7020008C7020008C7020008D91B000801
:10009000C7020008C7020008C7020008C70200081C
:1000A000C7020008C7020008C7020008C70200080C
:1000B000E9D30008C7020008C7020008C702000809
:1000C000C7020008C7020008C7020008C7020008EC
:1000D000C702000849EE0008C7020008C70200086E
:1000E000C7020008C702000800000000C70200089D
:1000F000C7020008C7020008C7020008C7020008BC
:10010000C7020008C7020008C7020008C7020008AB
:10011000C7020008C7020008C7020008C70200089B
:10012000C7020008C7020008C7020008C70200088B
:10013000C7020008C7020008C7020008C70200087B
:1001400000000000000000000000000000000000AF
:10015000C7020008C7020008C7020008C70200085B
:10016000C7020008C7020008C7020008C70200084B
:10017000C7020008C7020008C7020008C70200083B
:10018000C7020008C7020008C7020008C70200082B
:10019000C7020008C7020008C7020008C70200081B
:1001A000C7020008C7020008C7020008C70200080B
:1001B000C7020008C7020008C7020008C7020008FB
:1001C000C7020008C7020008C7020008C7020008EB
:1001D000C7020008C7020008C7020008C7020008DB
:1001E000C7020008C7020008C7020008C7020008CB
:1001F000C7020008C7020008C7020008C7020008BB
:10020000C7020008C7020008C7020008C7020008AA
:10021000C7020008C7020008C7020008C70200089A
:10022000C7020008C7020008C7020008000000005B
:10023000C7020008C702000800000000C70200084B
:10024000C7020008C7020008C7020008C70200086A
:10025000C7020008C7020008C7020008C70200085A
:10026000C7020008C7020008C7020008C70200084A
:10027000C7020008C7020008C7020008000000000B
:10028000C7020008C7020008C702000800000000FB
:1002900000000000C7020008DFF80CD000F08CF866
:1002A00000480047F9F900087853002406488047C1
:1002B00006480047FEE7FEE7FEE7FEE7FEE7FEE74B
:1002C000FEE7FEE7FEE7FEE789D200089902000894
:1002D0002DE9F05F0546002092469B46884606467B
:1002E000814640241BE0284641464746224600F00E
:1002F00053F853465A46C01A914110D31146184636
:10030000224600F03AF82D1A67EB01084F462246C4
:100310000120002100F031F817EB00094E41201EAA
:10032000A4F10104DFDC484631462A464346BDE8D5
:10033000F09F40EA01039B0703D009E008C9121FA0
:1003400008C0042AFAD203E011F8013B00F8013B8F
:10035000521EF9D27047D2B201E000F8012B491EBB
:10036000FBD270470022F6E710B513460A46044652
:100370001946FFF7F0FF204610BD202A04DB203A83
:1003800000FA02F1002070479140C2F1200320FAE8
:1003900003F3194390407047202A04DB203A21FAE6
:1003A00002F00021704721FA02F3D040C2F120028E
:1003B0009140084319467047064C074D06E0E06837
:1003C00040F0010394E8070098471034AC42F6D39C
:1003D000FFF766FF18150108381501080000000036
:1003E000704700000000000040F2F420C2F200401C
:1003F000816840F20140C0F600008860704700004C
:10040000B0B584B040F2DC20C2F20040806890F8C1
:10041000A8008008800778BBFFE740F2DC20C2F22A
:100420000040D0F808E0006940689EED1C0ABDEE6F
:10043000C00A10EE101A9EED140ABDEEC00A10EEAE
:10044000102A9EED100ABDEEC00A10EE103A9EED85
:10045000280ABDEEC00A10EE10CADEF800E0BEF9B0
:100460000640EE460125CEF80850CEF80440CEF8FE
:1004700000C000F019F810E040F2DC20C2F20040A9
:1004800000694068694601228A6000234B600B6066
:1004900019461A4600F008F8FFE70CF0D9FD04B041
:1004A000B0BD000000000000B0B58EB094468E468E
:1004B000044614981399129A0D94ADF832E0ADF8F1
:1004C00030C0ADF82E30ADF82C20ADF82A108DF8E4
:1004D00029000D9800F5A2600121049107AA0EF0F1
:1004E0003BFF04990D9800F2145006AA0EF034FF59
:1004F00004990D9800F5A36005AA0EF02DFF9DED5F
:10050000070A9DED051A30EE010A9DED061A30EE40
:10051000410A0D9800F5A26191ED001A31EE011A21
:1005200000F5A36090ED002A21EE021A80EE010A88
:1005300010F0F2FD0D9800F2245191ED001A30EE0A
:10054000010A00F21C5080ED000A9DED070A9DEDA6
:10055000061A30EE010A9DED051A30EE410A0D989B
:1005600000F5A26191ED001A31EE011A00F214506B
:1005700090ED002A21EE021A80EE010A10F0CCFD67
:100580000D9800F5A46080ED000A0D9901F57370D7
:10059000BDF92A2002EB82025242520000EE102ADC
:1005A000B8EEC00AD1F8EC1491ED081AF8EEC10AC1
:1005B0000CF002F8BDF9300050B1FFE70D99D1F809
:1005C0002C010068BDF930201044C1F80405FFE794
:1005D0000D9A02F10C0002F19C0102F2045393ED1A
:1005E000000AB8EEC00AD2F82C2192ED002A92ED52
:1005F000081AF8EEC20AB8EEC11A0FF059FABDF99E
:10060000320050B1FFE70D99D1F874020068BDF9CE
:1006100032201044C1F80805FFE70D9A02F5AA70D0
:1006200002F5F27102F5A16393ED000AB8EEC00A7B
:10063000D2F8742292ED002A92ED081AF8EEC20A5E
:10064000B8EEC11A0FF034FABDF92E0050B1FFE731
:100650000D99D1F8B0030068BDF92E201044C1F8FF
:100660000C05FFE70D9A02F5247002F5487102F2BD
:100670000C5393ED000AB8EEC00AD2F8B02392ED05
:10068000002A92ED081AF8EEC20AB8EEC11A0FF06D
:100690000FFA0D9890ED0E2A90ED603A90EDAF1A9A
:1006A00090EDFE0ABDEEC33A13EE100ABDEEC22A6B
:1006B00012EE101ABDEEC11A11EE102ABDEEC00ADC
:1006C00010EE103A00F0E4F8BDF92C0048F2E131E8
:1006D000C3F60F6150FB01F1481100EBD1720D9987
:1006E000D1F844011044C1F844010D98D0F84401F8
:1006F00040F6C511884206DBFFE70D9940F6C410AD
:10070000C1F844010DE00D98D0F84401B0F5FA7F2E
:1007100006DAFFE70D994FF4FA70C1F84401FFE7DC
:10072000FFE70D9890F8400140B9FFE70D98D0F829
:100730003C11D0F84401096848634FE00D9890F8E7
:100740004001042809D1FFE70D98D0F83C11D0F8FA
:1007500044010968886303903EE00D9890F84001D9
:10076000082809D1FFE70D98D0F83C11D0F84401D2
:100770000968C86302902CE00D9890F840010C289D
:1007800009D1FFE70D98D0F83C11D0F84401096871
:10079000086401901AE00D9890F84001102809D1E2
:1007A000FFE70D98D0F83C11D0F84401096888653E
:1007B000009008E00D98D0F83C11D0F84401096889
:1007C000C8650090FFE700980190FFE7019802904C
:1007D000FFE702980390FFE70398FFE70EB0B0BD74
:1007E00082B0ADF804000091009890F83200032820
:1007F00005DCFFE7009890F8330020B9FFE7002000
:100800008DF807002EE0BDF904000099B1F9381009
:10081000884205DDFFE70099C86B0130C86312E02C
:10082000BDF904000099B1F938104942884205DA4F
:10083000FFE70099C86B0130C86303E0009900200E
:10084000C863FFE7FFE70099C86BB1F93A10884227
:1008500004DDFFE701208DF8070003E000208DF89C
:100860000700FFE79DF8070002B070470000000096
:1008700080B582B00190FFE700F042F80A2010F046
:100880003BF8F9E700000000FFE7FEE7000000008A
:1008900080B584B0ADF80E00ADF80C10ADF80A20AC
:1008A000ADF808309DF80F008DF800009DF80E009F
:1008B0008DF801009DF80D008DF802009DF80C00E8
:1008C0008DF803009DF80B008DF804009DF80A00D8
:1008D0008DF805009DF809008DF806009DF80800C8
:1008E0008DF8070040F69040C2F200404FF40071CE
:1008F0006A46082301F080F804B080BD00000000C3
:1009000080B584B040F2DC20C2F2004000908168E3
:100910000968497840F2E042C2F200420292117046
:10092000816809680978517081680968C97891708F
:10093000816809688978D17081680968497911717D
:10094000816809680979517181680968C97991716B
:10095000816809688979D17140684FF4807101918B
:100960000823039301F048F802200FF0C5FF009818
:100970000199029A039BD0F808C0DCF800C09CF8EB
:1009800009C040F2E84EC2F2004E8EF800C0D0F826
:1009900008C0DCF800C09CF808C08EF801C0D0F890
:1009A00008C0DCF800C09CF80AC08EF802C0D0F87D
:1009B00008C0DCF800C09CF80BC08EF803C04FF0F4
:1009C000000C8EF804C08EF805C08EF806C08EF8B4
:1009D00007C0406801F010F804B080BD00000000BE
:1009E00080B584B00390ADF80A108DF809209DF809
:1009F00009000A2801DBFFE767E09DF8090000EB2A
:100A0000001140F22C00C2F2004000EB810044389B
:100A10000190039801998862BDF90A000199086262
:100A20000199CA69086A801A48620199086AC8610E
:100A30000198007E50B9FFE70199012008760199DD
:100A4000886AC8620199886A4860FFE70199886AE4
:100A5000CA6A801AB1F930100EF05AFC0090009A60
:100A60000199086810440860009A01994868104488
:100A700048600199886AC86201984168B0F93620D7
:100A80005143B0F9302091FBF2F100EE101AB8EEAC
:100A9000C00A80ED020A01980168B0F9362051437E
:100AA000B0F9302091FBF2F100EE101AB8EEC00A56
:100AB00080ED050A0098019900B2FFF791FE0199B7
:100AC00081F8340000200090FFE704B080BD0000F2
:100AD00085B00490049890ED0F0AB5EE400AF1EE4F
:100AE00010FA06DDFFE7049890ED0F0A8DED030A7A
:100AF00007E0049890ED0F0AB1EE400A8DED030A6D
:100B0000FFE79DED030A049890ED181AB4EE410A30
:100B1000F1EE10FA01DCFFE757E0049890ED0F0AC0
:100B2000B5EE400AF1EE10FA06DDFFE7049890ED0D
:100B30000F0A8DED020A07E0049890ED0F0AB1EE5E
:100B4000400A8DED020AFFE79DED020A049890ED40
:100B5000171AB4EE410AF1EE10FA04DDFFE704992A
:100B60000020C86130E0049890ED0F0A90ED171A4C
:100B70008DED011AB5EE400AF1EE10FA06DDFFE741
:100B8000049890ED0F0A8DED000A07E0049890EDAF
:100B90000F0AB1EE400A8DED000AFFE79DED010A54
:100BA0009DED001A30EE411A049890ED070A90ED81
:100BB000172A90ED183A32EE432A81EE021A20EEFF
:100BC000010A80ED070AFFE7FFE705B07047000064
:100BD00080B540F61840C2F2004002F0C5FC80BD6E
:100BE00083B002900298016801201022C4F2020230
:100BF0009142009000F0A380FFE702980168012075
:100C00002822C4F202029142009000F09880FFE78F
:100C10000298016801204022C4F202029142009031
:100C200000F08D80FFE70298016801205822C4F28D
:100C300002029142009000F08280FFE70298016872
:100C400001207022C4F202029142009077D0FFE7A7
:100C50000298016801208822C4F2020291420090A9
:100C60006DD0FFE7029801680120A022C4F20202C1
:100C70009142009063D0FFE7029801680120B822FA
:100C8000C4F202029142009059D0FFE70298016835
:100C9000012040F21042C4F20202914200904ED074
:100CA000FFE702980168012040F22842C4F20202E4
:100CB0009142009043D0FFE702980168012040F282
:100CC0004042C4F202029142009038D0FFE70298FD
:100CD0000168012040F25842C4F2020291420090A1
:100CE0002DD0FFE702980168012040F27042C4F263
:100CF00002029142009022D0FFE702980168012091
:100D000040F28842C4F202029142009017D0FFE7FD
:100D100002980168012040F2A042C4F2020291420E
:100D200000900CD0FFE7029800684FF64831CBF6F0
:100D3000FD710844B0FA80F040090090FFE7009888
:100D4000C00740B3FFE70298007810384AF6AB219D
:100D5000CAF6AA21A0FB011000090190019800F039
:100D6000070141F2A240C0F60100405C0299C8654B
:100D70000198042807D3FFE702990868042262F368
:100D80000900886506E00299086840F2FF32904346
:100D90008865FFE705E00299086820F0FF00886594
:100DA000FFE70298806D03B070470000000000006C
:100DB00084B00390039800680190039801680120B3
:100DC00045F20842C5F60202914200904ED0FFE77C
:100DD00003980168012045F21C42C5F602029142C7
:100DE000009043D0FFE703980168012045F23042AC
:100DF000C5F602029142009038D0FFE703980168DF
:100E0000012045F24442C5F60202914200902DD0E5
:100E1000FFE703980168012045F25842C5F6020237
:100E20009142009022D0FFE703980168012045F22B
:100E30006C42C5F602029142009017D0FFE703987A
:100E40000168012045F28042C5F6020291420090FD
:100E50000CD0FFE7039800684AF66C31CAF2FD71C6
:100E60000844B0FA80F040090090FFE70098C007FE
:100E700010B3FFE70398007808384CF6CD41CCF664
:100E8000CC41A0FB011000090290029945F6000038
:100E9000C5F6020000EB810003990866039945F648
:100EA0008000C5F602004866029800F01F0101208C
:100EB00088400399886635E00398007810384AF630
:100EC000AB21CAF6AA21A0FB0110000902900198EB
:100ED00040F2B841C4F2020188420CD8FFE7019801
:100EE00040F21041C4F20201884204D3FFE70298A5
:100EF00008300290FFE7029940F60000C4F20200B9
:100F000000EB810003990866039940F68000C4F263
:100F100002004866029800F01F01012088400399F2
:100F20008866FFE704B0704783B0029002980079AA
:100F300001900198002800F08A80FFE701980828B6
:100F400000F28580FFE702980168012045F208421F
:100F5000C5F60202914200904ED0FFE70298016868
:100F6000012045F21C42C5F602029142009043D096
:100F7000FFE702980168012045F23042C5F60202FF
:100F80009142009038D0FFE702980168012045F2B5
:100F90004442C5F60202914200902DD0FFE702982C
:100FA0000168012045F25842C5F6020291420090C4
:100FB00022D0FFE702980168012045F26C42C5F695
:100FC00002029142009017D0FFE7029801680120C9
:100FD00045F28042C5F60202914200900CD0FFE734
:100FE000029800684AF66C31CAF2FD710844B0FA02
:100FF00080F040090090FFE70098C00780B1FFE74C
:10100000019945F6FC00C5F6020000EB810002994B
:10101000C866029945F64010C5F6020008670FE061
:10102000019940F6FC00C4F2020000EB8100029935
:10103000C866029940F64010C4F202000867FFE754
:101040000198411E0120884002994867FFE703B0DC
:10105000704700000000000085B0049000208DF86B
:101060000F000498806918BBFFE70498806A02901B
:1010700003281BD80299DFE801F0020D021804983A
:1010800090F82F00C00720B1FFE701208DF80F0076
:10109000FFE70CE00498C06AB0F1C07F04D1FFE71D
:1010A00001208DF80F00FFE701E000E0FFE747E0D7
:1010B00004988069B0F5005F26D1FFE70498806A44
:1010C000019003281ED80199DFE801F00206021101
:1010D00001208DF80F0016E0049890F82F00C0074B
:1010E00020B1FFE701208DF80F00FFE70BE0049827
:1010F000C06AB0F1C07F04D1FFE701208DF80F0076
:10110000FFE700E0FFE71AE00498806A00900328F8
:1011100004D3FFE70098032804D00EE001208DF8E7
:101120000F000BE0049890F82F00C00720B1FFE7F4
:1011300001208DF80F00FFE700E0FFE7FFE7FFE782
:101140009DF80F0005B0704789B00890079106928E
:1011500005930898806D04900898806D0390089816
:10116000016801201022C4F202029142029000F0B4
:101170000381FFE70898016801202822C4F20202D7
:101180009142029000F0F880FFE708980168012082
:101190004022C4F202029142029000F0ED80FFE78B
:1011A0000898016801205822C4F20202914202907C
:1011B00000F0E280FFE70898016801207022C4F285
:1011C00002029142029000F0D780FFE70898016880
:1011D00001208822C4F202029142029000F0CC80E9
:1011E000FFE7089801680120A022C4F202029142A0
:1011F000029000F0C180FFE7089801680120B82242
:10120000C4F202029142029000F0B680FFE7089813
:101210000168012040F21042C4F2020291420290A1
:1012200000F0AA80FFE708980168012040F22842F8
:10123000C4F202029142029000F09E80FFE70898FB
:101240000168012040F24042C4F202029142029041
:1012500000F09280FFE708980168012040F25842B0
:10126000C4F202029142029000F08680FFE70898E3
:101270000168012040F27042C4F2020291420290E1
:101280007AD0FFE708980168012040F28842C4F252
:101290000202914202906FD0FFE708980168012096
:1012A00040F2A042C4F202029142029064D0FFE7F1
:1012B00008980168012040F2B842C4F2020291424B
:1012C000029059D0FFE708980168012045F20842D2
:1012D000C5F60202914202904ED0FFE708980168DD
:1012E000012045F21C42C5F602029142029043D011
:1012F000FFE708980168012045F23042C5F6020276
:101300009142029038D0FFE708980168012045F229
:101310004442C5F60202914202902DD0FFE70898A0
:101320000168012045F25842C5F60202914202903E
:1013300022D0FFE708980168012045F26C42C5F60B
:1013400002029142029017D0FFE70898016801203D
:1013500045F28042C5F60202914202900CD0FFE7AE
:10136000089800684AF66C31CAF2FD710844B0FA78
:1013700080F040090290FFE70298C00770B1FFE7D4
:101380000898416E806E48600898C06E28B1FFE7EB
:101390000898016F406F4860FFE7FFE70898016811
:1013A00001201022C4F202029142019000F0A380B9
:1013B000FFE70898016801202822C4F20202914246
:1013C000019000F09880FFE7089801680120402212
:1013D000C4F202029142019000F08D80FFE708986C
:1013E000016801205822C4F202029142019000F0EB
:1013F0008280FFE70898016801207022C4F202028F
:101400009142019077D0FFE7089801680120882277
:10141000C4F20202914201906DD0FFE70898016882
:101420000120A022C4F202029142019063D0FFE7A2
:10143000089801680120B822C4F20202914201908A
:1014400059D0FFE708980168012040F21042C4F229
:101450000202914201904ED0FFE7089801680120F6
:1014600040F22842C4F202029142019043D0FFE7C9
:1014700008980168012040F24042C4F20202914201
:10148000019038D0FFE708980168012040F25842E7
:10149000C4F20202914201902DD0FFE70898016842
:1014A000012040F27042C4F202029142019022D027
:1014B000FFE708980168012040F28842C4F2020266
:1014C0009142019017D0FFE708980168012040F28F
:1014D000A042C4F20202914201900CD0FFE70898AA
:1014E00000684FF64831CBF6FD710844B0FA80F041
:1014F00040090190FFE70198C00750B3FFE7089843
:10150000C06D00F01F013F20884004998860089852
:101510000168086820F48020086005980899096827
:10152000486008988068402809D1FFE70698089924
:1015300009688860079808990968C86008E00798F2
:10154000089909688860069808990968C860FFE7E3
:1015500082E008980168012045F20842C5F60202BF
:10156000914200904ED0FFE708980168012045F2B3
:101570001C42C5F602029142009043D0FFE7089852
:101580000168012045F23042C5F602029142009006
:1015900038D0FFE708980168012045F24442C5F6BB
:1015A0000202914200902DD0FFE7089801680120C7
:1015B00045F25842C5F602029142009022D0FFE760
:1015C00008980168012045F26C42C5F6020291427A
:1015D000009017D0FFE708980168012045F280428B
:1015E000C5F60202914200900CD0FFE7089800680F
:1015F0004AF66C31CAF2FD710844B0FA80F0400935
:101600000090FFE70098C00720B3FFE70898C06D7F
:1016100000F01F010120884003994860059808994F
:101620000968486008988068402809D1FFE7069853
:10163000089909688860079808990968C86008E0EF
:101640000798089909688860069808990968C86029
:10165000FFE700E0FFE7FFE709B070470000000088
:10166000704700000000000080B582B001900FF0CC
:10167000AFFB014640F2D820C2F200400160006892
:101680000DF07AFF50200FF037F9FFE70FF0A0FBC5
:1016900040F2D821C2F20041086040F2D421C2F2E7
:1016A00000410520087040F62831C2F2004191F84F
:1016B000DC0000F0DF0081F8DC0091F8DC0000F0D5
:1016C000EF0081F8DC0000200090FFE7009804287C
:1016D00000F32C81FFE7009800EB800140F62830F2
:1016E000C2F2004000EBC100408A000BC00708B9FD
:1016F000FFE717E140F2D820C2F2004000680099ED
:1017000001EB810340F62832C2F2004202EBC30132
:1017100052F83320801A098A6FF31F31884277D933
:10172000FFE7009800EB800140F62830C2F200404D
:1017300000EBC100007D0009C00710BBFFE7009867
:1017400000EB800040F62831C2F2004101EBC002FC
:10175000107D40F020001075009800EB800001EB38
:10176000C002107D40F01000107540F2D820C2F287
:1017700000400068009A02EB820201EBC20188601F
:10178000FFE7009800EB800040F62831C2F20041EC
:1017900001EBC000007D00F00F0040F2D422C2F245
:1017A0000042127802EB820201EBC201097D01F0D6
:1017B0000F01884207DDFFE7009840F2D421C2F212
:1017C00000410870FFE740F62830C2F2004090F870
:1017D000DC1041F0200180F8DC1090F8DC1041F0C2
:1017E000100180F8DC10009901EB810100EBC100D1
:1017F000006A60B1FFE7009800EB800140F62830F6
:10180000C2F2004000EBC100006A8047FFE788E0B9
:1018100040F2D820C2F200400068009901EB81023A
:1018200040F62831C2F2004101EBC201CA68801AB9
:10183000498A6FF31F31884217D2FFE7009800EB07
:10184000800140F62830C2F2004000EBC102117D59
:1018500001F0DF011175009901EB810100EBC1017D
:10186000087D40F0100008755AE0009800EB8001F8
:1018700040F62830C2F2004000EBC102117D01F0B9
:10188000DF011175009901EB810100EBC100007DC2
:101890008009C00770B1FFE7009800EB800140F6B7
:1018A0002830C2F2004000EBC101087D40F010007A
:1018B00008750DE0009800EB800140F62830C2F278
:1018C000004000EBC101087D00F0EF000875FFE764
:1018D000009800EB800240F62830C2F2004000EB96
:1018E000C20150F832004968884218D9FFE70098D1
:1018F00000EB800240F62831C2F2004101EBC20049
:1019000051F832104268891A00EE101AB8EE401AE7
:101910009FED0D0A80EE010A80ED060AFFE7FFE762
:10192000FFE7FFE7009801300090CFE640F628304F
:10193000C2F20040007D4009C00708B1FFE7FFE7A1
:101940000A200EF0D9FFA1E600007A440000000052
:1019500080B58EB040F61C32C2F2004240F6904094
:10196000C2F2004005901060002104915160069180
:1019700007910222029208920122039209920A918F
:101980000B9106A9019104F01BF80199DDF808C03C
:10199000039B049A05984FF0804ECDF818E007920B
:1019A000CDF820C009930A920B9204F009F8029A2C
:1019B000049B059869460B60114604F08DF8039965
:1019C000049A059803F00CFF059840214FF000425F
:1019D00004F0B2F8059805F053F80EB080BD000091
:1019E00083B001900091009801994860029803B07B
:1019F000704700000000000080B586B00490ADF88C
:101A00000E100292ADF80630BDF80E0040F6F82137
:101A1000C2F2004108600020486088604FF4002254
:101A2000CA60086148618861C86108620498029AC6
:101A300003F056FF059806B080BD000000000000CE
:101A400080B588B0079006910592079808F0B0FA23
:101A50000798069908F01CFF069828B9FFE7059833
:101A600007990968486338E00698042806D1FFE71B
:101A7000059807990968886304902CE0069808285F
:101A800006D1FFE7059807990968C86303901FE02E
:101A900006980C2806D1FFE705980799096808649D
:101AA000029012E00698102806D1FFE705980799E2
:101AB00009688865019005E0059807990968C86577
:101AC0000190FFE701980290FFE702980390FFE77B
:101AD00003980490FFE70498FFE708B080BD00007A
:101AE00080B50BF0EDF980BD80B584B08DF80B00AA
:101AF0008DF80A109DF80A000A2803DBFFE7002092
:101B0000039050E09DF80A0000EB001140F22C0019
:101B1000C2F2004000EB810044380190019800F0CF
:101B200047F89DF80B00019981F8320001990020D7
:101B300081F83400019981F833009DF80B000146CB
:101B4000009103282BD80099DFE801F00211192138
:101B500001994FF40050088601991320C886019915
:101B60000A20088701994FF48070488718E001998E
:101B70004FF40050088601990120C88610E00199B1
:101B80004FF40050088601992420C88608E0019986
:101B90004FF40050088601993520C88600E0FFE721
:101BA00001980390FFE7039804B080BD0000000097
:101BB00080B582B0019001984421FEF7D3FB02B0BA
:101BC00080BD00000000000081B0EFF3108072B60D
:101BD0000090FFE7FEE7000080B540F69040C2F2BB
:101BE000004004F075F980BD84B002900298406B0B
:101BF000009002980068D0F884004FF6FC7188438A
:101C0000009940EA810002990968C1F884000298AD
:101C10000068D0F8840020F47F00029A1168926B6B
:101C200040EA0240C1F884000298816B00980844A1
:101C3000009002980068D0F888006FF38F00009938
:101C400040EA810002990968C1F88800029800689A
:101C5000D0F8880020F4FE00029A1168D26B40EAA6
:101C60000240C1F888000298C16B009800EB410067
:101C7000009002980068D0F8A0006FF38F000099E0
:101C800040EA810002990968C1F8A0000298006842
:101C9000D0F8A00020F4FE00029A1168126C40EA0D
:101CA0000240C1F8A0000299086C496C009A00FB40
:101CB0000120009002980068D0F8B0006FF38F0008
:101CC000009940EA810002990968C1F8B0000298C1
:101CD0000068D0F8B00020F4FE00029A1168926CFF
:101CE00040EA0240C1F8B0000299886CC96C009AC1
:101CF00000FB0120009002980068D0F8AC006FF360
:101D00008F00009940EA810002990968C1F8AC008F
:101D10000299086D496D009A00FB0120009002981D
:101D20000068D0F8F0006FF38F00009940EA81005E
:101D300002990968C1F8F00002980068D0F8F00034
:101D400020F47C10029A1168926D40EA0240C1F8BA
:101D5000F0000298816D009800EB4100009002981D
:101D60000068D0F8C0006FF38F00009940EA81004E
:101D700002990968C1F8C00002980068D0F8C00054
:101D800020F47C10029A1168D26D40EA0240C1F83A
:101D9000C00002980068D0F8C00020F07C50029A81
:101DA0001168126E40EA0260C1F8C00002994A6BE5
:101DB0004AF60040C4F2000000EB8200C8660299B7
:101DC0008A6BC86E00EB820008670299CA6B086FC5
:101DD00000EBC200486702990A6C4B6C486F5A438B
:101DE00000EB8200886702998A6CCB6C886F5A433B
:101DF00000EB8200C86702990A6D4B6DC86F5A43A9
:101E000000EB8200C1F8800002998A6DD1F8800051
:101E100000EBC200C1F884000299CA6D8B6ED1F844
:101E200084005A4300EB8200C1F8880002990A6ED0
:101E30008B6ED1F888005A4300EB8200C1F8900005
:101E40000298D0F890004DF2FD31C4F200018842B2
:101E50000FD3FFE70299D1F89C0040F02000C1F8B1
:101E60009C000299032081F8980001208DF80F0052
:101E700017E00298C06E0190FFE701980299D1F82F
:101E80009010884208D2FFE7019900200860FFE720
:101E9000019804300190F0E7FFE700208DF80F0073
:101EA000FFE79DF80F0004B070470000000000003D
:101EB00088B007900691059204930698406848B947
:101EC000FFE70698016882680069104340EA814094
:101ED000039009E00698016882680069104308438E
:101EE00040F080400390FFE70698D0F820C0C1681A
:101EF00042698369C06940EA0C6018431043084393
:101F000002900798826ED0F884000499514300EB48
:101F100081000190039801990860019804300190B4
:101F20000298019908600198043001900020009007
:101F3000FFE700980699CA8941F29241C0F6010173
:101F4000895C88420DD2FFE70598009940580199B5
:101F50000860019804300190FFE700980430009079
:101F6000E7E708B07047000080B582B001908DF8B7
:101F700003108DF802209DF8030001280FDBFFE716
:101F80009DF8030003280ADCFFE79DF80200012802
:101F900005DBFFE79DF80200042801DBFFE728E0EE
:101FA0000199C8689DF8032002EBC20200EB820091
:101FB0009DF8022002EB420200EB8200303888607C
:101FC00001990A68486889689047012805D1FFE7A8
:101FD0000198806800688047FFE701998868486039
:101FE00001988068406880470198806880688047D1
:101FF000FFE702B080BD000010B540F2F422C2F24B
:10200000004240F20431C2F20041D1600020506031
:1020100090604DF2C900C0F60000106040F2D44E4E
:10202000C2F2004E4CF22950C0F60000CEF800007B
:102030004CF23150C0F60000CEF804004CF6990086
:10204000C0F60000CEF8080040F2C84CC2F2004CC6
:102050004BF6E930C0F60000CCF80800CCF80400DC
:102060004BF6E130C0F60000CCF8000040F220034F
:10207000C2F2004340F2E930C0F60000986040F23E
:10208000E132C0F600021A60586040F2BC44C2F26D
:1020900000444BF25960C0F6000020604BF26160D2
:1020A000C0F6000060604BF26960C0F60000A060FE
:1020B00020686268A4688C604A600860DCF80000F0
:1020C000DCF80420DCF808400C62CA618861DCF8A6
:1020D0000000DCF80420DCF808404C610A61C860AC
:1020E000DCF80000DCF80420DCF80840CC628A62EE
:1020F0004862DEF80000DEF80420DEF808E0C1F8EF
:1021000038E04A630863DCF80000DCF80420DCF8FF
:1021100008E0C1F844E00A64C863DCF80000DCF8B9
:102120000420DCF808E0C1F850E0CA648864DCF8F8
:102130000000DCF80420DCF808C0C1F85CC08A6547
:10214000486518685A689B688B664A66086610BDC1
:1021500080B582B00AF090FF40F2DC21C2F200416B
:10216000019188600AF078FF0199C8600AF07CFF4D
:102170000199086140F69040C2F20040086040F6C4
:102180003050C2F200404860FFF736FF00F008F818
:10219000019942F20950C0F60000486102B080BDCA
:1021A00080B5CEB041F22031C0F6010133A86C22D7
:1021B0000192FEF7BEF8019A41F2B421C0F6010186
:1021C00018A8FEF7B6F89DED330ADDED340A9DED53
:1021D000351A40F2C050C2F20040179000F57370FB
:1021E0000290062110910AF0D7FA109917989DEDE8
:1021F000180ADDED190A9DED1A1A00F25C400390F1
:102200000AF0CAFA029802211191DFEDB90ACDED68
:10221000120AB0EE600A0AF0DFFA02980421149163
:102220009FEDB40A8DED060ADFEDB30ACDED160A77
:102230000AF0D2FA03981199DDED120AB0EE600AA5
:102240000AF0CAFA03989DED060A1499DDED160A04
:102250000AF0C2FA10999DED480ADDED490A9DED9C
:102260004A1A40F27030C2F20040089014300490D4
:102270000AF092FA089810999DED2D0ADDED2E0ACC
:102280009DED2F1AA43005900AF086FA0498119952
:10229000DDED120AB0EE600A0AF09EFA0498149975
:1022A000DDED160A9FED950A0AF096FA0598119948
:1022B000DDED120AB0EE600A0AF08EFA05989DED87
:1022C000060A1499DDED160A0AF086FA0898149A9F
:1022D000179942F2C713C0F84431416000200990B9
:1022E00081F8000540F66863C2F20043C1F83C3152
:1022F00081F840214FF47A72C1F844210022C4F2DF
:10230000B812C1F81025C1F81425C1F81825C1F874
:102310001C05C1F82005C1F824050121FFF7E4FBE5
:102320001199179AC2F8740203200790FFF7DCFB9B
:102330000799179B02460998C3F82C21FFF7D4FB95
:102340001499179B02460998C3F8B023FFF7CCFBFA
:10235000089A01460998C2F834110521FFF7C4FB19
:10236000109902461798C0F8EC249DED390ADDED6E
:102370003A0A9DED3B1A0C300A900AF00DFA0A98C1
:102380001199DDED120AB0EE600A0AF025FA0A98FA
:102390001499DDED160A9FED5A0A8DED0C0A0AF02C
:1023A0001BFA109917989DED1E0ADDED1F0A9DED91
:1023B000201A9C300B900AF0EFF90B981199DDED83
:1023C000120AB0EE600A0AF007FA0B989DED0C0AAB
:1023D0001499DDED160A0AF0FFF9109917989DED92
:1023E0003C0ADDED3D0A9DED3E1A00F5AA700D9008
:1023F0000AF0D2F90D981199DDED120AB0EE600ADB
:102400000AF0EAF90D981499DDED160A9FED3D0AE0
:102410008DED150A0AF0E0F9109917989DED210A43
:10242000DDED220A9DED231A00F5F2700E900AF000
:10243000B3F90E981199DDED120AB0EE600A0AF0B8
:10244000CBF90E9814999DED150ADDED160A0AF0E8
:10245000C3F9109917989DED3F0ADDED400A9DEDF7
:10246000411A00F524700F900AF096F90F9811990F
:10247000DDED120AB0EE600A0AF0AEF90F98149979
:102480009DED150ADDED160A0AF0A6F910991798C8
:102490009DED240ADDED250A9DED261A00F5487014
:1024A00013900AF079F91199DDED120A1398B0EE44
:1024B000600A0AF091F9139814999DED150ADDED63
:1024C000160A0AF089F940F61C30C2F200404CF2BC
:1024D000D121C0F60001FFF783FA179AD2F83C0128
:1024E00092F84011D2F84421FFF7AAFA4EB080BD0D
:1024F000000048430080BB450000000000803B45D1
:1025000000A00C4600409C4581B0009001B070478F
:1025100080B582B00190FFF71BFE64200EF0ECF94D
:10252000FFE740F2DC20C2F200408168C0680A6820
:10253000917AD27AFFF718FD02200EF0DDF9F0E76C
:1025400080B58AB0089004F00BFD0490089828B973
:10255000FFE701208DF8270000F0AABC089890F84A
:10256000350002280ED0FFE7089980204865FFE774
:102570000899002081F83400FFE701208DF827003A
:1025800000F096BC0898016801201022C4F20202F3
:102590009142039000F0A380FFE7089801680120B2
:1025A0002822C4F202029142039000F09880FFE7D3
:1025B0000898016801204022C4F20202914203906F
:1025C00000F08D80FFE70898016801205822C4F2CE
:1025D00002029142039000F08280FFE708980168B0
:1025E00001207022C4F202029142039077D0FFE7EB
:1025F0000898016801208822C4F2020291420390E7
:102600006DD0FFE7089801680120A022C4F2020201
:102610009142039063D0FFE7089801680120B82237
:10262000C4F202029142039059D0FFE70898016872
:10263000012040F21042C4F20202914203904ED0B7
:10264000FFE708980168012040F22842C4F2020224
:102650009142039043D0FFE708980168012040F2BF
:102660004042C4F202029142039038D0FFE708983A
:102670000168012040F25842C4F2020291420390E4
:102680002DD0FFE708980168012040F27042C4F2A3
:1026900002029142039022D0FFE7089801680120CE
:1026A00040F28842C4F202029142039017D0FFE741
:1026B00008980168012040F2A042C4F2020291424F
:1026C00003900CD0FFE7089800684FF64831CBF62E
:1026D000FD710844B0FA80F040090390FFE70398C9
:1026E000C00780B1FFE708980168086820F01E0065
:1026F000086008980168486920F0800048610898DF
:102700000068059009E008980168086820F00E004C
:102710000860089800680590FFE7089801680120A4
:102720001022C4F202029142029000F00381FFE7FE
:102730000898016801202822C4F202029142029006
:1027400000F0F880FFE70898016801204022C4F2F9
:1027500002029142029000F0ED80FFE708980168C4
:1027600001205822C4F202029142029000F0E2805D
:10277000FFE70898016801207022C4F2020291422A
:10278000029000F0D780FFE70898016801208822B6
:10279000C4F202029142029000F0CC80FFE7089858
:1027A00001680120A022C4F202029142029000F0CE
:1027B000C180FFE7089801680120B822C4F2020234
:1027C0009142029000F0B680FFE70898016801206E
:1027D00040F21042C4F202029142029000F0AA803C
:1027E000FFE708980168012040F22842C4F2020283
:1027F0009142029000F09E80FFE708980168012056
:1028000040F24042C4F202029142029000F09280F3
:10281000FFE708980168012040F25842C4F2020222
:102820009142029000F08680FFE70898016801203D
:1028300040F27042C4F20202914202907AD0FFE765
:1028400008980168012040F28842C4F202029142D5
:1028500002906FD0FFE708980168012040F2A04283
:10286000C4F202029142029064D0FFE70898016826
:10287000012040F2B842C4F202029142029059D0C3
:10288000FFE708980168012045F20842C5F60202F8
:10289000914202904ED0FFE708980168012045F26E
:1028A0001C42C5F602029142029043D0FFE708980D
:1028B0000168012045F23042C5F6020291420290C1
:1028C00038D0FFE708980168012045F24442C5F678
:1028D0000202914202902DD0FFE708980168012082
:1028E00045F25842C5F602029142029022D0FFE71B
:1028F00008980168012045F26C42C5F60202914237
:10290000029017D0FFE708980168012045F2804245
:10291000C5F60202914202900CD0FFE708980068C9
:102920004AF66C31CAF2FD710844B0FA80F04009F1
:102930000290FFE70298C00738B1FFE70898016EE0
:10294000086820F480700860FFE70898006810218C
:10295000C4F20201884200F08180FFE70898006815
:102960002821C4F20201884278D0FFE70898006865
:102970004021C4F20201884270D0FFE70898006845
:102980005821C4F20201884268D0FFE70898006825
:102990007021C4F20201884260D0FFE70898006805
:1029A0008821C4F20201884258D0FFE708980068E5
:1029B000A021C4F20201884250D0FFE708980068C5
:1029C000B821C4F20201884248D0FFE708980068A5
:1029D00040F21041C4F2020188423FD0FFE708985C
:1029E000006840F22841C4F20201884236D0FFE775
:1029F0000898006840F24041C4F2020188422DD09C
:102A0000FFE70898006840F25841C4F2020188428A
:102A100024D0FFE70898006840F27041C4F2020138
:102A200088421BD0FFE70898006840F28841C4F252
:102A30000201884212D0FFE70898006840F2A041E6
:102A4000C4F20201884209D0FFE70898006840F20A
:102A5000B841C4F20201884207D1FFE70898016833
:102A6000086820F00100086006E00898016808681E
:102A700020F001000860FFE7FFE705980068C00745
:102A8000C8B1FFE704F06CFA0499401A062811D384
:102A9000FFE70899202048650899032081F8350050
:102AA000FFE70899002081F83400FFE701208DF846
:102AB0002700FDE1E1E70898016801201022C4F237
:102AC00002029142019000F0A380FFE7089801689C
:102AD00001202822C4F202029142019000F0988065
:102AE000FFE70898016801204022C4F202029142E7
:102AF000019000F08D80FFE70898016801205822BE
:102B0000C4F202029142019000F08280FFE708982F
:102B1000016801207022C4F202029142019077D034
:102B2000FFE70898016801208822C4F2020291425E
:102B300001906DD0FFE7089801680120A022C4F23F
:102B400002029142019063D0FFE7089801680120DA
:102B5000B822C4F202029142019059D0FFE70898CE
:102B60000168012040F21042C4F202029142019039
:102B70004ED0FFE708980168012040F22842C4F2D5
:102B800002029142019043D0FFE7089801680120BA
:102B900040F24042C4F202029142019038D0FFE775
:102BA00008980168012040F25842C4F202029142A2
:102BB00001902DD0FFE708980168012040F2704293
:102BC000C4F202029142019022D0FFE70898016806
:102BD000012040F28842C4F202029142019017D0D3
:102BE000FFE708980168012040F2A042C4F2020207
:102BF000914201900CD0FFE7089800684FF64831E9
:102C0000CBF6FD710844B0FA80F040090190FFE76F
:102C10000198C00760B1FFE70898806D0790089899
:102C2000C06D00F01F013F208840079988600BE0CD
:102C30000898806D06900898C06D00F01F01012073
:102C4000884006994860FFE7089801680120102233
:102C5000C4F202029142009000F00381FFE708985D
:102C6000016801202822C4F202029142009000F083
:102C7000F880FFE70898016801204022C4F20202B0
:102C80009142009000F0ED80FFE708980168012074
:102C90005822C4F202029142009000F0E280FFE765
:102CA0000898016801207022C4F20202914200904B
:102CB00000F0D780FFE70898016801208822C4F25D
:102CC00002029142009000F0CC80FFE70898016872
:102CD0000120A022C4F202029142009000F0C180C3
:102CE000FFE7089801680120B822C4F2020291426D
:102CF000009000F0B680FFE708980168012040F2DC
:102D00001042C4F202029142009000F0AA80FFE754
:102D100008980168012040F22842C4F20202914260
:102D2000009000F09E80FFE708980168012040F2C3
:102D30004042C4F202029142009000F09280FFE70C
:102D400008980168012040F25842C4F20202914200
:102D5000009000F08680FFE708980168012040F2AB
:102D60007042C4F20202914200907AD0FFE70898C4
:102D70000168012040F28842C4F2020291420090B0
:102D80006FD0FFE708980168012040F2A042C4F22A
:102D900002029142009064D0FFE708980168012088
:102DA00040F2B842C4F202029142009059D0FFE7CB
:102DB00008980168012045F20842C5F602029142D6
:102DC00000904ED0FFE708980168012045F21C42B0
:102DD000C5F602029142009043D0FFE708980168CF
:102DE000012045F23042C5F602029142009038D0EF
:102DF000FFE708980168012045F24442C5F6020247
:102E0000914200902DD0FFE708980168012045F21B
:102E10005842C5F602029142009022D0FFE708987E
:102E20000168012045F26C42C5F602029142009011
:102E300017D0FFE708980168012045F28042C5F6E7
:102E40000202914200900CD0FFE7089800684AF611
:102E50006C31CAF2FD710844B0FA80F0400900906C
:102E6000FFE70098C007A0B1FFE70898416E806EA9
:102E700048600898C06E58B1FFE70898C16E0868AE
:102E800020F4807008600898016F406F4860FFE789
:102E9000FFE70899012081F83500FFE70899002035
:102EA00081F83400FFE7FFE700208DF82700FFE7F7
:102EB0009DF827000AB080BD80B586B004900498C4
:102EC00020B9FFE701208DF8170046E3049890F839
:102ED0003500022807D0FFE70499802048650120CB
:102EE0008DF8170039E30498016801201022C4F21C
:102EF00002029142029000F0A380FFE7049801686B
:102F000001202822C4F202029142029000F098802F
:102F1000FFE70498016801204022C4F202029142B6
:102F2000029000F08D80FFE704980168012058228C
:102F3000C4F202029142029000F08280FFE70498FE
:102F4000016801207022C4F202029142029077D0FF
:102F5000FFE70498016801208822C4F2020291422E
:102F600002906DD0FFE7049801680120A022C4F20E
:102F700002029142029063D0FFE7049801680120A9
:102F8000B822C4F202029142029059D0FFE704989D
:102F90000168012040F21042C4F202029142029004
:102FA0004ED0FFE704980168012040F22842C4F2A5
:102FB00002029142029043D0FFE704980168012089
:102FC00040F24042C4F202029142029038D0FFE740
:102FD00004980168012040F25842C4F20202914272
:102FE00002902DD0FFE704980168012040F2704262
:102FF000C4F202029142029022D0FFE704980168D5
:10300000012040F28842C4F202029142029017D09D
:10301000FFE704980168012040F2A042C4F20202D6
:10302000914202900CD0FFE7049800684FF64831B7
:10303000CBF6FD710844B0FA80F040090290FFE73A
:103040000298C007002800F09D80FFE70499042043
:1030500081F83500049800681021C4F2020188420A
:1030600000F08180FFE7049800682821C4F2020183
:10307000884278D0FFE7049800684021C4F202013A
:10308000884270D0FFE7049800685821C4F202011A
:10309000884268D0FFE7049800687021C4F20201FA
:1030A000884260D0FFE7049800688821C4F20201DA
:1030B000884258D0FFE704980068A021C4F20201BA
:1030C000884250D0FFE704980068B821C4F202019A
:1030D000884248D0FFE70498006840F21041C4F2EB
:1030E000020188423FD0FFE70498006840F228417F
:1030F000C4F20201884236D0FFE70498006840F22B
:103100004041C4F2020188422DD0FFE704980068D4
:1031100040F25841C4F20201884224D0FFE70498EB
:10312000006840F27041C4F2020188421BD0FFE700
:103130000498006840F28841C4F20201884212D02B
:10314000FFE70498006840F2A041C4F202018842FF
:1031500009D0FFE70498006840F2B841C4F20201C8
:10316000884207D1FFE704980168086820F0010051
:10317000086006E004980168086820F00100086013
:10318000FFE7E5E104980168086820F00E00086098
:10319000049800681021C4F20201884200F0818086
:1031A000FFE7049800682821C4F20201884278D021
:1031B000FFE7049800684021C4F20201884270D001
:1031C000FFE7049800685821C4F20201884268D0E1
:1031D000FFE7049800687021C4F20201884260D0C1
:1031E000FFE7049800688821C4F20201884258D0A1
:1031F000FFE704980068A021C4F20201884250D081
:10320000FFE704980068B821C4F20201884248D060
:10321000FFE70498006840F21041C4F202018842BE
:103220003FD0FFE70498006840F22841C4F2020151
:10323000884236D0FFE70498006840F24041C4F26B
:10324000020188422DD0FFE70498006840F25841FF
:10325000C4F20201884224D0FFE70498006840F2DB
:103260007041C4F2020188421BD0FFE70498006855
:1032700040F28841C4F20201884212D0FFE704986C
:10328000006840F2A041C4F20201884209D0FFE781
:103290000498006840F2B841C4F20201884207D1A4
:1032A000FFE704980168086820F00100086006E064
:1032B00004980168086820F001000860FFE704989E
:1032C000016801201022C4F202029142019000F034
:1032D0000381FFE70498016801202822C4F202025A
:1032E0009142019000F0F880FFE704980168012006
:1032F0004022C4F202029142019000F0ED80FFE70B
:103300000498016801205822C4F2020291420190FF
:1033100000F0E280FFE70498016801207022C4F207
:1033200002029142019000F0D780FFE70498016803
:1033300001208822C4F202029142019000F0CC8068
:10334000FFE7049801680120A022C4F20202914222
:10335000019000F0C180FFE7049801680120B822C5
:10336000C4F202029142019000F0B680FFE7049897
:103370000168012040F21042C4F202029142019021
:1033800000F0AA80FFE704980168012040F228427B
:10339000C4F202029142019000F09E80FFE704987F
:1033A0000168012040F24042C4F2020291420190C1
:1033B00000F09280FFE704980168012040F2584233
:1033C000C4F202029142019000F08680FFE7049867
:1033D0000168012040F27042C4F202029142019061
:1033E0007AD0FFE704980168012040F28842C4F2D5
:1033F0000202914201906FD0FFE70498016801201A
:1034000040F2A042C4F202029142019064D0FFE770
:1034100004980168012040F2B842C4F202029142CD
:10342000019059D0FFE704980168012045F2084255
:10343000C5F60202914201904ED0FFE70498016860
:10344000012045F21C42C5F602029142019043D090
:10345000FFE704980168012045F23042C5F60202F8
:103460009142019038D0FFE704980168012045F2AD
:103470004442C5F60202914201902DD0FFE7049824
:103480000168012045F25842C5F6020291420190BE
:1034900022D0FFE704980168012045F26C42C5F68E
:1034A00002029142019017D0FFE7049801680120C1
:1034B00045F28042C5F60202914201900CD0FFE72E
:1034C000049800684AF66C31CAF2FD710844B0FAFB
:1034D00080F040090190FFE70198C00728B3FFE79B
:1034E0000498016E086820F4807008600498806D6C
:1034F00003900498C06D00F01F01012088400399DB
:1035000048600498416E806E48600498C06E58B15F
:10351000FFE70498C16E086820F480700860049882
:10352000016F406F4860FFE7FFE70499012081F8D1
:103530003500FFE70499002081F83400FFE7049884
:10354000006D20B1FFE70498016D8847FFE7FFE7B2
:10355000FFE700208DF81700FFE79DF8170006B081
:1035600080BD00000000000080B590B00F900020EA
:103570000B9040F20400C2F20040006848F2B5111E
:10358000C1F64E31A0FB0110800A0A900F98806DA1
:1035900009900F98806D0890099800680E9008981F
:1035A00000680D900F98016801201022C4F20202F9
:1035B0009142079000F0A380FFE70F980168012077
:1035C0002822C4F202029142079000F09880FFE79F
:1035D0000F98016801204022C4F202029142079034
:1035E00000F08D80FFE70F98016801205822C4F297
:1035F00002029142079000F08280FFE70F98016875
:1036000001207022C4F202029142079077D0FFE7B6
:103610000F98016801208822C4F2020291420790AB
:103620006DD0FFE70F9801680120A022C4F20202CA
:103630009142079063D0FFE70F9801680120B822FC
:10364000C4F202029142079059D0FFE70F98016837
:10365000012040F21042C4F20202914207904ED083
:10366000FFE70F980168012040F22842C4F20202ED
:103670009142079043D0FFE70F980168012040F284
:103680004042C4F202029142079038D0FFE70F98FF
:103690000168012040F25842C4F2020291420790B0
:1036A0002DD0FFE70F980168012040F27042C4F26C
:1036B00002029142079022D0FFE70F980168012093
:1036C00040F28842C4F202029142079017D0FFE70D
:1036D0000F980168012040F2A042C4F20202914218
:1036E00007900CD0FFE70F9800684FF64831CBF6F3
:1036F000FD710844B0FA80F040090790FFE7079891
:10370000C007002800F01385FFE70E980F99C96DD8
:1037100001F01F01C8400007002840F1B080FFE71A
:103720000F9800681021C4F20201884200F08180E5
:10373000FFE70F9800682821C4F20201884278D080
:10374000FFE70F9800684021C4F20201884270D060
:10375000FFE70F9800685821C4F20201884268D040
:10376000FFE70F9800687021C4F20201884260D020
:10377000FFE70F9800688821C4F20201884258D000
:10378000FFE70F980068A021C4F20201884250D0E0
:10379000FFE70F980068B821C4F20201884248D0C0
:1037A000FFE70F98006840F21041C4F2020188421E
:1037B0003FD0FFE70F98006840F22841C4F20201B1
:1037C000884236D0FFE70F98006840F24041C4F2CB
:1037D000020188422DD0FFE70F98006840F258415F
:1037E000C4F20201884224D0FFE70F98006840F23B
:1037F0007041C4F2020188421BD0FFE70F980068B5
:1038000040F28841C4F20201884212D0FFE70F98CB
:10381000006840F2A041C4F20201884209D0FFE7EB
:103820000F98006840F2B841C4F20201884207D103
:10383000FFE70F980068006800F00400069006E0BB
:103840000F980068006800F008000690FFE70698EF
:10385000A0B1FFE70F980168086820F00400086035
:103860000F98C06D00F01F010820884009998860FA
:103870000F99486D40F001004865FFE7FFE70E989B
:103880000F99C96D01F01F01C840C007002800F062
:10389000A980FFE70F9800681021C4F20201884256
:1038A00000F08180FFE70F9800682821C4F2020130
:1038B000884278D0FFE70F9800684021C4F20201E7
:1038C000884270D0FFE70F9800685821C4F20201C7
:1038D000884268D0FFE70F9800687021C4F20201A7
:1038E000884260D0FFE70F9800688821C4F2020187
:1038F000884258D0FFE70F980068A021C4F2020167
:10390000884250D0FFE70F980068B821C4F2020146
:10391000884248D0FFE70F98006840F21041C4F297
:10392000020188423FD0FFE70F98006840F228412B
:10393000C4F20201884236D0FFE70F98006840F2D7
:103940004041C4F2020188422DD0FFE70F98006881
:1039500040F25841C4F20201884224D0FFE70F9898
:10396000006840F27041C4F2020188421BD0FFE7B8
:103970000F98006840F28841C4F20201884212D0D8
:10398000FFE70F98006840F2A041C4F202018842AC
:1039900009D0FFE70F98006840F2B841C4F2020175
:1039A000884207D1FFE70F980068406900F0800067
:1039B000059005E00F980068006800200590FFE77B
:1039C000059870B1FFE70F98C06D00F01F0101204E
:1039D0008840099988600F99486D40F00200486559
:1039E000FFE7FFE70E980F99C96D01F01F01C8406E
:1039F0004007002840F1A980FFE70F9800681021D8
:103A0000C4F20201884200F08180FFE70F9800684D
:103A10002821C4F20201884278D0FFE70F9800689D
:103A20004021C4F20201884270D0FFE70F9800687D
:103A30005821C4F20201884268D0FFE70F9800685D
:103A40007021C4F20201884260D0FFE70F9800683D
:103A50008821C4F20201884258D0FFE70F9800681D
:103A6000A021C4F20201884250D0FFE70F980068FD
:103A7000B821C4F20201884248D0FFE70F980068DD
:103A800040F21041C4F2020188423FD0FFE70F9894
:103A9000006840F22841C4F20201884236D0FFE7B4
:103AA0000F98006840F24041C4F2020188422DD0D4
:103AB000FFE70F98006840F25841C4F202018842C3
:103AC00024D0FFE70F98006840F27041C4F2020171
:103AD00088421BD0FFE70F98006840F28841C4F28B
:103AE0000201884212D0FFE70F98006840F2A0411F
:103AF000C4F20201884209D0FFE70F98006840F243
:103B0000B841C4F20201884207D1FFE70F9800686C
:103B1000006800F00200049005E00F98006800685B
:103B200000200490FFE7049870B1FFE70F98C06D84
:103B300000F01F0104208840099988600F99486DA2
:103B400040F004004865FFE7FFE70E980F99C96D44
:103B500001F01F01C840C006002840F1DE80FFE7E9
:103B60000F9800681021C4F20201884200F08180A1
:103B7000FFE70F9800682821C4F20201884278D03C
:103B8000FFE70F9800684021C4F20201884270D01C
:103B9000FFE70F9800685821C4F20201884268D0FC
:103BA000FFE70F9800687021C4F20201884260D0DC
:103BB000FFE70F9800688821C4F20201884258D0BC
:103BC000FFE70F980068A021C4F20201884250D09C
:103BD000FFE70F980068B821C4F20201884248D07C
:103BE000FFE70F98006840F21041C4F202018842DA
:103BF0003FD0FFE70F98006840F22841C4F202016D
:103C0000884236D0FFE70F98006840F24041C4F286
:103C1000020188422DD0FFE70F98006840F258411A
:103C2000C4F20201884224D0FFE70F98006840F2F6
:103C30007041C4F2020188421BD0FFE70F98006870
:103C400040F28841C4F20201884212D0FFE70F9887
:103C5000006840F2A041C4F20201884209D0FFE7A7
:103C60000F98006840F2B841C4F20201884207D1BF
:103C7000FFE70F980068006800F00800039006E076
:103C80000F980068006800F004000390FFE70398B5
:103C9000002841D0FFE70F98C06D00F01F011020F1
:103CA0008840099988600F980068006840030028E0
:103CB0001AD5FFE70F98006800680003002809D4B0
:103CC000FFE70F98006C20B1FFE70F98016C884761
:103CD000FFE708E00F98806C20B1FFE70F98816C38
:103CE0008847FFE7FFE716E00F9800680068C00507
:103CF000002807D4FFE70F980168086820F0080043
:103D00000860FFE70F98006C20B1FFE70F98016C87
:103D10008847FFE7FFE7FFE7FFE70E980F99C96DB8
:103D200001F01F01C8408006002840F12681FFE70E
:103D30000F9800681021C4F20201884200F08180CF
:103D4000FFE70F9800682821C4F20201884278D06A
:103D5000FFE70F9800684021C4F20201884270D04A
:103D6000FFE70F9800685821C4F20201884268D02A
:103D7000FFE70F9800687021C4F20201884260D00A
:103D8000FFE70F9800688821C4F20201884258D0EA
:103D9000FFE70F980068A021C4F20201884250D0CA
:103DA000FFE70F980068B821C4F20201884248D0AA
:103DB000FFE70F98006840F21041C4F20201884208
:103DC0003FD0FFE70F98006840F22841C4F202019B
:103DD000884236D0FFE70F98006840F24041C4F2B5
:103DE000020188422DD0FFE70F98006840F2584149
:103DF000C4F20201884224D0FFE70F98006840F225
:103E00007041C4F2020188421BD0FFE70F9800689E
:103E100040F28841C4F20201884212D0FFE70F98B5
:103E2000006840F2A041C4F20201884209D0FFE7D5
:103E30000F98006840F2B841C4F20201884207D1ED
:103E4000FFE70F980068006800F01000029006E09D
:103E50000F980068006800F002000290FFE70298E7
:103E6000002800F08980FFE70F98C06D00F01F0167
:103E700020208840099988600F9890F83500042820
:103E800037D1FFE70F980168086820F01600086036
:103E90000F980168486920F0800048610F98006C15
:103EA00020B9FFE70F98806C38B1FFE70F980168E1
:103EB000086820F008000860FFE70F98C06D00F068
:103EC0001F013F208840099988600F99012081F8DF
:103ED0003500FFE70F99002081F83400FFE70F98C5
:103EE000006D20B1FFE70F98016D8847FFE700F0F4
:103EF00019BC0F9800680068400300281AD5FFE736
:103F00000F98006800680003002809D4FFE70F98A5
:103F1000406C20B1FFE70F98416C8847FFE708E04D
:103F20000F98C06B20B1FFE70F98C16B8847FFE780
:103F3000FFE720E00F9800680068C005002811D452
:103F4000FFE70F980168086820F0100008600F99DB
:103F5000012081F83500FFE70F99002081F8340037
:103F6000FFE7FFE70F98C06B20B1FFE70F98C16B29
:103F70008847FFE7FFE7FFE7FFE70F98406D00285E
:103F800000F0D480FFE70F98406DC007002800F0D4
:103F9000C480FFE70F99042081F835000F9800686E
:103FA0001021C4F20201884200F08180FFE70F98DF
:103FB00000682821C4F20201884278D0FFE70F98F8
:103FC00000684021C4F20201884270D0FFE70F98D8
:103FD00000685821C4F20201884268D0FFE70F98B8
:103FE00000687021C4F20201884260D0FFE70F9898
:103FF00000688821C4F20201884258D0FFE70F9878
:104000000068A021C4F20201884250D0FFE70F9857
:104010000068B821C4F20201884248D0FFE70F9837
:10402000006840F21041C4F2020188423FD0FFE72D
:104030000F98006840F22841C4F20201884236D04D
:10404000FFE70F98006840F24041C4F20201884245
:104050002DD0FFE70F98006840F25841C4F20201EA
:10406000884224D0FFE70F98006840F27041C4F204
:10407000020188421BD0FFE70F98006840F2884198
:10408000C4F20201884212D0FFE70F98006840F2A4
:10409000A041C4F20201884209D0FFE70F980068EE
:1040A00040F2B841C4F20201884207D1FFE70F98FD
:1040B0000168086820F00100086006E00F980168B8
:1040C000086820F001000860FFE7FFE70B98013067
:1040D0000B900A99884201D9FFE707E0FFE70F98A4
:1040E00000680068C0070028F0D1FFE70F9800685B
:1040F0000068C00728B1FFE70F99032081F8350059
:1041000004E00F99012081F83500FFE7FFE70F99E0
:10411000002081F83400FFE7FFE70F98C06C20B162
:10412000FFE70F98C16C8847FFE7FFE7FAE20F98B7
:104130000168012045F20842C5F602029142019051
:104140004ED0FFE70F980168012045F21C42C5F6EA
:1041500002029142019043D0FFE70F9801680120CD
:1041600045F23042C5F602029142019038D0FFE795
:104170000F980168012045F24442C5F602029142BF
:1041800001902DD0FFE70F980168012045F25842B9
:10419000C5F602029142019022D0FFE70F98016814
:1041A000012045F26C42C5F602029142019017D0FF
:1041B000FFE70F980168012045F28042C5F6020230
:1041C000914201900CD0FFE70F9800684AF66C31DD
:1041D000CAF2FD710844B0FA80F040090190FFE78F
:1041E0000198C007002800F09B82FFE70F98006845
:1041F00000680C900D980F99C96D01F01F01C8401F
:104200004007002840F1D780FFE79DF830004007C5
:10421000002840F1D080FFE70F98C06D00F01F012B
:1042200004208840089948609DF831000006002865
:1042300018D5FFE79DF83200C00748B9FFE70F988F
:10424000806C20B1FFE70F98816C8847FFE708E09A
:104250000F98006C20B1FFE70F98016C8847FFE7CB
:10426000FFE7A7E09DF830008006002800F1998064
:10427000FFE70F9800681021C4F20201884200F0A5
:104280008180FFE70F9800682821C4F2020188426C
:1042900078D0FFE70F9800684021C4F202018842FD
:1042A00070D0FFE70F9800685821C4F202018842DD
:1042B00068D0FFE70F9800687021C4F202018842BD
:1042C00060D0FFE70F9800688821C4F2020188429D
:1042D00058D0FFE70F980068A021C4F2020188427D
:1042E00050D0FFE70F980068B821C4F2020188425D
:1042F00048D0FFE70F98006840F21041C4F2020175
:1043000088423FD0FFE70F98006840F22841C4F28E
:104310000201884236D0FFE70F98006840F2404122
:10432000C4F2020188422DD0FFE70F98006840F2E6
:104330005841C4F20201884224D0FFE70F98006878
:1043400040F27041C4F2020188421BD0FFE70F988F
:10435000006840F28841C4F20201884212D0FFE7AF
:104360000F98006840F2A041C4F20201884209D0CF
:10437000FFE70F98006840F2B841C4F2020188429A
:1043800007D1FFE70F980168086820F0080008606F
:1043900006E00F980168086820F004000860FFE755
:1043A000FFE70F98006C20B1FFE70F98016C88477A
:1043B000FFE7FFE7B3E10D980F99C96D01F01F0109
:1043C000C8408007002840F1E180FFE79DF83000F9
:1043D0008007002840F1DA80FFE70F98C06D00F0F9
:1043E0001F0102208840089948609DF831000006AE
:1043F000002818D5FFE79DF83200C00748B9FFE74D
:104400000F98406C20B1FFE70F98416C8847FFE799
:1044100008E00F98C06B20B1FFE70F98C16B884789
:10442000FFE7FFE7B1E09DF830008006002800F1CB
:10443000A380FFE70F9800681021C4F202018842B0
:1044400000F08180FFE70F9800682821C4F2020184
:10445000884278D0FFE70F9800684021C4F202013B
:10446000884270D0FFE70F9800685821C4F202011B
:10447000884268D0FFE70F9800687021C4F20201FB
:10448000884260D0FFE70F9800688821C4F20201DB
:10449000884258D0FFE70F980068A021C4F20201BB
:1044A000884250D0FFE70F980068B821C4F202019B
:1044B000884248D0FFE70F98006840F21041C4F2EC
:1044C000020188423FD0FFE70F98006840F2284180
:1044D000C4F20201884236D0FFE70F98006840F22C
:1044E0004041C4F2020188422DD0FFE70F980068D6
:1044F00040F25841C4F20201884224D0FFE70F98ED
:10450000006840F27041C4F2020188421BD0FFE70C
:104510000F98006840F28841C4F20201884212D02C
:10452000FFE70F98006840F2A041C4F20201884200
:1045300009D0FFE70F98006840F2B841C4F20201C9
:10454000884207D1FFE70F980168086820F014003F
:10455000086006E00F980168086820F00A0008600B
:10456000FFE70F99012081F83500FFE70F99002040
:1045700081F83400FFE7FFE70F98C06B20B1FFE739
:104580000F98C16B8847FFE7FFE7C7E00D980F99C9
:10459000C96D01F01F01C8400007002840F1BC8030
:1045A000FFE79DF830000007002840F1B580FFE7E5
:1045B0000F9800681021C4F20201884200F0818047
:1045C000FFE70F9800682821C4F20201884278D0E2
:1045D000FFE70F9800684021C4F20201884270D0C2
:1045E000FFE70F9800685821C4F20201884268D0A2
:1045F000FFE70F9800687021C4F20201884260D082
:10460000FFE70F9800688821C4F20201884258D061
:10461000FFE70F980068A021C4F20201884250D041
:10462000FFE70F980068B821C4F20201884248D021
:10463000FFE70F98006840F21041C4F2020188427F
:104640003FD0FFE70F98006840F22841C4F2020112
:10465000884236D0FFE70F98006840F24041C4F22C
:10466000020188422DD0FFE70F98006840F25841C0
:10467000C4F20201884224D0FFE70F98006840F29C
:104680007041C4F2020188421BD0FFE70F98006816
:1046900040F28841C4F20201884212D0FFE70F982D
:1046A000006840F2A041C4F20201884209D0FFE74D
:1046B0000F98006840F2B841C4F20201884207D165
:1046C000FFE70F980168086820F01C00086006E00A
:1046D0000F980168086820F00E000860FFE70F9847
:1046E000C06D00F01F01012000FA01F1089A51602D
:1046F0000F9948650F9981F83500FFE70F99002061
:1047000081F83400FFE70F98C06C20B1FFE70F98E5
:10471000C16C8847FFE700E0FFE7FFE7FFE700E045
:10472000FFE7FFE710B080BD10B58EB00C9002F02F
:1047300017FC0A900C9828B9FFE701208DF8370084
:1047400000F09FBC0C98016801201022C4F2020204
:104750009142079000F0A380FFE70C9801680120C8
:104760002822C4F202029142079000F09880FFE7ED
:104770000C98016801204022C4F202029142079085
:1047800000F08D80FFE70C98016801205822C4F2E8
:1047900002029142079000F08280FFE70C980168C6
:1047A00001207022C4F202029142079077D0FFE705
:1047B0000C98016801208822C4F2020291420790FD
:1047C0006DD0FFE70C9801680120A022C4F202021C
:1047D0009142079063D0FFE70C9801680120B8224E
:1047E000C4F202029142079059D0FFE70C98016889
:1047F000012040F21042C4F20202914207904ED0D2
:10480000FFE70C980168012040F22842C4F202023E
:104810009142079043D0FFE70C980168012040F2D5
:104820004042C4F202029142079038D0FFE70C9850
:104830000168012040F25842C4F2020291420790FE
:104840002DD0FFE70C980168012040F27042C4F2BD
:1048500002029142079022D0FFE70C9801680120E4
:1048600040F28842C4F202029142079017D0FFE75B
:104870000C980168012040F2A042C4F20202914269
:1048800007900CD0FFE70C9800684FF64831CBF644
:10489000FD710844B0FA80F040090790FFE70798DF
:1048A000C007002800F07981FFE70C98406A08B142
:1048B000FFE7FFE70C99022081F83500FFE70C992C
:1048C000002081F83400FFE70C9800681021C4F242
:1048D0000201884200F08180FFE70C9800682821DF
:1048E000C4F20201884278D0FFE70C9800684021AA
:1048F000C4F20201884270D0FFE70C98006858218A
:10490000C4F20201884268D0FFE70C980068702169
:10491000C4F20201884260D0FFE70C980068882149
:10492000C4F20201884258D0FFE70C980068A02129
:10493000C4F20201884250D0FFE70C980068B82109
:10494000C4F20201884248D0FFE70C98006840F2A8
:104950001041C4F2020188423FD0FFE70C98006882
:1049600040F22841C4F20201884236D0FFE70C9899
:10497000006840F24041C4F2020188422DD0FFE7B6
:104980000C98006840F25841C4F20201884224D0D9
:10499000FFE70C98006840F27041C4F202018842BF
:1049A0001BD0FFE70C98006840F28841C4F2020176
:1049B000884212D0FFE70C98006840F2A041C4F290
:1049C0000201884209D0FFE70C98006840F2B84124
:1049D000C4F20201884207D1FFE70C980168086819
:1049E00020F00100086006E00C980168086820F0DB
:1049F00001000860FFE7FFE70C9800680068C00747
:104A000098B1FFE702F0ACFA0A99401A06280BD3D6
:104A1000FFE70C99202048650C99032081F83500A8
:104A200001208DF837002CE3E6E70C980068006859
:104A30000B900B9848F23F01CFF6106108400B90A5
:104A40000C998868D1F80CC00B694A6940EA0C00DF
:104A5000184310438A691043CA691043096A014325
:104A60000B9808430B900C98406A042808D1FFE784
:104A70000C99C86A096B01430B9808430B90FFE738
:104A800041F20000C5F6004000684FF6FF71884310
:104A9000B0F1005F40D3FFE70C984068292807D3A6
:104AA000FFE70C98416801202F2906902AD3FFE7E1
:104AB0000C9840683F2807D3FFE70C984168012015
:104AC000432906901ED3FFE70C984068472807D378
:104AD000FFE70C98416801204929069012D3FFE7AF
:104AE0000C98416800204F29059008D3FFE70C98E7
:104AF00041680020532938BF01200590FFE7059841
:104B00000690FFE70698C00728B1FFE70B9840F42E
:104B100080100B90FFE7FFE70B980C99096808607D
:104B20000C98006840690B900B9820F007000B90E0
:104B30000C98416A0B9808430B900C98406A042823
:104B40001AD1FFE70C98816A0B9808430B900C98D8
:104B5000C06A80B1FFE70C98FCF77EFA50B1FFE71E
:104B60000C99402048650C99012081F835008DF89A
:104B7000370086E2FFE7FFE70B980C990968486168
:104B80000C98FCF72DF809900C98C06D00F01F01EF
:104B90003F2088400999886026E10C98016801202F
:104BA00045F20842C5F60202914204904ED0FFE75A
:104BB0000C980168012045F21C42C5F602029142A0
:104BC000049043D0FFE70C980168012045F2304281
:104BD000C5F602029142049038D0FFE70C980168B4
:104BE000012045F24442C5F60202914204902DD0C4
:104BF000FFE70C980168012045F25842C5F6020211
:104C00009142049022D0FFE70C980168012045F200
:104C10006C42C5F602029142049017D0FFE70C984F
:104C20000168012045F28042C5F6020291420490DB
:104C30000CD0FFE70C9800684AF66C31CAF2FD719F
:104C40000844B0FA80F040090490FFE70498C007D8
:104C5000002800F0BD80FFE70C980168012045F2B4
:104C60000842C5F60202914203904ED0FFE70C982D
:104C70000168012045F21C42C5F6020291420390F0
:104C800043D0FFE70C980168012045F23042C5F699
:104C900002029142039038D0FFE70C98016801208E
:104CA00045F24442C5F60202914203902DD0FFE73F
:104CB0000C980168012045F25842C5F60202914263
:104CC000039022D0FFE70C980168012045F26C4266
:104CD000C5F602029142039017D0FFE70C980168D5
:104CE000012045F28042C5F60202914203900CD0A9
:104CF000FFE70C9800684AF66C31CAF2FD7108446F
:104D0000B0FA80F040090390FFE70398C00708B1AC
:104D1000FFE7FFE70C99022081F83500FFE70C99C7
:104D2000002081F83400FFE70C98006800680B90C1
:104D30000B986FF310100B900C988068402803D1EB
:104D4000FFE71020029008E00C9880688038B0FAE5
:104D500080F0400980030290FFE702980C99CA682E
:104D60000B69D1F814C0D1F818E0CC694EEA040EF2
:104D70004CEA0E0C43EA0C031A4340EAD200096ADB
:104D800040EA11110B9808430B900B980C99096895
:104D900008600C9908684AF6F832CAF2FD721044AD
:104DA0004CF6CD42CCF6CC42A0FB02026FF00300E1
:104DB00000EA9200C8650C98FBF712FF08900C9867
:104DC000C06D00F01F0101208840089948600AE08A
:104DD0000C99402048650C99032081F8350001208A
:104DE0008DF837004DE1FFE70C9801680120102293
:104DF000C4F202029142019000F00381FFE70C9897
:104E0000016801202822C4F202029142019000F0C0
:104E1000F880FFE70C98016801204022C4F20202EA
:104E20009142019000F0ED80FFE70C9801680120AD
:104E30005822C4F202029142019000F0E280FFE7A2
:104E40000C98016801207022C4F202029142019084
:104E500000F0D780FFE70C98016801208822C4F297
:104E600002029142019000F0CC80FFE70C980168AB
:104E70000120A022C4F202029142019000F0C18000
:104E8000FFE70C9801680120B822C4F202029142A7
:104E9000019000F0B680FFE70C980168012040F215
:104EA0001042C4F202029142019000F0AA80FFE792
:104EB0000C980168012040F22842C4F2020291429B
:104EC000019000F09E80FFE70C980168012040F2FD
:104ED0004042C4F202029142019000F09280FFE74A
:104EE0000C980168012040F25842C4F2020291423B
:104EF000019000F08680FFE70C980168012040F2E5
:104F00007042C4F20202914201907AD0FFE70C98FD
:104F10000168012040F28842C4F2020291420190ED
:104F20006FD0FFE70C980168012040F2A042C4F264
:104F300002029142019064D0FFE70C9801680120C1
:104F400040F2B842C4F202029142019059D0FFE708
:104F50000C980168012045F20842C5F60202914210
:104F600001904ED0FFE70C980168012045F21C42E9
:104F7000C5F602029142019043D0FFE70C98016808
:104F8000012045F23042C5F602029142019038D02C
:104F9000FFE70C980168012045F24442C5F6020281
:104FA000914201902DD0FFE70C980168012045F255
:104FB0005842C5F602029142019022D0FFE70C98B8
:104FC0000168012045F26C42C5F60202914201904F
:104FD00017D0FFE70C980168012045F28042C5F622
:104FE0000202914201900CD0FFE70C9800684AF64B
:104FF0006C31CAF2FD710844B0FA80F040090190AA
:10500000FFE70198C00790B3FFE70C98FBF7D0FECD
:105010000C988068802804D1FFE70C990020486034
:10502000FFE70C990879096E08600C98416E806E54
:1050300048600C98406888B1FFE70C9840680828E1
:105040000CD8FFE70C98FBF76FFF0C98C16E00209F
:1050500008600C98016F406F486007E00C990020D1
:10506000C8660C9908670C994867FFE7FFE70C9939
:10507000002048650C9A012182F835108DF8370020
:10508000FFE79DF837000EB010BD000000000000E3
:1050900080B588B0069005910492039300208DF8A6
:1050A0000B00069820B9FFE701208DF81F006CE384
:1050B000FFE7069890F83400012804D1FFE70220AA
:1050C0008DF81F0061E30699012081F83400FFE7A5
:1050D000FFE7069890F83500012840F04383FFE78A
:1050E0000699022081F83500069900204865069847
:1050F00000681021C4F20201884200F08180FFE7BD
:10510000069800682821C4F20201884278D0FFE79F
:10511000069800684021C4F20201884270D0FFE77F
:10512000069800685821C4F20201884268D0FFE75F
:10513000069800687021C4F20201884260D0FFE73F
:10514000069800688821C4F20201884258D0FFE71F
:1051500006980068A021C4F20201884250D0FFE7FF
:1051600006980068B821C4F20201884248D0FFE7DF
:105170000698006840F21041C4F2020188423FD014
:10518000FFE70698006840F22841C4F20201884215
:1051900036D0FFE70698006840F24041C4F20201B1
:1051A00088422DD0FFE70698006840F25841C4F2CB
:1051B0000201884224D0FFE70698006840F270415F
:1051C000C4F2020188421BD0FFE70698006840F253
:1051D0008841C4F20201884212D0FFE706980068B5
:1051E00040F2A041C4F20201884209D0FFE70698CC
:1051F000006840F2B841C4F20201884207D1FFE7DB
:1052000006980168086820F00100086006E006982A
:105210000168086820F001000860FFE7069805991A
:10522000049A039BFBF790FF069801680120102267
:10523000C4F202029142019000F0A380FFE70698B9
:10524000016801202822C4F202029142019000F07C
:105250009880FFE70698016801204022C4F202020C
:105260009142019000F08D80FFE7069801680120CF
:105270005822C4F202029142019000F08280FFE7BE
:105280000698016801207022C4F202029142019046
:1052900077D0FFE70698016801208822C4F2020255
:1052A000914201906DD0FFE7069801680120A0228D
:1052B000C4F202029142019063D0FFE706980168B0
:1052C0000120B822C4F202029142019059D0FFE7B6
:1052D00006980168012040F21042C4F20202914295
:1052E00001904ED0FFE706980168012040F2284265
:1052F000C4F202029142019043D0FFE70698016890
:10530000012040F24042C4F202029142019038D0A2
:10531000FFE706980168012040F25842C4F20202F9
:10532000914201902DD0FFE706980168012040F2DC
:105330007042C4F202029142019022D0FFE7069827
:105340000168012040F28842C4F2020291420190B9
:1053500017D0FFE706980168012040F2A042C4F28E
:105360000202914201900CD0FFE7069800684FF6C8
:105370004831CBF6FD710844B0FA80F04009019045
:10538000FFE70198C007A8B1FFE70698006800682A
:105390000B2161F344000699096808600698006CC7
:1053A00038B1FFE706980168086840F00800086017
:1053B000FFE714E0069800680068052161F34300E8
:1053C0000699096808600698006C38B1FFE70698EE
:1053D0000168086840F004000860FFE7FFE70698EE
:1053E000016801201022C4F202029142009000F0F4
:1053F0000381FFE70698016801202822C4F2020217
:105400009142009000F0F880FFE7069801680120C3
:105410004022C4F202029142009000F0ED80FFE7CA
:105420000698016801205822C4F2020291420090BD
:1054300000F0E280FFE70698016801207022C4F2C4
:1054400002029142009000F0D780FFE706980168C1
:1054500001208822C4F202029142009000F0CC8028
:10546000FFE7069801680120A022C4F202029142DF
:10547000009000F0C180FFE7069801680120B82283
:10548000C4F202029142009000F0B680FFE7069855
:105490000168012040F21042C4F2020291420090E1
:1054A00000F0AA80FFE706980168012040F2284238
:1054B000C4F202029142009000F09E80FFE706983D
:1054C0000168012040F24042C4F202029142009081
:1054D00000F09280FFE706980168012040F25842F0
:1054E000C4F202029142009000F08680FFE7069825
:1054F0000168012040F27042C4F202029142009021
:105500007AD0FFE706980168012040F28842C4F291
:105510000202914200906FD0FFE7069801680120D7
:1055200040F2A042C4F202029142009064D0FFE730
:1055300006980168012040F2B842C4F2020291428A
:10554000009059D0FFE706980168012045F2084213
:10555000C5F60202914200904ED0FFE7069801681E
:10556000012045F21C42C5F602029142009043D050
:10557000FFE706980168012045F23042C5F60202B5
:105580009142009038D0FFE706980168012045F26B
:105590004442C5F60202914200902DD0FFE70698E2
:1055A0000168012045F25842C5F60202914200907E
:1055B00022D0FFE706980168012045F26C42C5F64B
:1055C00002029142009017D0FFE70698016801207F
:1055D00045F28042C5F60202914200900CD0FFE7EE
:1055E000069800684AF66C31CAF2FD710844B0FAB8
:1055F00080F040090090FFE70098C007D0B1FFE7B6
:105600000698006E0068C003002807D5FFE70698DB
:10561000016E086840F480700860FFE70698C06E6D
:1056200038B1FFE70698C16E086840F480700860E2
:10563000FFE7FFE7069800681021C4F202018842E4
:1056400000F08180FFE7069800682821C4F202017B
:10565000884278D0FFE7069800684021C4F2020132
:10566000884270D0FFE7069800685821C4F2020112
:10567000884268D0FFE7069800687021C4F20201F2
:10568000884260D0FFE7069800688821C4F20201D2
:10569000884258D0FFE706980068A021C4F20201B2
:1056A000884250D0FFE706980068B821C4F2020192
:1056B000884248D0FFE70698006840F21041C4F2E3
:1056C000020188423FD0FFE70698006840F2284177
:1056D000C4F20201884236D0FFE70698006840F223
:1056E0004041C4F2020188422DD0FFE706980068CD
:1056F00040F25841C4F20201884224D0FFE70698E4
:10570000006840F27041C4F2020188421BD0FFE7FA
:105710000698006840F28841C4F20201884212D023
:10572000FFE70698006840F2A041C4F202018842F7
:1057300009D0FFE70698006840F2B841C4F20201C0
:10574000884207D1FFE706980168086840F0010029
:10575000086006E006980168086840F001000860EB
:10576000FFE70DE006994FF400604865FFE70699F2
:10577000002081F83400FFE701208DF80B00FFE7DF
:105780009DF80B008DF81F00FFE79DF81F0008B083
:1057900080BD00000000000080B584B0039001F0DF
:1057A000DFFB0290039801900198013048B1FFE7B8
:1057B00040F21000C2F200400178019808440190C4
:1057C000FFE7FFE701F0CCFB0299401A01998842FC
:1057D00001D2FFE7F6E704B080BD00000000000042
:1057E00085B0039002910192039890F898008DF88B
:1057F00003009DF80300012805D0FFE79DF8030092
:1058000002285DD1FFE7029803990968896D084273
:1058100007D1FFE703980168C86D40F00100C86533
:1058200015E0029803990968896D08400299884239
:1058300007D1FFE703980168C86D40F00200C86512
:1058400004E0039801680320C865FFE7FFE79DF8BF
:1058500009008007002809D5FFE7019A039801682D
:10586000D1F8E0001043C1F8E000FFE79DF809001F
:105870004007002809D5FFE7019A03980168D1F88D
:10588000E4001043C1F8E400FFE7FFE702984FF699
:10589000FF71C3F6CF7100EA010203980168486DF9
:1058A00010434865029A4AF61401C4F200010868E0
:1058B00040EA92700860FFE700208DF813000AE0CC
:1058C0000399D1F89C0040F00200C1F89C0001202F
:1058D0008DF81300FFE79DF8130005B07047000036
:1058E00080B586B00490039102920398406808B98D
:1058F000FFE700E0FFE7049890F89800022845D100
:10590000FFE704980068D0F8C00010F07C5F0BD16E
:10591000FFE70499D1F89C0040F02000C1F89C00FA
:1059200001208DF817003CE004980068D0F8C4000E
:10593000800200280BD5FFE70499D1F89C0040F4C1
:105940000070C1F89C0001208DF8170029E0049830
:105950000068D0F8C400C0F3044001900498039993
:10596000029A019BFCF7A4FA0199012000FA01F1C7
:10597000049A1268C2F8D010019988400499C1F8BD
:105980009400FFE700208DF817000AE00499D1F891
:105990009C0040F00800C1F89C0001208DF8170021
:1059A000FFE79DF8170006B080BD00000000000072
:1059B00082B00190009102B070470000000000002A
:1059C00087B005900491059890F898008DF8030031
:1059D0009DF80300012805D0FFE79DF80300022889
:1059E0006AD1FFE70498C068072801D1FFE7FFE705
:1059F0000498006878BBFFE70498C068072801D0C6
:105A0000FFE7FFE70498C06807280CD1FFE7049A76
:105A100010699169D269000440EA0220084340F00D
:105A2000605003900CE004998868CB680A69496962
:105A3000800740EAC36040EA024008430390FFE762
:105A40000598C06E0499496800EB810001900398A5
:105A5000019908602CE00498C068072801D0FFE78E
:105A6000FFE70498C168006940EA41700390049818
:105A7000C068072804D1FFE704988069029006E017
:105A800004988168406940EA81700290FFE70598B8
:105A9000006F0499496800EBC100019003980199D7
:105AA0000860019804300190029801990860FFE7AE
:105AB00000208DF81B000AE00599D1F89C0040F009
:105AC0000200C1F89C0001208DF81B00FFE79DF843
:105AD0001B0007B07047000085B0DDF814C00390CC
