:020000040800F2
:1000000000520024AD02000831770008216F00087B
:100010000976000831060008F18D00080000000094
:10002000000000000000000000000000E180000867
:10003000210D000800000000617700081981000808
:10004000C7020008C7020008C7020008C70200086C
:10005000C7020008C7020008C7020008C70200085C
:10006000C7020008C7020008C7020008F908000814
:10007000C7020008C7020008C7020008C70200083C
:10008000C7020008C7020008C702000841100008A4
:10009000C7020008C7020008C7020008C70200081C
:1000A000C7020008C7020008C7020008C70200080C
:1000B00029830008C7020008C7020008C702000819
:1000C000C7020008C7020008C7020008C7020008EC
:1000D000C7020008B98D0008C7020008C70200085F
:1000E000C7020008C702000800000000C70200089D
:1000F000C7020008C7020008C7020008C7020008BC
:10010000C7020008C7020008C7020008C7020008AB
:10011000C7020008C7020008C7020008C70200089B
:10012000C7020008C7020008C7020008C70200088B
:10013000C7020008C7020008C7020008C70200087B
:1001400000000000000000000000000000000000AF
:10015000C7020008C7020008C7020008C70200085B
:10016000C7020008C7020008C7020008C70200084B
:10017000C7020008C7020008C7020008C70200083B
:10018000C7020008C7020008C7020008C70200082B
:10019000C7020008C7020008C7020008C70200081B
:1001A000C7020008C7020008C7020008C70200080B
:1001B000C7020008C7020008C7020008C7020008FB
:1001C000C7020008C7020008C7020008C7020008EB
:1001D000C7020008C7020008C7020008C7020008DB
:1001E000C7020008C7020008C7020008C7020008CB
:1001F000C7020008C7020008C7020008C7020008BB
:10020000C7020008C7020008C7020008C7020008AA
:10021000C7020008C7020008C7020008C70200089A
:10022000C7020008C7020008C7020008000000005B
:10023000C7020008C702000800000000C70200084B
:10024000C7020008C7020008C7020008C70200086A
:10025000C7020008C7020008C7020008C70200085A
:10026000C7020008C7020008C7020008C70200084A
:10027000C7020008C7020008C7020008000000000B
:10028000C7020008C7020008C702000800000000FB
:1002900000000000C7020008DFF80CD000F07AF878
:1002A00000480047018F000800520024064880479C
:1002B00006480047FEE7FEE7FEE7FEE7FEE7FEE74B
:1002C000FEE7FEE7FEE7FEE7598200089902000814
:1002D0002DE9F05F0546002092469B46884606467B
:1002E000814640241BE0284641464746224600F00E
:1002F00041F853465A46C01A914110D31146184648
:10030000224600F028F82D1A67EB01084F462246D6
:100310000120002100F01FF817EB00094E41201EBC
:10032000A4F10104DFDC484631462A464346BDE8D5
:10033000F09FD2B201E000F8012B491EFBD27047BA
:100340000022F6E710B513460A4604461946FFF7A1
:10035000F0FF204610BD202A04DB203A00FA02F10B
:10036000002070479140C2F1200320FA03F31943A3
:1003700090407047202A04DB203A21FA02F0002145
:10038000704721FA02F3D040C2F1200291400843A5
:1003900019467047064C074D06E0E06840F001033F
:1003A00094E8070098471034AC42F6D3FFF778FF83
:1003B00010A1000830A100087047000000000000F4
:1003C00040F2FC2040F2D931C2F20040C0F60001F8
:1003D000806881607047000080B584B040F2E420FE
:1003E000C2F20040816800690A684068B2F810C033
:1003F000B2F904E01389B2F90010B2F90C200CEB49
:100400004C0C5B42CDE900E20FFA8CF24FF0010C8C
:100410001BB2CDF808C000F003F804B080BD0000A6
:100420002DE9F04383B000F5A16517460E4604465A
:1004300002AA012128469846DDF82C9008F0DCFC41
:10044000281D01AA012108F0D7FC05F108006A4621
:10045000012108F0D1FC9DED020A9DED001A30EE5D
:10046000010A95ED001A31EE011A9DED012A30EED8
:10047000420A95ED022A21EE021A80EE010A09F0E5
:10048000F9FC9DED021A9DED012A95ED003A31EE41
:10049000021A33EE032A9DED003A31EE431A95ED30
:1004A000013A22EE032A81EE021A95ED052A30EE7A
:1004B000020A85ED030AB0EE410A09F0DBFC09EB04
:1004C0008900D4F8E414404285ED040A400091ED1F
:1004D000082A01EE100AF8EEC20A04F57170B8EEAF
:1004E000C11AB0EE410A07F06FF92FB1D4F82C0110
:1004F00000683844C4F8FC0404F2FC40D4F82C1121
:1005000090ED000A91ED001A91ED082AB8EEC00AAC
:10051000F8EEC10A04F10C00B8EEC21A04F19C0115
:1005200008F046FD2EB1D4F86C0200683044C4F8DF
:10053000000504F5A060D4F86C120A9D90ED000A45
:1005400091ED001A91ED082AB8EEC00AF8EEC10A42
:1005500004F5A670B8EEC21A04F5EE7108F028FD95
:10056000B8F1000F05D0D4F8A80300684044C4F8DF
:10057000040504F20450D4F8A81390ED000A91ED9C
:10058000001A91ED082AB8EEC00AF8EEC10A04F587
:100590002270B8EEC21A04F5467108F009FD94ED18
:1005A0000E0A94EDAD2A94ED5E1ABDEEC00ABDEEC2
:1005B000C11A0023BDEEC22A10EE100A11EE101A65
:1005C00012EE102A00F06CF894EDAD0A0021BDEE99
:1005D000C00A0022002310EE100A00F095F840F245
:1005E000E1306843411401EBD070D4F83C11014470
:1005F00040F6C4108142C4F83C1104DCB1F5FA7F26
:1006000003DA4FF4FA70C4F83C0140F65040D4F8D5
:100610003C11C2F200400068416303B0BDE8F083C2
:1006200000F0AAF80A2009F05FF8F9E700000000DE
:10063000FEE700000000000080B582B04FEA102CF9
:100640008DF80100080A8DF8031040F670118DF83E
:100650000200C2F20041100A8DF80400180A8DF859
:1006600005204FF400228DF806004FF4007008605A
:100670000020C1E90100C1E90320C1E90500C1E989
:10068000070040F610306A46C2F200408DF800C004
:100690008DF8073002F084FD02B080BD000000003C
:1006A00080B582B04FEA102C8DF80100080A8DF851
:1006B000031040F670118DF80200C2F20041100ADA
:1006C0008DF80400180A8DF805204FF400228DF8EB
:1006D000060040F2FF1008600020C1E90100C1E9F6
:1006E0000320C1E90500C1E9070040F610306A4661
:1006F000C2F200408DF800C08DF8073002F050FDC6
:1007000002B080BD0000000080B540F22C0C4FEA22
:10071000102EC2F2004C8CF80100080A8CF803106D
:1007200040F67011C2F200418CF80200100A8CF8F9
:1007300004008CF80520180A8CF8060040F2FF200F
:10074000086000224FF400208CF800E0C1E90302A9
:1007500040F610308CF80730C1E90122C1E90522CA
:10076000CA61C2F200400A626246BDE8804002F0FF
:1007700017BD000000000000B0B540F2E42540F2D3
:10078000AC34C2F20045C2F2004408232246A868F5
:1007900001680968090A21700168096861700168C7
:1007A0004968090AA17001684968E17001688968AF
:1007B000090A21710168896861710168C968090ABB
:1007C000A17100684FF48071C068E071686800F042
:1007D000AFFB022008F088FF68684FF4807108239F
:1007E0002246BDE8B04000F0A3BB000000000000BE
:1007F000092A88BF7047B0B581B0013A40F234038E
:10080000C2F2004302EB021203EB82029446D36968
:10081000CB1A536213464CF8280FC2E9071113F89C
:1008200018EFBEF1000F03D101211970D0625060A2
:10083000B2F93000DCF800E0D16A4FF0000CAEEB0A
:100840000101451E00EBD073ACEB6304A142B8BFBD
:100850002944B1EB630FC8BF491B5368009100994D
:10086000146821441160009CB2F93650234453604F
:1008700003FB05F4C2F82CE0694394FBF0F400EEAE
:10088000104A91FBF0F00021B8EEC00A82ED020A96
:1008900000EE100AB8EEC00A82ED050A009B92F83D
:1008A000320003281ED892F8330040B119B2B2F9D1
:1008B0003800884205DAD06B0130D0630BE00021AC
:1008C00010E04042814202F13C0102DA0868013046
:1008D00000E000200860B2F93A00D36B00218342A7
:1008E000C8BF012182F83410CDF800C001B0BDE8C6
:1008F000B04070470000000040F69820C2F200406F
:1009000001F0E2B90000000040F20F42D0F800C050
:10091000C4F20202944510DC6F22C4F20202944534
:1009200020DC3F22C4F20202944536DC1022C4F2DD
:100930000202944554D028224EE040F26F42C4F2A5
:10094000020294451ADC40F23F42C4F2020294458E
:100950002ADC40F21042C4F20202944540D040F238
:10096000284239E09F22C4F20202944525DC70221D
:10097000C4F20202944533D088222DE040F29F4217
:10098000C4F2020294451FDC40F27042C4F202023B
:10099000944525D040F288421EE04022C4F2020273
:1009A00094451DD0582217E040F24042C4F20202A2
:1009B000944515D040F258420EE0A022C4F2020243
:1009C00094450DD0B82207E040F2B842C4F20202CA
:1009D000944505D040F2A042C4F20202944517D1DA
:1009E0000CF0F8024AF6AB23103ACAF6AA23A2FB8F
:1009F000033109A35F2AC1F302115B5C40F2FF31AE
:100A00002CEA0101C36588BF04318165084670473F
:100A10002CF0FF01F9E700BF0006101600061016C3
:100A200070B540F26F44D0F800C0C4F20204D0F8B0
:100A300058E0A44519DC9F25C4F20205AC4531DC21
:100A40005725C4F20205AC4556DC1025C4F2020558
:100A5000AC4500F092802825C4F20205AC4500F0B8
:100A60008C804025C4F2020584E045F22F45C5F68E
:100A70000205AC452BDC40F2B745C4F20205AC459B
:100A800048DC40F27045C4F20205AC4575D040F236
:100A90008845C4F20205AC456FD040F2A045C4F2CF
:100AA000020567E040F22745C4F20205AC4540DC90
:100AB000A025C4F20205AC455FD0B825C4F20205FA
:100AC000AC455AD040F21045C4F2020552E045F25E
:100AD0006B45C5F60205AC453CDC45F23045C5F634
:100AE0000205AC4549D045F24445C5F60205AC4582
:100AF00043D045F258453BE05825C4F20205AC45C9
:100B00003BD07025C4F20205AC4536D08825C4F22E
:100B100002052FE040F2B845C4F20205AC452CD0E6
:100B200045F20845C5F60205AC4526D045F21C4500
:100B30001EE040F22845C4F20205AC451DD040F24B
:100B40004045C4F20205AC4517D040F25845C4F206
:100B500002050FE045F26C45C5F60205AC450CD028
:100B600045F29445C5F60205AC4506D045F28045F0
:100B7000C5F60205AC4540F0D180456EC66E002E2C
:100B8000866E6E601CBFD0E91C566E60A44515DCF5
:100B90009F24C4F20204A4452BDC5724C4F20204AF
:100BA000A4454EDC1024C4F20204A44576D02824C7
:100BB000C4F20204A44571D040246BE045F22F44F6
:100BC000C5F60204A44527DC40F2B744C4F202048F
:100BD000A44542DC40F27044C4F20204A4455DD056
:100BE00040F28844C4F20204A44557D040F2A04425
:100BF00050E040F22744C4F20204A4453CDCA024A7
:100C0000C4F20204A44549D0B824C4F20204A445A5
:100C100044D040F210443DE045F26B44C5F6020476
:100C2000A44553DC45F23044C5F60204A4455FD028
:100C300045F24444C5F60204A44559D045F258444F
:100C400052E05824C4F20204A44527D07024C4F210
:100C50000204A44522D088241CE040F2B844C4F227
:100C60000204A4451AD045F20844C5F60204A4457E
:100C70003ED045F21C4437E040F22844C4F202045E
:100C8000A4450BD040F24044C4F20204A44505D070
:100C900040F25844C4F20204A4453FD18468C06DB8
:100CA00000F01F003F2505FA00F0CEF80800DCF840
:100CB0000000402C20F48020CCF80000CCF8043058
:100CC00023D0CCF80810CCF80C2070BD45F26C4451
:100CD000C5F60204A4450BD045F28044C5F60204D3
:100CE000A44505D045F29444C5F60204A44515D1A7
:100CF000C46D806804F01F040125402805FA04F43F
:100D0000CEF80440CCF8043004D1CCF80820CCF85C
:100D10000C1070BDCCF80810CCF80C2070BD000091
:100D2000704700000000000008F03EFF40F2E02A9B
:100D30004AF25C01C2F2004AC0F6000140F6A8186F
:100D400004394FF0000CC2F200480023CAF800003A
:100D500008EB030731F8066F31F8024C48F803003E
:100D60003A8AB7F812E06FF31F3428336FF31F3657
:100D700002F4704222443A828C783A7D0EF4604E3E
:100D8000C82B04F00F0402F080027644224406F5DA
:100D900080567E8202F170023A75C7E906CCC7E937
:100DA00008CC7860B860F860D2D147F6395040F28C
:100DB000DC2BC0F60000C8F820003920C2F2004B3E
:100DC0004FF010099FED358A01E000BF0A2008F0BE
:100DD0008BFC08F0E9FECAF8000098F8DC00002758
:100DE000002405218BF8001000F0CF0088F8DC000B
:100DF00006E042F01001017528370134C82FE5D014
:100E000008EB0700428AD104F6D5068ADAF80030EA
:100E100058F807106FF31F365D1AB54222D9017DCD
:100E2000CA0603D441F03001017583609BF80010BD
:100E3000027D02F00F0201EB810108EBC101097D87
:100E400001F00F018A4288BF8BF8004098F8DC104F
:100E500041F0300188F8DC10006A0028CCD08047CF
:100E6000CAE700BF6FF31F32C6689E1B037D964220
:100E700003F0CF02BDD3466809EA9303B14242EAC8
:100E800003020275B8D9891B00EE101AB8EE400AA9
:100E900088EE000A80ED060AAEE700BF00007A4443
:100EA0002DE9F0418AB040F6941040F61034C2F2B9
:100EB0000040C2F2004402AD0026046029464660AC
:100EC0002046CDE902664FF00208CDF810800127D8
:100ED0000796CDE9057602F09BF902A94FF0804014
:100EE000CDE9057681E8410120462946079602F0C2
:100EF0008FF90221022200232046009602F0CCF94D
:100F000001210022204602F00FF940214FF000425B
:100F1000204602F0DDF9204602F002FF0AB0BDE8EB
:100F2000F0810000000000004160704700000000F8
:100F300040F67013C2F2004319604FF40021D960EB
:100F40000021C3E90111C3E90411C3E906111962C3
:100F5000194602F025B90000F0B581B014460E46DE
:100F6000CFB2054604F014FE2846314605F0C4FA17
:100F7000B00140EA9700C0B2042807D8DFE800F0CB
:100F800003090C0F1200286834300DE028685C302B
:100F90000AE02868383007E028683C3004E0286818
:100FA000403001E028685830046001B0F0BD000016
:100FB00070B509294FF000064FF0000401D9204612
:100FC00070BD0546481E40F2340100EB0010C2F22D
:100FD000004101EB800444212046FFF7B1F9032DC5
:100FE00084F83250A4F83360E9D8DFE805F0020F46
:100FF00014194FF4005020861320C0F20A00C4F8E0
:1010000036004FF480706087204670BD4FF400506A
:101010002086012008E04FF400502086242003E0C1
:101020004FF4005020863520E086204670BD000039
:10103000EFF3108072B600BFFEE700000000000072
:1010400040F61030C2F2004002F03ABA0000000050
:10105000F0B5D1E900C4D1F808E00D692CB14EEA31
:101060000C04254345F0804C03E045EA8C4444EAF7
:101070000E0C856ED0F88470D1E907466B438D69FC
:1010800044EA0660D1F814E00543CC6807EB83001E
:1010900045EA0E0647F823C046EA04034360CB68DE
:1010A000B3F5803F38BFF0BD4AF2AE0C08300132D4
:1010B0000023C0F6000C00BFD71857F8017CC750BA
:1010C000CF8904331CF80770BB42F5D3F0BD000094
:1010D00010B50B1F13F1030F21D30446101F10F19D
:1010E000030F38BF10BDE06801EBC10102EB420203
:1010F000236800EB8101606801EB82013039A16057
:101100009847012802D1A06800688047A068606005
:1011100040688047A0688068BDE81040004710BD67
:10112000F0B540F2FC2148F21110C2F2004140F249
:10113000A033C0F60000C2F20043086040F20C3059
:1011400000224A60C2F2004040F2200CC1E90220B5
:1011500047F2397147F24172C0F60001196047F653
:10116000E121C0F60002C0F60001C2F2004CC3E962
:10117000012140F2943146F6717EC2F2004146F6FA
:10118000797240F2B93440F2C135C0F6000EC0F6B3
:101190000002C1E900E2C0F60004C0F60005CCE997
:1011A000004540F28834CCF80850C2F2004446F6BC
:1011B00029758A60C0F6000546F6317646F639771D
:1011C000C0F600062560C0F600070262C4E90167A8
:1011D00080E8E040C0E90422C0E906E20A68426211
:1011E0004A6882628A68C2621A6802635A68426305
:1011F0009A6882630A68C2634A6802648A684264C1
:101200000A6882644A68C2648A6802650A6842653C
:101210004A6882658968C165DCF800100166DCF8FF
:1012200004104166DCF808108166F0BD0000000083
:1012300070B52DED088BB7EE009A40F240469FED59
:101240009E8AC2F20046F0EE480AB0EE481AB0EEAE
:10125000490A06F571750621284606F0D9FBB0EE5D
:10126000490AF0EE480AB0EE481A06F25444062144
:10127000204606F0CDFB9FED91AA0221B0EE4A0A6E
:10128000F0EE4A0A284606F0DBFB9FED8DBAF0EE41
:10129000480AB0EE4B0A0421284606F0D1FBB0EE16
:1012A0004A0AF0EE4A0A0221204606F0C9FBB0EED7
:1012B0004B0AF0EE480A0421204606F0C1FB40F23A
:1012C00078304FF47A71C2F20040C6F83C11002128
:1012D0004660002086F8F804C4F2B811C6F8081574
:1012E000C6F80C15C6F810150521C6F81405C6F881
:1012F0001805C6F81C050320FFF75AFEC6F82C0196
:1013000000200621FFF754FEC6F86C0200200721DA
:10131000FFF74EFEC6F8A80300200121FFF748FEA4
:10132000C6F8E40401200921FFF742FEB1EE080AE5
:10133000F0EE480AB0EE491A06F10C04C6F8F404BF
:101340000621204606F064FBB0EE4A0AF0EE4A0A97
:101350000221204606F074FB9FED5ABAF0EE480ACF
:10136000B0EE4B0A0421204606F06AFBB6EE001AE6
:10137000B0EE490AF0EE480A06F19C040621204628
:1013800006F046FBB0EE4A0AF0EE4A0A0221204679
:1013900006F056FBB0EE4B0AF0EE480A0421204658
:1013A00006F04EFBB0EE080AF0EE480AB0EE481A1E
:1013B00006F5A6740621204606F02AFBB0EE4A0A7E
:1013C000F0EE4A0A0221204606F03AFB9FED3EBAB3
:1013D000F0EE480AB0EE4B0A0421204606F030FB3E
:1013E000B0EE490AF0EE480AB0EE491A06F5EE747E
:1013F0000621204606F00CFBB0EE4A0AF0EE4A0A3F
:101400000221204606F01CFBB0EE4B0AF0EE480A23
:101410000421204606F014FBB0EE490AF0EE480A1B
:10142000B0EE481A06F522740621204606F0F0FABE
:10143000B0EE4A0AF0EE4A0A0221204606F000FB0E
:10144000B0EE4B0AF0EE480A0421204606F0F8FA06
:10145000B0EE490AF0EE480AB0EE481A06F54674B6
:101460000621204606F0D4FAB0EE4A0AF0EE4A0A07
:101470000221204606F0E4FAB0EE4B0AF0EE480AEC
:101480000421204606F0DCFA40F6941047F2116180
:10149000C2F20040C0F60001FFF746FD40F65040A2
:1014A000D6F83C21C2F200400021BDEC088BBDE81B
:1014B0007040FFF751BD00BF00000000000048432E
:1014C0000080BB4500A00C4600409C450000000089
:1014D000704700000000000006F0F6FD40F2E42432
:1014E000C2F20044A06006F0DFFDE06006F0E4FD1B
:1014F000206140F6103040F6B031C2F20040C2F236
:101500000041C4E90001FFF70BFEFFF791FE41F235
:10151000D140C0F6000060614FF4FA7008F0E4F8C2
:10152000A0680068017D427DE068FFF7D1FD0220E0
:1015300008F0DAF8F4E700002DE9F041044602F083
:1015400013FD14B3054694F83500022820D140F26B
:101550000F462768C4F2020640F26F48B7426FF0A8
:101560000E00C4F2020817DC6F21C4F202018F42A0
:1015700023DC3F21C4F202018F4239DC1021C4F286
:1015800002018F4258D0282151E00120BDE8F081AE
:1015900080206065012040E247451ADC40F23F416F
:1015A000C4F202018F422ADC40F21041C4F202016F
:1015B0008F4241D040F2284139E09F21C4F202011C
:1015C0008F4225DC7021C4F202018F4234D0882181
:1015D0002DE040F29F41C4F202018F421FDC40F235
:1015E0007041C4F202018F4226D040F288411EE0D1
:1015F0004021C4F202018F421ED0582117E040F270
:101600004041C4F202018F4216D040F258410EE030
:10161000A021C4F202018F420ED0B82107E040F2AF
:10162000B841C4F202018F4206D040F2A041C4F298
:1016300002018F42394607D13946386820F01E0032
:1016400041F8140B6FF080000A68474500EA020079
:10165000086019DC9F20C4F20200874231DC572069
:10166000C4F20200874256DC1020C4F20200874216
:1016700000F091802820C4F20200874200F08B80A5
:101680004020C4F2020084E045F22F40C5F602007B
:1016900087422BDC40F2B740C4F20200874248DCAC
:1016A00040F27040C4F20200874274D040F2884099
:1016B000C4F2020087426ED040F2A040C4F20200A1
:1016C00067E040F22740C4F20200874240DCA020DD
:1016D000C4F2020087425ED0B820C4F20200874202
:1016E00059D040F21040C4F2020052E045F26B4083
:1016F000C5F6020087423CDC45F23040C5F60200E8
:10170000874248D045F24440C5F60200874242D0A5
:1017100045F258403BE05820C4F2020087423AD0DC
:101720007020C4F20200874235D08820C4F2020043
:101730002FE040F2B840C4F2020087422BD045F2BD
:101740000840C5F60200874225D045F21C401EE045
:1017500040F22840C4F2020087421CD040F24040D0
:10176000C4F20200874216D040F25840C4F2020090
:101770000FE045F26C40C5F6020087420BD045F2FF
:101780009440C5F60200874205D045F28040C5F678
:101790000200874204D1206E016821F4807101604B
:1017A000386820F0010038603868C0070BD002F0BC
:1017B000DBFB401B0628F7D320206065032084F85C
:1017C0003500012029E12068B04210DC6F21C4F20D
:1017D000020188421CDC3F21C4F20201884232DC53
:1017E0001021C4F20201884250D028214AE040452D
:1017F0001ADC40F23F41C4F2020188422ADC40F286
:101800001041C4F20201884240D040F2284139E040
:101810009F21C4F20201884225DC7021C4F202013A
:10182000884233D088212DE040F29F41C4F202016A
:1018300088421FDC40F27041C4F20201884225D088
:1018400040F288411EE04021C4F2020188421DD0CE
:10185000582117E040F24041C4F20201884215D0FD
:1018600040F258410EE0A021C4F2020188420DD09E
:10187000B82107E040F2B841C4F20201884205D025
:1018800040F2A041C4F20201884259D1D4E91612B3
:1018900002F01F023F2303FA02F28A60404559DC3E
:1018A0009F21C4F20201884214DC5721C4F20201D4
:1018B000884226DC1021C4F20201884200F09D809B
:1018C0002821C4F20201884200F097804021C4F22E
:1018D000020190E040F22741C4F2020188421EDC7E
:1018E000A021C4F20201884200F08780B821C4F22E
:1018F0000201884200F0818040F21041C4F20201EE
:1019000079E05821C4F20201884276D07021C4F2F5
:101910000201884271D08821C4F202016BE040F2DA
:101920002841C4F20201884267D040F24041C4F22B
:101930000201884261D040F25841C4F202015AE0EB
:10194000D4E9161202F01F02012303FA02F24A60E0
:101950004045A5DD45F22F41C5F60201884216DC5F
:1019600040F2B741C4F20201884225DC40F27041E6
:10197000C4F20201884240D040F28841C4F2020120
:1019800088423AD040F2A041C4F2020133E045F26D
:101990006B41C5F6020188421DDC45F23041C5F6B7
:1019A0000201884229D045F24441C5F6020188422D
:1019B00023D045F258411CE040F2B841C4F2020184
:1019C00088421AD045F20841C5F60201884214D077
:1019D00045F21C410DE045F26C41C5F6020188421A
:1019E0000BD045F29441C5F60201884205D045F27C
:1019F0008041C5F6020188420BD1616EA26EE06E95
:101A00004A6030B1016821F480710160D4E91C01A1
:101A10004160012084F835000020002184F8341052
:101A2000BDE8F0810000000080B5D8B190F8351015
:101A3000022919D140F20F420168C4F20202914218
:101A400016DC6F23C4F20203994226DC3F23C4F262
:101A5000020399423CDC1023C4F2020399425AD09B
:101A6000282354E0012080BD80214165012080BDF4
:101A700040F26F43C4F2020399421ADC40F23F4342
:101A8000C4F2020399422ADC40F21043C4F202037A
:101A9000994240D040F2284339E09F23C4F2020328
:101AA000994225DC7023C4F20203994233D0882383
:101AB0002DE040F29F43C4F2020399421FDC40F242
:101AC0007043C4F20203994225D040F288431EE0DD
:101AD0004023C4F2020399421DD0582317E040F27C
:101AE0004043C4F20203994215D040F258430EE03D
:101AF000A023C4F2020399420DD0B82307E040F2BC
:101B0000B843C4F20203994205D040F2A043C4F2A4
:101B1000020399426ED191424FF0040280F83520C1
:101B200010DC6F20C4F20200814220DC3F20C4F2AE
:101B30000200814236DC1020C4F20200814253D000
:101B400028204EE040F26F40C4F2020081421ADCCD
:101B500040F23F40C4F2020081422ADC40F21040D1
:101B6000C4F2020081423FD040F2284039E09F2079
:101B7000C4F20200814225DC7020C4F202008142DE
:101B800032D088202DE040F29F40C4F20200814212
:101B90001FDC40F27040C4F20200814224D040F2C7
:101BA00088401EE04020C4F2020081421CD0582030
:101BB00017E040F24040C4F20200814214D040F2EB
:101BC00058400EE0A020C4F2020081420CD0B820A0
:101BD00007E040F2B840C4F20200814204D040F273
:101BE000A040C4F202008142086820F001000860B1
:101BF000002080BD0A6822F00E020A6045F25742BA
:101C0000C5F6020291420A6822F001020A600EDC67
:101C100045F22F42C5F60202914217DC45F2084216
:101C2000C5F60202914226D045F21C421FE045F261
:101C30007F42C5F60202914211DC45F25842C5F6D8
:101C40000202914217D045F26C4210E045F2304258
:101C5000C5F6020291420ED045F2444207E045F239
:101C60009442C5F60202914205D045F28042C5F683
:101C7000020291421AD1D0E9181CD0E916E30A6891
:101C800022F480720A6003F01F01012202FA01F1BE
:101C9000CEF80410816ECCF80410C16E31B10A6820
:101CA00022F480720A60D0E91C124A60012180F897
:101CB0003510026D002180F834100AB190470021E0
:101CC000084680BD000000002DE9F04381B00021EE
:101CD000009140F204010446C2F2004148F2B512FC
:101CE000C1F64E32A56D096840F26F490068C4F232
:101CF0000209A1FB021848452E682A6815DC9F21BD
:101D0000C4F2020188422BDC5721C4F2020188424E
:101D10004FDC1021C4F20201884278D02821C4F29D
:101D20000201884273D040216CE045F22F41C5F694
:101D30000201884227DC40F2B741C4F20201884226
:101D400043DC40F27041C4F2020188425FD040F2AD
:101D50008841C4F20201884259D040F2A04151E0CA
:101D600040F22741C4F2020188423DDCA021C4F2C6
:101D7000020188424BD0B821C4F20201884246D009
:101D800040F210413EE045F26B41C5F60201884247
:101D900075DC45F23041C5F60201884200F08280D0
:101DA00045F24441C5F6020188427BD045F25841D4
:101DB00073E05821C4F20201884228D07021C4F295
:101DC0000201884223D088211CE040F2B841C4F2CD
:101DD000020188421BD045F20841C5F60201884243
:101DE00060D045F21C4158E040F22841C4F20201A3
:101DF00088420CD040F24041C4F20201884206D031
:101E000040F25841C4F20201884240F05884E16D2A
:101E1000082201F01F018A40324200F0168140F290
:101E20000F43C4F2020398424FF0040313DC6F2700
:101E3000C4F20207B84200F391803F27C4F20207C0
:101E4000B84200F3D2801027C4F20207B84200F073
:101E5000F0802827E8E0484500F38C8040F23F47B7
:101E6000C4F20207B84200F3C78040F21047C4F240
:101E70000207B84200F0DD8040F22847D4E045F286
:101E80006C41C5F6020188420CD045F28041C5F68E
:101E90000201884206D045F29441C5F6020188420B
:101EA00040F00D840368E16D01F01F01042707FA7B
:101EB00001F6164218BF13F004072CD1022707FAC7
:101EC00001F6164218BF13F002076AD1CA40120782
:101ED00040F1F58313F0080200F0F18340F20F4265
:101EE000C4F2020290426FF01C0200F3FF826F23E3
:101EF000C4F20203984200F331833F23C4F2020389
:101F0000984200F366831023C4F20203984200F063
:101F1000988328238FE319046E603AD4990600F160
:101F2000CA8340F20F41C4F2020188426FF00801F7
:101F300000F301836F22C4F20202904200F32D836A
:101F40003F22C4F20202904200F38D831022C4F2B9
:101F50000202904200F0AC832822A3E39F27C4F240
:101F60000207B84251DC7027C4F20207B84260D0C1
:101F7000882759E040F29F47C4F20207B8424BDC81
:101F800040F27047C4F20207B84252D040F288478C
:101F90004AE0D80300F1A682A16C002940F09D829E
:101FA0008DE319046E6000F1B482990600F1D383C9
:101FB00040F20F41C4F2020188426FF0140100F3B5
:101FC0000F836F22C4F20202904200F37B833F2210
:101FD000C4F20202904200F390831022C4F2020283
:101FE000904200F0AF832822A6E34027C4F2020704
:101FF000B8421ED0582717E040F24047C4F202070B
:10200000B84216D040F258470EE0A027C4F20207AB
:10201000B8420ED0B82707E040F2A047C4F202074A
:10202000B84206D040F2B847C4F20207B84218BF1F
:10203000082307681F4208D0036823F004030360E5
:10204000AA60626D42F00102626501228A4032425A
:102050006FD040F20F43C4F20203984210DC6F23AA
:10206000C4F2020398421CDC3F23C4F202039842EC
:1020700032DC1023C4F20203984251D028234AE0F4
:1020800048451ADC40F23F43C4F2020398422ADC7E
:1020900040F21043C4F20203984241D040F2284378
:1020A00039E09F23C4F20203984225DC7023C4F276
:1020B0000203984234D088232DE040F29F43C4F2BB
:1020C000020398421FDC40F27043C4F202039842BC
:1020D00026D040F288431EE04023C4F20203984217
:1020E0001ED0582317E040F24043C4F20203984246
:1020F00016D040F258430EE0A023C4F202039842E7
:102100000ED0B82307E040F2B843C4F2020398426D
:1021100006D040F2A043C4F20203984240F0FF818F
:10212000436903F0800323B1AA60626D42F00202AA
:10213000626504228A4032426FD040F20F43C4F2FB
:102140000203984210DC6F23C4F2020398421CDCA5
:102150003F23C4F20203984232DC1023C4F202038C
:10216000984251D028234AE048451ADC40F23F43C8
:10217000C4F2020398422ADC40F21043C4F2020384
:10218000984241D040F2284339E09F23C4F2020331
:10219000984225DC7023C4F20203984234D088238D
:1021A0002DE040F29F43C4F2020398421FDC40F24C
:1021B0007043C4F20203984226D040F288431EE0E6
:1021C0004023C4F2020398421ED0582317E040F285
:1021D0004043C4F20203984216D040F258430EE046
:1021E000A023C4F2020398420ED0B82307E040F2C5
:1021F000B843C4F20203984206D040F2A043C4F2AE
:102200000203984240F09181036803F0020323B176
:10221000AA60626D42F004026265102202FA01F1C6
:1022200031427DD040F20F42C4F2020290424FF0A0
:10223000080210DC6F23C4F2020398421CDC3F2327
:10224000C4F20203984232DC1023C4F20203984223
:1022500051D028234AE048451ADC40F23F43C4F2FB
:10226000020398422ADC40F21043C4F2020398426F
:1022700041D040F2284339E09F23C4F20203984240
:1022800025DC7023C4F20203984234D088232DE069
:1022900040F29F43C4F2020398421FDC40F27043B5
:1022A000C4F20203984226D040F288431EE0402345
:1022B000C4F2020398421ED0582317E040F2404374
:1022C000C4F20203984216D040F258430EE0A02315
:1022D000C4F2020398420ED0B82307E040F2A043B4
:1022E000C4F20203984206D040F2B843C4F202039B
:1022F000984218BF04220368134211D0A9600168F4
:102300004903016806D4C90506D4016821F0080113
:10231000016001E0080352D4216C09B120468847CE
:10232000E06D00F01F01202000FA01F2324200F0BF
:10233000AB8040F20F432068C4F2020398424FF092
:10234000100310DC6F27C4F20207B8421CDC3F27E1
:10235000C4F20207B84236DC1027C4F20207B842C2
:1023600055D028274EE048451ADC40F23F47C4F2DA
:102370000207B8422EDC40F21047C4F20207B8420E
:1023800045D040F228473DE09F27C4F20207B842FB
:1023900029DC7027C4F20207B84238D0882731E020
:1023A00040F29F47C4F20207B84223DC40F2704774
:1023B000C4F20207B8422AD040F2884722E0A16C5A
:1023C0000029ABD1ACE74027C4F20207B8421ED0C7
:1023D000582717E040F24047C4F20207B84216D02F
:1023E00040F258470EE0A027C4F20207B8420ED0D0
:1023F000B82707E040F2A047C4F20207B84206D06F
:1024000040F2B847C4F20207B84218BF0223076877
:102410001F4239D0AA6094F83520042A02681BD1E3
:1024200022F016020260426922F080024261226CB0
:102430000AB9A26C1AB1026822F0080202603F20B9
:102440008840A860012084F83500216D0020002913
:1024500084F8340041D132E1510301680CD4C9053C
:102460000ED4016821F010010160012084F83500CC
:10247000002084F8340003E0080301D4616C00E01C
:10248000E16B09B120468847606D002800F0178194
:10249000606DC0071DD0042084F8350020684FEA25
:1024A0009821026822F00102026000BF009A013206
:1024B00000928A4202D80268D207F7D10068C007AA
:1024C0004FF0030008BF012084F83500002084F895
:1024D0003400E16C002900F0F280204601B0BDE834
:1024E000F0430847216C0029F7D1E8E0484541DC7A
:1024F00040F23F43C4F20203984200F3848040F26A
:102500001043C4F20203984200F09B8040F228433B
:1025100091E0D8033DD4616C0029DED1CFE003689F
:102520000023002B7FF400AE03E603680023002B9A
:102530007FF46EAE71E648453CDC40F23F42C4F2A7
:102540000202904200F3968040F21042C4F202026E
:10255000904200F0AD8040F22842A3E09F23C4F2F5
:102560000203984258DC7023C4F20203984268D0F8
:10257000882360E040F29F43C4F20203984252DC99
:1025800040F27043C4F2020398425AD040F28843AA
:1025900051E0E16B0029A0D191E09F22C4F2020238
:1025A000904270DC7022C4F20202904200F08080FF
:1025B000882277E040F29F42C4F20202904269DC36
:1025C00040F27042C4F20202904271D040F288425E
:1025D00068E04023C4F20203984232D058232AE034
:1025E00048457BDC40F23F42C4F20202904200F3D5
:1025F0008B8040F21042C4F20202904200F0A280AE
:1026000040F2284298E040F24043C4F2020398426C
:1026100017D040F258430EE0A023C4F202039842C0
:102620000FD0B82307E040F2A043C4F2020398425F
:1026300007D040F2B843C4F20203984218BF6FF0CB
:102640000E0203681A400260012000FA01F169607D
:10265000606584F835000020E16C84F834000029BE
:102660007FF43BAF2BE04022C4F2020290421FD025
:10267000582217E040F24042C4F20202904217D0C2
:1026800040F258420EE0A022C4F2020290420FD063
:10269000B82207E040F2A042C4F20202904207D002
:1026A00040F2B842C4F20202904218BF6FF0040137
:1026B000026811400160216C00297FF40EAF01B067
:1026C000BDE8F0839F22C4F20202904225DC702212
:1026D000C4F20202904235D088222DE040F29F429F
:1026E000C4F2020290421FDC40F27042C4F20202C5
:1026F000904227D040F288421EE04022C4F20202FB
:1027000090421FD0582217E040F24042C4F2020229
:10271000904217D040F258420EE0A022C4F20202CA
:1027200090420FD0B82207E040F2A042C4F2020269
:10273000904207D040F2B842C4F20202904218BF61
:102740006FF00A01026811400160012084F8350031
:10275000002084F83400E16B00297FF4BEAEAEE7C0
:102760002DE9F041044601F0FFFBECB140F26F4867
:1027700005462068C4F20208404518DC9F21C4F2D7
:10278000020188422EDC5721C4F20201884254DC47
:102790001021C4F2020188427DD02821C4F2020136
:1027A000884278D0402171E00120BDE8F08145F2F7
:1027B0002F41C5F60201884227DC40F2B741C4F23E
:1027C0000201884245DC40F27041C4F202018842B5
:1027D00061D040F28841C4F2020188425BD040F2ED
:1027E000A04153E040F22741C4F2020188423FDC9D
:1027F000A021C4F2020188424DD0B821C4F20201E6
:10280000884248D040F2104140E045F26B41C5F6A5
:102810000201884200F3928045F23041C5F6020180
:10282000884200F09D8045F24441C5F6020188428D
:1028300000F0968045F258418EE05821C4F2020122
:10284000884228D07021C4F20201884223D0882116
:102850001CE040F2B841C4F2020188421BD045F2AC
:102860000841C5F6020188427AD045F21C4173E066
:1028700040F22841C4F2020188420CD040F24041AB
:10288000C4F20201884206D040F25841C4F202016B
:10289000884240F0C580022184F83510002184F878
:1028A0003410016821F00101016000BF2068016857
:1028B000C9070CD001F058FB401B0628F6D3202096
:1028C0006065032084F835000120BDE8F08148F2FE
:1028D0003F0204F108060168CFF6106211406569F5
:1028E0004CCE1143A2691943E3693143266A0D4373
:1028F000616A2B43042943EA060343EA020303D136
:10290000D4E90B652E43334341F20006C5F6004679
:102910003668B6F1005F6CD36568A5F12906202EF4
:1029200005D23F27CCF2C037F740FF075CD1A5F1B5
:102930004F060025042E38BF012556E045F26C41B4
:10294000C5F6020188420BD045F28041C5F602016E
:10295000884205D045F29441C5F6020188425FD114
:1029600004F1080E022184F83510002184F8341097
:102970000168A3699EE80450A2F18005E769B5FAF1
:1029800085F566696D09402A4FEA853543EA0702F5
:102990006FF3101142EA060208BF102541EADC017C
:1029A00042EA0E022943236A41EAD2014AF6F8328A
:1029B000CAF2FD724CF6CD470244CCF6CC4741EA50
:1029C0001311A2FB072301606FF0030000EA9300DC
:1029D000E0652046FDF798FFE16D012201F01F013F
:1029E00002FA01F1416045E00125002D18BF43F4D2
:1029F000801303600429436923F0070341EA0301BC
:102A00002DD1D4E90A5341EA050143B3B2F5005F81
:102A100008D09AB9022D16D0012D09D09DB115E02C
:102A200040204DE7032D11D8DFE805F00A0D0A021A
:102A3000A3F1C072B2FA82F2520908E0032D01D26A
:102A4000012204E002D1C3F3006200E0002232B1AF
:102A500040206065012084F83500BDE8F0814161C7
:102A60002046FDF751FFE16D3F2201F01F0102FA00
:102A700001F181602068404519DC9F21C4F2020108
:102A8000884231DC5721C4F20201884256DC102111
:102A9000C4F20201884200F092802821C4F20201AF
:102AA000884200F08C804021C4F2020184E045F2AB
:102AB0002F41C5F6020188422BDC40F2B741C4F237
:102AC0000201884248DC40F27041C4F202018842AF
:102AD00075D040F28841C4F2020188426FD040F2C2
:102AE000A041C4F2020167E040F22741C4F20201B2
:102AF000884240DCA021C4F2020188425FD0B821A4
:102B0000C4F2020188425AD040F21041C4F20201DC
:102B100052E045F26B41C5F6020188423CDC45F2C9
:102B20003041C5F60201884249D045F24441C5F61C
:102B30000201884243D045F258413BE05821C4F29B
:102B4000020188423BD07021C4F20201884236D093
:102B50008821C4F202012FE040F2B841C4F2020120
:102B600088422CD045F20841C5F60201884226D0A1
:102B700045F21C411EE040F22841C4F202018842A5
:102B80001DD040F24041C4F20201884217D040F209
:102B90005841C4F202010FE045F26C41C5F6020152
:102BA00088420CD045F29441C5F60201884206D015
:102BB00045F28041C5F60201884240F0D08045F2DE
:102BC000574C45F6FC01C5F6020CC5F602016045FE
:102BD0000EDC45F22F43C5F60203984217DC45F29E
:102BE0000843C5F60203984226D045F21C431FE075
:102BF00045F27F43C5F60203984211DC45F2584383
:102C0000C5F60203984217D045F26C4310E045F236
:102C10003043C5F6020398420ED045F2444307E024
:102C200045F29443C5F60203984205D045F280432D
:102C3000C5F60203984250D100F0FC034CF6CD4794
:102C4000083BCCF6CC47A3FB0737A1F1FC05A1F16B
:102C50007C063B0905EB83022266A26803F01F0392
:102C60000127802A666607FA03F2A26601D10022D4
:102C700062606268A56ED4E91876D3B2013A072A79
:102C80003B60756015D85E1E072E62D8604501F165
:102C9000440213DC45F22F47C5F60207B8423CDC7C
:102CA00045F20847C5F60207B8424BD045F21C472B
:102CB00044E000206067C4E91B0050E045F27F4714
:102CC000C5F60207B84231DC45F25847C5F602079F
:102CD000B84237D045F26C4730E000F0F8034AF6CE
:102CE000AB27103BCAF6AA27A3FB073740F20F43D6
:102CF000C4F2020308253E09984203F1AA023346B2
:102D000088BF05EB171340F600059042C4F2020598
:102D100028BF334605F180069CE745F23047C5F6EB
:102D20000207B8420ED045F2444707E045F280471B
:102D3000C5F60207B84205D045F29447C5F602072A
:102D4000B84213D101EB8300E06601202267B04056
:102D5000606704F16C02002307CA03604A60002028
:102D60006065012184F83510BDE8F08140F600006F
:102D7000C4F2020000F1FC0100F5A072E2E70000DD
:102D8000B0B5E0B3054690F83400012801D1022027
:102D9000B0BD012085F8340095F83500012828D110
:102DA000022085F83500002068652868046824F052
:102DB000010404602846FDF733FE40F20F42286804
:102DC000C4F2020240F26F419042C4F2020118DCE8
:102DD0006F23C4F20203984224DC3F23C4F20203AF
:102DE00098423ADC1023C4F20203984259D02823B7
:102DF00052E04FF400606865002085F8340001203F
:102E0000B0BD88421ADC40F23F43C4F2020398424C
:102E10002ADC40F21043C4F20203984241D040F24F
:102E2000284339E09F23C4F20203984225DC702333
:102E3000C4F20203984234D088232DE040F29F432D
:102E4000C4F2020398421FDC40F27043C4F2020352
:102E5000984226D040F288431EE04023C4F2020389
:102E600098421ED0582317E040F24043C4F20203B8
:102E7000984216D040F258430EE0A023C4F2020359
:102E800098420ED0B82307E040F2B843C4F20203E0
:102E9000984206D040F2A043C4F20203984240F0A8
:102EA000238103680B2464F3440303602B6C1BB180
:102EB0000823046823430360884219DC9F23C4F27B
:102EC0000203984231DC5723C4F20203984256DCD5
:102ED0001023C4F20203984200F091802823C4F228
:102EE0000203984200F08B804023C4F2020384E086
:102EF00045F22F43C5F6020398422BDC40F2B7435C
:102F0000C4F20203984248DC40F27043C4F2020368
:102F1000984274D040F28843C4F2020398426ED0C3
:102F200040F2A043C4F2020367E040F22743C4F238
:102F30000203984240DCA023C4F2020398425ED010
:102F4000B823C4F20203984259D040F21043C4F2AD
:102F5000020352E045F26B43C5F6020398423CDCA3
:102F600045F23043C5F60203984248D045F2444347
:102F7000C5F60203984242D045F258433BE058233D
:102F8000C4F2020398423AD07023C4F2020398427A
:102F900035D08823C4F202032FE040F2B843C4F2D4
:102FA000020398422BD045F20843C5F6020398422B
:102FB00025D045F21C431EE040F22843C4F2020330
:102FC00098421CD040F24043C4F20203984216D00B
:102FD00040F25843C4F202030FE045F26C43C5F6D9
:102FE000020398420BD045F29443C5F6020398427F
:102FF00005D045F28043C5F6020398426ED12B6E90
:103000001C68E40303D51C6844F480741C60EB6EF8
:103010001BB11D6845F480751D60904210DC6F2166
:10302000C4F2020188421CDC3F21C4F20201884242
:1030300032DC1021C4F2020188424FD028214AE03C
:1030400088421ADC40F23F41C4F2020188422ADC85
:1030500040F21041C4F2020188423FD040F22841C0
:1030600039E09F21C4F20201884225DC7021C4F2BC
:103070000201884232D088212DE040F29F41C4F203
:10308000020188421FDC40F27041C4F20201884212
:1030900024D040F288411EE04021C4F2020188425F
:1030A0001CD0582117E040F24041C4F2020188428E
:1030B00014D040F258410EE0A021C4F2020188422F
:1030C0000CD0B82107E040F2B841C4F202018842B6
:1030D00004D040F2A041C4F202018842016841F0EC
:1030E000010101600020B0BD0368052464F34303BF
:1030F00003602B6C002B3FF4DFAE0423D9E6000005
:10310000B0B5044600F030FF40F210010546C2F2AF
:103110000041621C097818BF0C4400BF00F024FF76
:10312000401BA042FAD3B0BD90F89830013B012B70
:103130000BD80068836D0B420CD0836D0B408B4223
:103140000CD1C36D43F0020309E000F19C010120A2
:10315000022221E0C36D43F0010300E00323C365B5
:103160008B0504D5D0F8E0301343C0F8E0304B05B0
:1031700004D5D0F8E4301A43C0F8E4204FF6FF72CB
:10318000436DC3F6CF720A401A4342658A0F4AF66E
:1031900014010020C4F200010B681A430A60704752
:1031A000B0B5044690F8980002281AD12068D0F8EB
:1031B000C03013F07C5F19D0D0F8C4309B021AD411
:1031C000D0F8C400C0F3044520462B46FDF740FF6D
:1031D00020680121A940C0F8D0100020C4F8941044
:1031E000B0BDD4F89C0040F0080008E0D4F89C0082
:1031F00040F0200003E0D4F89C0040F40070C4F8D4
:103200009C000120B0BD00007047000000000000DD
:1032100080B590F89820013A012A0AD80A68002A55
:10322000CA680ED00B69072A43EA427E16D18B6921
:1032300019E0D0F89C1041F00201C0F89C10012068
:1032400080BD072A18D10A69D1F81CC012048B6905
:1032500042EA0C221A4342F0605217E0D1F808C04B
:103260004B6943EA8C73006F496800EBC10240F878
:1032700031E00020536080BD8B68D1F810C09B07FF
:1032800043EAC2624B6942EA0C421A434968C06E83
:1032900040F82120002080BD90F898C0BCF1010FBB
:1032A0000DD19200006842EA0111DDF800C041EA48
:1032B000430141EA0C01C0F8801000207047D0F8AB
:1032C0009C1041F00401C0F89C10012070470000E0
:1032D00090F89830012B0BD14029006810D1D0F81C
:1032E000A01021F000411143C0F8A0100020704749
:1032F000D0F89C1041F00401C0F89C1001207047E8
:10330000D0F8B01021F000411143C0F8B0100020F7
:10331000704700000000000070470000000000003F
:10332000704700000000000070B590F89850022D22
:103330001CD140291FD10568D5F8A04014F4FE0F18
:1033400000F08F80D5F8A440640600F09680D5F890
:10335000A440E40148BFD5F8A040D5F8A45000F13E
:103360007404C5F3052E456CF44629E0D0F89C1092
:1033700041F0080185E0412918D10568D5F8B04031
:1033800014F4FE0F6DD0D5F8B440640675D0D5F8AE
:10339000B440E40148BFD5F8B040D5F8B45000F1CE
:1033A0007804C5F3052EC56CF44609E0056D8D4221
:1033B00057D900F17C04D0F854E04FF0000C0D46D2
:1033C00005FB0EF6246854F8265015F0804555602C
:1033D00054F826E02EF0604508BFCEF38A4504EB92
:1033E000860E156054F8265005F00055956054F887
:1033F000264004F000441461BEF80440D461DEF8B5
:10340000044004F47024D460DEF80450B4F5803F26
:1034100005F480155561DEF8045005F4001595613A
:103420009EF8075005F07F051562DEF804504FEA5C
:10343000D57454620ED30EF108054AF2AE0E002484
:10344000C0F6000E2E5D1E550134D6891EF80660AA
:10345000B442F7D3402909D10068C0F8A8C00020C1
:1034600070BDD0F89C1041F020010AE041290CD138
:103470000068C0F8B8C0002070BDD0F89C1041F4BE
:103480008071C0F89C10012070BD1F2907D800680A
:10349000012202FA01F1C0F89810002070BD006806
:1034A00001F01F01012202FA01F1C0F89C10002076
:1034B00070BD000000000000704700000000000028
:1034C0002DE9F04F89B004464AF61000C4F200001E
:1034D00001684AF61400C4F200000268206802EA9B
:1034E0000108056DD0F85490036D0293436D01936C
:1034F000036D0493436D0393036D0893436D07932A
:10350000036D0693436D0593D0F854A0D0F850B0E6
:103510005FEACA530ED51BF480710BD04FF4807153
:1035200001654AF610010020C4F20001086020463F
:10353000FFF7C2FF05EA09064AF610095FEA4A509A
:10354000C4F200094FEA887711D51BF480600ED0D1
:103550002068D0F8DC10D0F8E42011404FF48062ED
:1035600002650020C9F80000204600F00DFCDDE9EE
:10357000011000EA010506F4704657B120680021E9
:10358000016508F00300C9F8000020463946FFF73E
:103590003BFEDDE9031000EA010705F00F0546B127
:1035A0002068314606650020C9F80000204600F07A
:1035B000F3FB07F0F00645B12068294605650020B9
:1035C000C9F80000204600F093FB46B12068314660
:1035D00006650020C9F80000204600F09DFB5FEA68
:1035E0000A500CD51BF4006009D020684FF400612C
:1035F00001650020C9F80000204600F0D1FB5FEA19
:103600008A5011D51BF400700ED02068D0F8D81065
:10361000D0F8E02011404FF4007202650020C9F894
:103620000000204600F0B4FB5FEA0A300CD51BF422
:10363000002009D020684FF4002101650020C9F85E
:103640000000204600F050FB5FEACA300CD51BF4A6
:10365000803009D020684FF4803101650020C9F81E
:103660000000204600F08CFB5FEA4A30DDE90510DF
:1036700000EA01050CD51BF4802009D020684FF426
:10368000802101650020C9F80000204600F074FB8D
:103690005FEA8A30DDE9071000EA010005F0607199
:1036A0000FD51BF400320CD022684FF400331365A1
:1036B0000022C9F80020D4F89C2042F08002C4F80F
:1036C0009C2000F0715539B1206801650020C9F8CF
:1036D00000002046FFF724FE4DB12068056500205C
:1036E000C9F80000D4F89C002843C4F89C00206866
:1036F000A9F50161884209D0D4F89C00002867D060
:10370000204609B0BDE8F04FFFF706BE606881684B
:103710008907F1D0016A426A036A476A114003EAE5
:10372000070202F03005D0F82080D0F82490D0F8BD
:1037300020B0D0F824A0026A089211F00F01426A6A
:103740000792466A026A069203D00162204600F0A0
:1037500007FB08EA09072DB1606829460562204683
:1037600000F006FB70060BEA0A0607F4C0750ED5DA
:10377000069810F040000AD060684023C16BC26B0D
:10378000090C02F03F020362204600F0EDFADDE989
:10379000071000EA010706F4FC462DB160682946CF
:1037A0000562204600F0D8FA07F4F02036B16168CF
:1037B0000E62D4F89C103143C4F89C1000289BD0B2
:1037C00061680862D4F89C100843C4F89C0093E731
:1037D00009B0BDE8F08F00002DE9F04F85B000285A
:1037E00040D04AF200080446C4F200080068404590
:1037F00002D108F58070606094F8980028B9002024
:1038000084F89900204600F0CBF92068816921F006
:103810001001816100F0A8FB054600BF20688169A6
:10382000090705D500F0A0FB401B0B28F6D310E0DC
:10383000816941F00101816100F096FB054600BFFE
:1038400020688169C90711D100F08EFB401B0B284D
:10385000F6D30120D4F89C100843C4F89C00032040
:1038600084F89800012005B0BDE8F08F816941F02F
:1038700002018161217C826922F04002012918BF86
:1038800040328261617C826922F48042012908BF52
:1038900002F580428261A17C826922F48052012972
:1038A00018BF02F580528261816921F44073D4E926
:1038B00002120B438361836923F0A40383610369CC
:1038C00023F0100303619AB1012A0DD0022A09D016
:1038D0008369032A43F080038361036943F0100284
:1038E000026105D1202200E0042283691A4382612B
:1038F000D4E90572E369561E6FF0FF02256A02EBF8
:103900000323B1F5407F43EA4663A5F1010646EA89
:10391000030640F20003CFF6FF7303EB074746EAC6
:103920000701C16110D1D4E90B65D4E90917013F42
:1039300002EB06226FF00F063A4306EB05173A43F7
:1039400003EB01411143C160236E2BB1616ED0F8CE
:10395000C0201143C0F8C010E16DCDE90313D94276
:103960004AF21001C0F6000109D0D0F8C820A36EB9
:1039700022F0070251F823301A43C0F8C820D4F8C7
:1039800040A0BAF1000F09D0D0F8BC20636C22F03F
:10399000070251F823301A43C0F8BC20A76C57B176
:1039A000D0F8BC20E36C22F0700251F8233042EAD8
:1039B0000312C0F8BC20D4F850C0BCF1000F0AD0EC
:1039C000D0F8BC20636D22F4E06251F8231042EA83
:1039D0000121C0F8BC10404504D161688A6822F01A
:1039E00003028A600021C4F89410C4F89C100121DD
:1039F00084F898104FF6FC72D0F88410D4F83C90FC
:103A000021EA0203656CD4E90D120292019543EAA2
:103A10008103C0F88430D0F8843023F47F0343EA74
:103A20000243C0F884305318D0F888606FF38F06D3
:103A300046EA8306C0F88860D0F8886003EB490343
:103A400026F4FE0646EA0946C0F88860D0F8A06071
:103A50006FF38F0646EA8306C0F8A060D0F8A06036
:103A600005FB0A3326F4FE0646EA0A46C0F8A060C3
:103A7000D0F8B0606FF38F0646EA8306C0F8B060F6
:103A8000D0F8B06026F4FE0646EA0746C0F8B060FB
:103A9000E66CD0F8AC506FF38F0506FB07337E431E
:103AA00045EA8305C0F8AC50D4F8548008FB0C35C7
:103AB000D0F8F0306FF38F0308FB0CFC43EA85036A
:103AC000C0F8F030D0F8F0E0A36D2EF47C1242EA9A
:103AD0000342C0F8F02005EB4302D0F8C0506FF36A
:103AE0008F0545EA8202C0F8C020D0F8C020DDF87A
:103AF0000CB022F47C1242EA0B42C0F8C020019ABA
:103B0000D0F8C05025F07C5502FB0AFE4AF20002B4
:103B1000C4F20002DDF810A002EB8101029A01F567
:103B2000406145EA0A6501EB8207C0F8C05007EB27
:103B3000C902A56E02EB8E00626700EB86060BFBE6
:103B400005F2276706EB8C07C4E91E060AFB05F0A1
:103B500007EBC30303EB8202C4F884304DF2FC335D
:103B6000E16602EB8000C4F200039842C4F8807062
:103B7000C4F88820C4F8900001D920206AE6814268
:103B800009D2002041F8040BD4F890209142F9D3D7
:103B900005B0BDE8F08F002005B0BDE8F08F000053
:103BA000B0B5B8B0044602A8C0210025CDE936550D
:103BB000CDE934553395FCF7C3FB4AF20041206848
:103BC000C4F2000188424ED04AF20001C4F2000162
:103BD000884240F08780002003904FF4004002901C
:103BE0004FF080501E9002A800F022FC08B1FDF7B3
:103BF0001FFA40F2843144F2E040C2F20041C5F6BF
:103C000002000A68002A02F101020A6008D1C168B4
:103C100041F48071C160C16801F480710191019922
:103C2000016841F001010160006833A900F0010062
:103C3000019001984FF4C05033900220349000203E
:103C4000CDE93500092037900020C5F6020000F0CC
:103C5000ABF813200521002200F04AFA132000F0EF
:103C600037FA38B0B0BD4FF4004002904FF08050AA
:103C70001E9002A8039500F0DBFB08B1FDF7D8F910
:103C800040F2843144F2E040C2F20041C5F6020045
:103C90000A68002A02F101020A6008D1C16841F4F1
:103CA0008071C160C16801F480710191019901685E
:103CB00041F0020101600068002100F00200019063
:103CC000C5F6020101984FF4405033900220349021
:103CD0000020CDE935000920379001F5806033A937
:103CE00000F062F838B0B0BD70470000000000007E
:103CF00040F61031C2F2004188420CD140F69410D7
:103D0000C2F200404168002908BF704740F61030F9
:103D1000C2F20040084770477047000000000000F2
:103D200090F8981001290CD1022180F898100168B0
:103D30008A6922F001028A610021C0F89C100846BD
:103D40007047D0F89C1041F00401C0F89C1001208D
:103D500070470000000000007047000000000000F5
:103D600070470000000000007047000000000000E5
:103D700070470000000000007047000000000000D5
:103D800070470000000000007047000000000000C5
:103D900070470000000000007047000000000000B5
:103DA00070470000000000002DE9F04F82B00C6861
:103DB000002C00F0C58000F1264242F2004302F1DF
:103DC000FF72C5F602030A2798424FEAB22540F275
:103DD000040E08BF0927092DC5F6000E38BF4FEAAB
:103DE000B22700224FF0030C00970026002709E0BD
:103DF00001370C6834FA07F306F1020602F10402F7
:103E000000F09E80012303FA07FA14EA0A09EFD0B2
:103E1000D1F804B00BF00304A4F10108B8F1010FCC
:103E200011D8D0F808800CFA06F3CD6828EA03030D
:103E3000B5402B438360CBF30015436823EA0A03A4
:103E4000BD402B434360032C1DD0C3680CFA06F51C
:103E5000AB438D68B540022C43EA0503C36012D121
:103E60006FF0030302F01C0503EA57030F24034419
:103E700004FA05FAD3F820800C6928EA0A08AC4055
:103E800044EA08041C6203680CFA06F44D68A34374
:103E900005F0030415F4403F04FA06F443EA040372
:103EA0000360A5D044F2F44440F2084AC5F6020487
:103EB000C5F6000A0F25236843F002032360236838
:103EC00003F00203019327F00303019C02F00C04AA
:103ED00053F80A80A54028EA0508009D05FA04F475
:103EE00044EA080443F80A404FF0B04ADAF8008088
:103EF0004C6848EA0905E30258BF28EA0905A3020D
:103F0000CAF80050DEF8008048EA090558BF28EAE0
:103F10000905A303CEF80050DEF8808048EA0905C1
:103F200058BF28EA0905E403CEF88050DEF87C305B
:103F300043EA090558BF23EA0905CEF87C5057E744
:103F400002B0BDE8F08F0000002A08BF09048161BB
:103F5000704700000000000041F20000C5F600407C
:103F60000068000C7047000044F6F820C2F20040E0
:103F7000006870470000000040F2100044F6F8218D
:103F8000C2F20040C2F2004100780A6810440860A2
:103F9000704700000000000080B5032000F0D8F852
:103FA00001F02EF944F218414AF28603C5F60201E7
:103FB000C0F600030A68096801F00F01C2F303228A
:103FC000595C9A5C01F01F0102F01F02D04040F2E0
:103FD0000802C2F2004220FA01F1116040F204012D
:103FE000C2F2004108600F2000F00AF800281CBF50
:103FF000012080BD00F054F8002080BD00000000CA
:10400000B0B58AB00F2840D804461C2000222146B3
:10401000002500F06DF81C2000F05AF840F2140062
:10402000C2F20040046044F2E840C5F602000168B4
:1040300041F001010160006801A900F00100029057
:10404000029802A801F028F8079C002C18BF012450
:1040500001F076F84DF68361A040C4F21B314FF0B9
:10406000FF32A0FB010140F69C40C2F200404FF03D
:104070008043036002EB9141C0E9011540F2E73152
:10408000C0E9031501F050FD10B101200AB0B0BD28
:1040900040F69C40C2F2004001F0D2FD0AB0B0BD33
:1040A00081B044F2F4400022C5F60200016841F0FC
:1040B0000201016000680F2100F0020000906FF023
:1040C0000100009B01B000F013B8000000000000E8
:1040D000002848BF704700F01F01012202FA01F1D9
:1040E0004EF200124009CEF2000242F82010704752
:1040F00070B54EF60C5C4FF0FF36CEF2000C00F1BE
:10410000604505F56445DCF80030C3F3022E8EF0FF
:104110000703042B28BF0423BEF1030406FA03F3AC
:1041200021EA030100F00F0338BF0024043B0028FC
:10413000634406FA04F048BF03F10C05A14022EAEB
:10414000000008430001287070BD0000000000005E
:104150004EF60C514FF6FF03CEF200010A681A40EA
:1041600060F30A2242F0806040F0FD700860704702
:10417000B0B544F60C05C5F602052968490729685B
:1041800005D401F00701081A18BF0120B0BD21F0C5
:10419000070108432860FFF7E7FE044655F8080CBE
:1041A000800407D4FFF7E0FE001BB0F57A7FF5D955
:1041B0000120B0BD0020B0BD80B500F099FF44F2F1
:1041C00020414AF28602C5F60201C0F600020968E3
:1041D000C1F30211515C01F01F01C84080BD000015
:1041E00080B544F2384EC5F6020E5EF8103C5EF81B
:1041F000101C5EF80C2CC1F3053CDEF80410BCF179
:10420000000F15D0C908D20601EAE2716FF35F31E1
:1042100000EE101A03F003010229B8EE400A0CD098
:1042200071B95EF8381C89060DD49FED351A18E077
:1042300000218160C0E9001180BD9FED301A10E0BF
:104240009FED2D1A0DE05EF8381C49F20002C0F215
:10425000D032C1F3C10122FA01F101EE101AB8EE19
:10426000411ADEF800109FED273A6FF35F2102EE4E
:10427000101ADEF80010C1F34621B8EE422A00EE13
:10428000032A00EE10CAB7EE003AB8EE400A81EEFB
:10429000000A32EE031A02EE101AB8EE422A20EE9D
:1042A000010A32EE031A80EE011ABCEEC11A80ED4B
:1042B000001ADEF80010C1F3064101EE101AB8EE44
:1042C000411A31EE031A80EE011ABCEEC11A80EDDC
:1042D000011ADEF80010C1F3066101EE101AB8EE03
:1042E000411A31EE031A80EE010ABCEEC00A10EE4C
:1042F000101A816080BD00BF0024744A20BCBE4BF0
:104300000024744C0000003980B544F2404EC5F6DC
:10431000020E5EF8183C5EF8181C5EF8142CC1F30F
:10432000055CDEF80410BCF1000F15D0C908D205F9
:1043300001EAE2716FF35F3100EE101A03F003013E
:104340000229B8EE400A0CD071B95EF8401C89060B
:104350000DD49FED351A18E000218160C0E90011ED
:1043600080BD9FED301A10E09FED2D1A0DE05EF834
:10437000401C49F20002C0F2D032C1F3C10122FA5E
:1043800001F101EE101AB8EE411ADEF800109FEDAF
:10439000273A6FF35F2102EE101ADEF80010C1F326
:1043A0004621B8EE422A00EE032A00EE10CAB7EE0C
:1043B000003AB8EE400A81EE000A32EE031A02EE2D
:1043C000101AB8EE422A20EE010A32EE031A80EEED
:1043D000011ABCEEC11A80ED001ADEF80010C1F31C
:1043E000064101EE101AB8EE411A31EE031A80EEC2
:1043F000011ABCEEC11A80ED011ADEF80010C1F3FB
:10440000066101EE101AB8EE411A31EE031A80EE81
:10441000010ABCEEC00A10EE101A816080BD00BF18
:104420000024744A20BCBE4B0024744C00000039A8
:104430002DE9F04381B00446C07844F22C490007CE
:10444000C5F6020901D400252EE0A06E4FEA3050D7
:1044500003280DD80025DFE800F0020E1714D9F864
:104460000000002540F40030C9F8000055B913E001
:1044700001253DB910E004F10800022103F03CFBE6
:1044800005464DB1A84611E004F12800022103F0D1
:10449000C3FB0546002DF5D1D9F82400A16E20F408
:1044A00040100843C9F824004FF000086078C007A6
:1044B00030D0A06D042807D8DFE800F00A131C03F1
:1044C0000300FDB1A84625E00125002DFAD119E031
:1044D000D9F8000040F40030C9F80000002DF1D1F7
:1044E00010E004F10800002103F006FB0546002D52
:1044F000E8D107E004F12800002103F08DFB054618
:10450000002DDFD1D9F82400A16D20F00700084369
:10451000C9F824006078800732D5E06D4FEAB0100A
:10452000042807D8DFE800F00A131C030300FDB1DC
:10453000A84625E00125002DFAD119E0D9F80000A0
:1045400040F40030C9F80000002DF1D110E004F172
:104550000800002103F0D0FA0546002DE8D107E05D
:1045600004F12800002103F057FB0546002DDFD1A0
:10457000D9F82400E16D20F4E0700843C9F8240064
:104580006078400734D5D4F8A8004FEA705004286A
:1045900007D8DFE800F00A131C030300FDB1A846AA
:1045A00026E00125002DFAD119E0D9F8000040F4E9
:1045B0000030C9F80000002DF1D110E004F108002E
:1045C000002103F099FA0546002DE8D107E004F137
:1045D0002800002103F020FB0546002DDFD1D9F88B
:1045E0002C00D4F8A81020F460000843C9F82C006F
:1045F0006078000734D5D4F8AC004FEA3060042866
:1046000007D8DFE800F00A131C030300FDB1A84639
:1046100026E00125002DFAD119E0D9F8000040F478
:104620000030C9F80000002DF1D110E004F10800BD
:10463000002103F061FA0546002DE8D107E004F1FE
:104640002800002103F0E8FA0546002DDFD1D9F853
:104650002C00D4F8AC1020F0E0600843C9F82C001E
:10466000E078800728D5E06C4FEA3010032806D8A0
:10467000DFE800F002091202B5B1A8461CE00125EE
:10468000002DFAD110E0D9F8000040F40030C9F84C
:104690000000002DF1D107E004F10800022103F031
:1046A0002BFA0546002DE8D1D9F82000E16C20F066
:1046B00030000843C9F820006078C00632D5206E6B
:1046C0004FEA3030042807D8DFE800F00A131C0353
:1046D0000300FDB1A84625E00125002DFAD119E01F
:1046E000D9F8000040F40030C9F80000002DF1D1E5
:1046F00010E004F10800002103F0FEF90546002D4A
:10470000E8D107E004F12800002103F085FA05460E
:10471000002DDFD1D9F82400216E20F4E0400843B9
:10472000C9F824006078800626D5606E4FEA3040D4
:10473000052807D8DFE800F0030A100303039DB142
:10474000A84619E00125002DFAD10DE004F108007A
:10475000012103F0D1F904E004F12800012103F064
:104760005BFA0546002DEBD1D9F82400616E20F4E8
:10477000E0200843C9F824006078400628D5D4F822
:10478000B0004FEA3070052807D8DFE800F0030AD0
:10479000100303039DB1A8461AE00125002DFAD1AC
:1047A0000DE004F10800012103F0A6F904E004F192
:1047B0002800012103F030FA0546002DEBD1D9F88D
:1047C0002C00D4F8B01020F0E0400843C9F82C00C9
:1047D0006078000620D5206FD8B1B0F1005F12D00C
:1047E000B0F1805F25D1D9F8000040F40030C9F85D
:1047F000000085B9D9F82400216F20F0405008430B
:10480000C9F8240008E004F10800012103F074F95C
:104810000546002DEED0A846E078C0072AD0A06C4F
:1048200003280AD8DFE800F0020D1602D5B1A84629
:1048300020E00125002DEED1DCE70125002DF6D189
:1048400010E0D9F8000040F40030C9F80000002D55
:10485000EDD107E004F10800022103F04DF905460F
:10486000002DE4D1D9F82000A16C20F0030008430A
:10487000C9F82000A078400642D5D9F8D40340F406
:104880008070C9F8D403FFF76FFB0646D9F8D4034C
:10489000C00505D4FFF768FB801B6528F6D3032508
:1048A0006DBBD9F84410D4F8B400414011F4407FF6
:1048B00011D0D9F84410D9F8442042F48032C9F814
:1048C0004420D9F8442021F4407122F48032C9F800
:1048D0004420C9F84410B0F5807F0FD1FFF744FBA6
:1048E000064641F2893700BFD9F84400800705D455
:1048F000FFF73AFB801BB842F6D3032585B1A846E3
:104900002078C00742D0E06F4FEAF000052823D896
:10491000DFE800F003262C0303037DB3A84635E04F
:104920004FF6CF73D4F8B40059F81C2CC0F2FF0333
:1049300000F4407122F47C5203EA1013B1F5407F79
:1049400008BF1A436FF31F3049F81C2CD9F84410E4
:104950000843C9F84400D3E70125002DDED10DE05E
:1049600004F10800012103F0C7F804E004F1280075
:10497000012103F051F90546002DCFD1D9F82800C7
:10498000E16F20F038000843C9F82800207880073C
:1049900024D5A06F052807D8DFE800F0030A10032C
:1049A00003039DB1A84619E00125002DFAD10DE0C1
:1049B00004F10800012103F09FF804E004F128004D
:1049C000012103F029F90546002DEBD1D9F8280083
:1049D000A16F20F007000843C9F82800207840079D
:1049E00026D5D4F89400052807D8DFE800F0030A9C
:1049F000100303039DB1A8461AE00125002DFAD14A
:104A00000DE004F10800012103F076F804E004F160
:104A10002800012103F000F90546002DEBD1D9F85B
:104A20002C00D4F8941020F007000843C9F82C009B
:104A30002078800628D5D4F890004FEA30700528F9
:104A400007D8DFE800F0030A100303039DB1A8466E
:104A50001AE00125002DFAD10DE004F10800002133
:104A600003F04AF804E004F12800022103F0D4F82E
:104A70000546002DEBD1D9F82800D4F8901020F08D
:104A8000E0400843C9F828002078400628D5D4F82B
:104A90009C004FEAB020052807D8DFE800F0030AA1
:104AA000100303039DB1A8461AE00125002DFAD199
:104AB0000DE004F10800002103F01EF804E004F109
:104AC0002800022103F0A8F80546002DEBD1D9F803
:104AD0002C00D4F89C1020F4E0500843C9F82C00B6
:104AE0002078000628D5D4F8A0004FEA70300528B9
:104AF00007D8DFE800F0030A100303039DB1A846BE
:104B00001AE00125002DFAD10DE004F10800002182
:104B100002F0F2FF04E004F12800022103F07CF827
:104B20000546002DEBD1D9F82C00D4F8A01020F4C4
:104B300060400843C9F82C002078000716D5D4F847
:104B40008400B0F5805F08D104F12800022103F051
:104B500063F8002818BF4FF00108D9F82800D4F8EE
:104B6000841020F440500843C9F828002078C0067B
:104B700016D5D4F89800B0F5807F08D104F128004C
:104B8000022103F049F8002818BF4FF00108D9F8B6
:104B90002C00D4F8981020F440700843C9F82C0079
:104BA000A078000722D5D4F8A400B0F5003F1AD0B1
:104BB000B0F5803F11D0C8BB04F10800002102F01D
:104BC0009BFF05468DB9D9F82C00D4F8A41020F429
:104BD00040300843C9F82C0008E004F12800022105
:104BE00003F01AF80546002DEDD0A846A07840073E
:104BF00029D5D4F88800B0F5401F21D0B0F5001FAA
:104C000018D0B0F5801F40F0BE80D9F8000040F405
:104C10000030C9F80000ADB9D9F82800D4F88810E0
:104C200020F440100843C9F828000CE00125002DAD
:104C3000DBD1C8E704F12800012102F0EDFF0546B1
:104C4000002DE9D0A846A078C00720D0206DB0F58F
:104C5000803F10D0B8B9D9F8000040F40030C9F84E
:104C600000009DB9D9F82000216D20F48030084360
:104C7000C9F820000BE004F10800022102F03CFF1B
:104C800005461DB9EEE70125002DEBD0A846E078DA
:104C9000800608D504F12800022102F0BDFF00289B
:104CA00018BF4FF00108D4E900108A037AD5D4F870
:104CB00080206FF0010303EB3223022B0AD34FEA6B
:104CC00032233BB1012B63D1D9F8003043F40033D8
:104CD000C9F80030002D5ED0CA0266D4CA006ED476
:104CE0008A0278D44A0000F18180CA0F40F08E8099
:104CF000090200F19680C00707D004F108000021E6
:104D000002F0FAFE002818BF05462079800707D573
:104D100004F10800012102F0EFFE002818BF05464B
:104D20002079400707D504F10800022102F0E4FED3
:104D3000002818BF05462079000707D504F1280090
:104D4000002102F069FF002818BF05462079C0063F
:104D500007D504F12800012102F05EFF002818BFEA
:104D600005462079800607D504F12800022102F0CB
:104D700053FF002818BF0125002D18BF0125284624
:104D800001B0BDE8F0830125002D7FF45BAF43E760
:104D90000125002DA0D1D9F8283023F440731A43FF
:104DA000C9F828204546CA0298D5D9F82420636F4F
:104DB00022F000421A43C9F82420CA0090D559F8BD
:104DC0001C2CD4F8B83022F480421A4349F81C2C29
:104DD0008A027FF587AFD9F82420E36E22F0807233
:104DE0001A43C9F824204A007FF57FAF59F81C2CDC
:104DF00022F4004249F81C2CD4F8BC2059F81C3C81
:104E00001A4349F81C2CCA0F3FF472AFD9F820207E
:104E1000636D22F040521A43C9F8202009027FF541
:104E20006AAFD9F82810D4F88C2021F4400111433E
:104E3000C9F82810C0077FF460AF66E700000000E3
:104E40002DE9F04381B0002800F0F68042F200081E
:104E50000446C5F200288946D8F8000000F00F008B
:104E600088420ED2D8F8000020F00F0040EA090076
:104E7000C8F80000D8F8000000F00F00484540F0E6
:104E8000DB80206844F218474107C5F602070AD5BF
:104E900021693A6802F07002914204D93A6822F01E
:104EA00070021143396001070AD561697A6802F01E
:104EB0007002914204D97A6822F07002114379603D
:104EC000C1060AD5A1697A6802F4E062914204D968
:104ED0007A6822F4E0621143796081060AD5E169BB
:104EE000BA6802F07002914204D9BA6822F07002E6
:104EF0001143B96081070AD5E1683A6802F00F02F0
:104F0000914204D93A6822F00F0211433960C00778
:104F100040F08080206881070AD5E1683A6802F095
:104F20000F02914204D23A6822F00F021143396015
:104F3000D8F8001001F00F0149450DD9D8F800103C
:104F400021F00F0141EA0901C8F80010D8F800105B
:104F500001F00F0149456FD141070AD521693A682F
:104F600002F07002914204D23A6822F070021143BA
:104F7000396001070AD561697A6802F070029142CE
:104F800004D27A6822F0700211437960C1060AD512
:104F9000A1697A6802F4E062914204D27A6822F44C
:104FA000E0621143796080060AD5E069B96801F0D2
:104FB0007001884204D2B96821F070010843B860DA
:104FC00000F01EF939684AF286033A68C0F6000319
:104FD000C1F3032102F00F02595C9A5C01F01F013A
:104FE00020FA01F102F01F0040F2080221FA00F05D
:104FF000C2F20042106040F2140040F20402C2F219
:105000000040C2F200420068116001B0BDE8F04308
:10501000FEF7F6BF386820F47061D4E90102012878
:1050200041EA020139600BD003282BD002282ED18F
:1050300057F8181C890307D4012001B0BDE8F0839C
:1050400057F8181CC905F7D557F8081C21F00701B7
:10505000084347F8080CFEF787FF064641F28835FB
:1050600057F8080C616800F03800B0EBC10F3FF44E
:1050700051AFFEF779FF801BA842F1D9032001B0A0
:10508000BDE8F08357F8181C8901D5D5DCE757F83F
:10509000181C4907D0D5D7E73F22026044F21842D6
:1050A000C5F6020252F8083C03F007034360136898
:1050B00003F470638360136803F00F03C360136825
:1050C00003F070030361536803F070034361536896
:1050D00003F4E0638361926802F07002C26142F2FD
:1050E0000000C5F20020006800F00F000860704763
:1050F00080B500F085F844F218414AF28603C5F6FF
:105100000201C0F600030A68096801F00F01C2F34A
:105110000322595C9A5C02F01F0220FA02F201F0AD
:105120001F0040F2080122FA00F0C2F200410860BC
:1051300040F20401C2F200410A6080BD000000009C
:1051400080B500F05DF844F2184C4AF28601C5F6CD
:10515000020CC0F60001DCF80020DCF8003003F09F
:105160000F03C2F30322CB5C8A5C02F01F02D04023
:1051700003F01F0240F2080320FA02F2C2F20043D9
:105180001A6040F20403C2F200431860DCF8040025
:10519000C0F30210085C00F01F0022FA00F080BD8E
:1051A00080B500F02DF844F2184C4AF28601C5F69D
:1051B000020CC0F60001DCF80020DCF8003003F03F
:1051C0000F03C2F30322CB5C8A5C02F01F02D040C3
:1051D00003F01F0240F2080320FA02F2C2F2004379
:1051E0001A6040F20403C2F200431860DCF80400C5
:1051F000C0F30220085C00F01F0022FA00F080BD1E
:1052000044F20041C5F602010869C0F3C200032858
:105210000FD002282CD080BB0868800649F200001D
:10522000C0F2D03058BF70470968C1F3C101C8400F
:1052300070478A6A886AC0F3051CC86ABCF1000F0F
:105240004B6B1FD000F0010002F003024042022A23
:1052500000EAD3006FF35F3000EE100AB8EE400AA8
:1052600012D0A2B90868800614D49FED261A1EE059
:1052700047F64000C0F27D10704740F60010C0F2C3
:105280003D007047002070479FED1D1A0FE09FED15
:105290001B1A0CE0086849F20002C0F2D032C0F3D9
:1052A000C10022FA00F001EE100AB8EE411A086BB4
:1052B0009FED153A6FF35F2002EE100A086BC0F302
:1052C0004620B8EE422A013000EE032A00EE10CA52
:1052D000B7EE003AB8EE400A81EE000A32EE031A49
:1052E00020EE010A01EE100AB8EE411A80EE010A22
:1052F000BCEEC00A10EE100A704700BF0024744ACA
:1053000020BCBE4B0024744C00000039000000009B
:105310002DE9F04381B0F8B18046007844F20049AD
:10532000C007C5F602095AD0D9F8100000F03801BC
:10533000D9F82800102905D018290FD100F0030052
:1053400002280BD1D9F80000800344D5D8F8040016
:10535000002840D101272FE0012718E3D8F80440A6
:105360002CB1B4F5A02F0DD0B4F5803F10D0D9F8F2
:10537000000020F48030C9F80000D9F8000020F4C3
:10538000802009E0D9F8000040F48020C9F800002E
:10539000D9F8000040F48030C9F80000FEF7E4FDC1
:1053A0000546A4B1D9F80000800314D4FEF7DCFD53
:1053B000401B6428F6D903270020002800F0E7826C
:1053C0000DE000BFFEF7D0FD401B6428F3D8D9F8EC
:1053D00000008003F6D40120002800F0D88298F85D
:1053E0000000800740F18480D9F8100010F03801E7
:1053F000D9F828001CD0182908BF5FEA807017D0A0
:10540000D8F80C00D9F80010002847D021F0190175
:105410000843C9F80000FEF7A7FD0546D9F80000CB
:1054200040072AD4FEF7A0FD401B0228F6D91EE053
:10543000D9F80000400704D5D8F80C00002800F087
:105440009681D9F80000D8F80C1020F01900084314
:10545000C9F80000FEF788FD054600BFD9F8000036
:1054600040070AD4FEF780FD401B0228F6D9032727
:105470000024002C00F08B823AE0FEF76DFD41F233
:105480000301884223D8D8F81000D9F80410402826
:1054900021F47C3124D141F4003023E021F00100DB
:1054A000C9F80000FEF760FD05460126D9F80000A6
:1054B00010F0040086EA900417D0FEF755FD401B5B
:1054C0000228F3D90327002C00F0618210E0D9F8FC
:1054D0000400D8F8101020F0FE4040EA016001E01E
:1054E00041EA00300124C9F80400002C00F04F828A
:1054F00098F80000C00674D5D9F8100000F0380103
:10550000D9F82800082905D018291CD100F003007B
:10551000012818D1D9F80000C00503D5D8F81C001F
:10552000802859D1FEF718FD41F20301884222D8A4
:10553000D8F82000D9F80410202821F0F84142D1F1
:1055400041F0804041E0D8F81C000028D9F8000064
:1055500020D040F08000C9F80000FEF705FD0546A8
:10556000D9F80000C005DDD4FEF7FEFC401B022880
:10557000F6D9032731E0D9F80C00D8F8201020F034
:105580007C50012440EA0160C9F80C00002C00F0B6
:10559000FE8126E020F08000C9F80000FEF7E4FC60
:1055A00005460126D9F8000010F4807086EA102420
:1055B0000ED0FEF7D9FC401B0328F3D30327002CA1
:1055C00000F0E5810DE041EA8060C9F804000124A3
:1055D000002C00F0DC8104E001270024002C00F006
:1055E000D68198F8000000071CD498F800008006C7
:1055F00031D498F80000400745D4D8F82440002C56
:1056000000F09180D9F8100000F03800182840F020
:105610008C80012CD9F82810D9F8300040F0A980EE
:105620000127B4E1D8F814000028D9F874003ED05E
:1056300040F00100C9F87400FEF796FC054600BF73
:10564000D9F874008007D0D4FEF78EFC401B0228E6
:10565000F6D903279BE1D8F818000028D9F80000F4
:105660004DD040F48050C9F80000FEF77DFC05469F
:10567000D9F800008004BCD4FEF776FC401B022859
:10568000F6D9032783E1D9F8000440F48070C9F803
:105690000004FEF769FC0546D9F80004C0051AD4D9
:1056A000FEF762FC401B6428F6D903276FE120F067
:1056B0000100C9F87400FEF757FC0546032700BF38
:1056C000D9F8740080077FF590AFFEF74DFC401BC2
:1056D0000228F5D95BE1D8F808402CB1052C00F080
:1056E0008280012C00F08580D9F8700020F0010044
:1056F000C9F87000D9F8700020F004007DE020F4B3
:105700008050C9F80000FEF72FFC0546032700BFB4
:10571000D9F8000080047FF56CAFFEF725FC401B34
:105720000228F5D933E1002731E1D9F8000020F053
:105730008070C9F80000FEF717FC022C05464FF0F8
:10574000030709D1D9F80000800178D5FEF70CFCD9
:10575000401B0228F6D91AE1D9F80000800140F177
:10576000E780FEF701FC401B0228F5D90FE1012775
:105770007EE601F00302D8F828309A4240F0DA8041
:10578000C1F30511D8F82C20914240F0D780014692
:10579000D8F830206FF35F21013A914240F0D08079
:1057A000C0F34622D8F8341001398A4240F0CA804A
:1057B000C0F30642D8F8381001398A4240F0C4805C
:1057C000C0F30660D8F83C100139884240F0BE8032
:1057D000D9F83400D8F84810C0F3CC00814240F02A
:1057E000B7800027D3E0D9F8700040F00400C9F872
:1057F0007000D9F8700040F00100C9F87000FEF7A1
:10580000B3FB002C054641F288344FF0030711D05A
:10581000D9F8700080073FF5F0AEFEF7A5FB401BFE
:10582000A042F5D9B3E000BFFEF79EFB401BA042AB
:1058300000F2AD80D9F870008007F5D4DDE608F1FC
:105840002807D9F8280040F2F33188438ECF084367
:10585000591E40EA02104FF47E426FF35F21C9F8EF
:10586000280002EB47204FF4FE0280B2D8F83C300B
:105870000844D8F8381002EB01414FF0FE4201F421
:10588000FE0102EB0362084402F0FE410844C9F83D
:105890003000D9F82C004FF6F87120F00100C9F85B
:1058A0002C00D9F83400D8F84820884340EAC200D8
:1058B000C9F83400D9F82C00D8F8401020F00C00BA
:1058C0000843C9F82C00D9F82C00D8F8441020F06F
:1058D00002000843C9F82C00D9F82C0040F48030AD
:1058E000C9F82C00D9F82C0040F40030C9F82C007D
:1058F000D9F82C0040F48020C9F82C00D9F82C00ED
:1059000040F00100C9F82C00D9F8000040F0807088
:10591000C9F80000FEF728FB04460327D9F8000069
:10592000800109D4FEF720FB001B0228F6D92EE0E7
:1059300000272CE001272AE0002728E0012726E0A5
:10594000012724E0012722E0012720E001271EE0B3
:10595000D9F82C0020F00100C9F82C00FEF704FB58
:105960000546FEF701FBA842FBD0D9F834004FF6FC
:10597000F871D8F848208843002740EAC200C9F8E7
:105980003400D9F82C0040F00100C9F82C00F8B21E
:1059900001B0BDE8F0830000704700000000000087
:1059A0007047000000000000704700000000000089
:1059B00010B590F83C20012A01D1022010BDCB681F
:1059C00048F2FF7ED1E901C223F47C5322F47052E5
:1059D000CFF6F07E1A430CEA0E03D1F800C042EA7B
:1059E000030E2CF477230A6943EA0E0322F476228D
:1059F000D0F800E01A434B691A434EF4806322F456
:105A0000742C40F20042C4F201028C6993428A6A0B
:105A100022F470224FF0010342EA0C0280F83C307D
:105A200042EA044310D140F2000C23F07C724B6A2E
:105A3000CFF6F04CCC690CEA03531A4324F0007300
:105A4000096A1A4342EA01030021CEF8443080F883
:105A50003C10084610BD0000B0B590F83C20012A6B
:105A60004FF002025CD0012380F83C3080F83D20EA
:105A700040F2004C0268C4F2010C42F480636345BA
:105A80005368D2F808E002BF23F470034C68234344
:105A900041F2FF740D68C4F2000423F07003A242C7
:105AA00043EA050353600BDC40F2FF73C4F20003CA
:105AB0009A4215DCB2F1804F27D040F2004317E044
:105AC00040F2FF33C4F201039A4216DC41F60003B0
:105AD000C4F200039A4218D00023C4F2010309E083
