:020000040800F2
:1000000000000824291B00081D1500081F15000802
:100010002115000823150008251500080000000020
:10002000000000000000000000000000271500088C
:1000300029150008000000002B1500082D150008E8
:10004000791B0008791B0008791B0008791B000840
:10005000791B0008791B0008791B0008791B000830
:10006000791B0008791B0008791B0008311500086E
:10007000791B0008791B0008791B0008791B000810
:10008000791B0008791B0008791B0008411500083E
:10009000791B0008791B0008791B0008791B0008F0
:1000A000791B0008791B0008791B0008791B0008E0
:1000B00051150008791B0008791B0008791B0008FE
:1000C000791B0008791B0008791B0008791B0008C0
:1000D000791B000861150008791B0008791B0008CE
:1000E000791B0008791B000800000000791B00083C
:1000F000791B0008791B0008791B0008791B000890
:10010000791B0008791B0008791B0008791B00087F
:10011000791B0008791B0008791B0008791B00086F
:10012000791B0008791B0008791B0008791B00085F
:10013000791B0008791B0008791B0008791B00084F
:1001400000000000000000000000000000000000AF
:10015000791B0008791B0008791B0008791B00082F
:10016000791B0008791B0008791B0008791B00081F
:10017000791B0008791B0008791B0008791B00080F
:10018000791B0008791B0008791B0008791B0008FF
:10019000791B0008791B0008791B0008791B0008EF
:1001A000791B0008791B0008791B0008791B0008DF
:1001B000791B0008791B0008791B0008791B0008CF
:1001C000791B0008791B0008791B0008791B0008BF
:1001D000791B0008791B0008791B0008791B0008AF
:1001E000791B0008791B0008791B0008791B00089F
:1001F000791B0008791B0008791B0008791B00088F
:10020000791B0008791B0008791B0008791B00087E
:10021000791B0008791B0008791B0008791B00086E
:10022000791B0008791B0008791B000800000000FA
:10023000791B0008791B000800000000791B0008EA
:10024000791B0008791B0008791B0008791B00083E
:10025000791B0008791B0008791B0008791B00082E
:10026000791B0008791B0008791B0008791B00081E
:10027000791B0008791B0008791B000800000000AA
:10028000791B0008791B0008791B0008000000009A
:0802900000000000791B0008CA
:1002980010B5054C237833B9044B13B10448AFF3B8
:1002A80000800123237010BD4404002400000000D6
:1002B800187D000808B5034B1BB103490348AFF389
:1002C800008008BD0000000048040024187D0008D4
:1002D80080F0004002E000BF81F0004142001FBFF3
:1002E8005FEA410392EA030F7FEA226C7FEA236CFC
:1002F8006AD04FEA1262D2EB1363C1BFD2184140F1
:1003080048404140B8BF5B42192B88BF704710F086
:10031800004F40F4000020F07F4018BF404211F029
:10032800004F41F4000121F07F4118BF494292EA91
:10033800030F3FD0A2F1010241FA03FC10EB0C00BD
:10034800C3F1200301FA03F100F0004302D549424A
:1003580060EB4000B0F5000F13D3B0F1807F06D3F7
:1003680040084FEA310102F10102FE2A51D2B1F1EF
:10037800004F40EBC25008BF20F0010040EA0300E4
:100388007047490040EB0000013A28BFB0F5000F64
:10039800EDD2B0FA80FCACF1080CB2EB0C0200FA1A
:1003A8000CF0AABF00EBC25052421843BCBFD04069
:1003B8001843704792F0000F81F4000106BF80F4E3
:1003C80000000132013BB5E74FEA41037FEA226CA6
:1003D80018BF7FEA236C21D092EA030F04D092F071
:1003E800000F08BF0846704790EA010F1CBF0020A5
:1003F800704712F07F4F04D1400028BF40F0004002
:10040800704712F100723CBF00F50000704700F021
:10041800004343F0FE4040F4000070477FEA226248
:1004280016BF08467FEA23630146420206BF5FEA19
:10043800412390EA010F40F4800070474FF0000319
:1004480004E000BF10F0004348BF40425FEA000CE0
:1004580008BF704743F0964301464FF000001CE088
:1004680050EA010208BF70474FF000030AE000BFDE
:1004780050EA010208BF704711F0004302D540421C
:1004880061EB41015FEA010C02BF8446014600208E
:1004980043F0B64308BFA3F18053A3F50003BCFAA9
:1004A8008CF2083AA3EBC25310DB01FA02FC634456
:1004B80000FA02FCC2F12002BCF1004F20FA02F25D
:1004C80043EB020008BF20F00100704702F1200250
:1004D80001FA02FCC2F1200250EA4C0021FA02F2B1
:1004E80043EB020008BF20EADC7070474FF0FF0CB6
:1004F8001CEAD0521EBF1CEAD15392EA0C0F93EAB1
:100508000C0F6FD01A4480EA010C400218BF5FEA52
:1005180041211ED04FF0006343EA501043EA5111C5
:10052800A0FB01310CF00040B1F5000F3EBF4900BF
:1005380041EAD3715B0040EA010062F17F02FD2AC3
:100548001DD8B3F1004F40EBC25008BF20F00100A6
:10055800704790F0000F0CF0004C08BF49024CEABD
:10056800502040EA51207F3AC2BFD2F1FF0340EA4F
:10057800C250704740F400004FF00003013A5DDCC0
:1005880012F1190FDCBF00F000407047C2F1000201
:10059800410021FA02F1C2F1200200FA02FC5FEAEE
:1005A800310040F1000053EA4C0308BF20EADC7038
:1005B800704792F0000F00F0004C02BF400010F4AA
:1005C800000F013AF9D040EA0C0093F0000F01F057
:1005D800004C02BF490011F4000F013BF9D041EA79
:1005E8000C018FE70CEAD15392EA0C0F18BF93EA7B
:1005F8000C0F0AD030F0004C18BF31F0004CD8D1A5
:1006080080EA010000F00040704790F0000F17BF2B
:1006180090F0004F084691F0000F91F0004F14D071
:1006280092EA0C0F01D142020FD193EA0C0F03D1C9
:100638004B0218BF084608D180EA010000F00040CC
:1006480040F0FE4040F40000704740F0FE4040F4A7
:10065800400070474FF0FF0C1CEAD0521EBF1CEA46
:10066800D15392EA0C0F93EA0C0F69D0A2EB030264
:1006780080EA010C49024FEA402037D04FF08053FE
:1006880043EA111143EA10130CF000408B4238BFC3
:100698005B0042F17D024FF4000C8B4224BF5B1AD1
:1006A80040EA0C00B3EB510F24BFA3EB510340EA1F
:1006B8005C00B3EB910F24BFA3EB910340EA9C00CD
:1006C800B3EBD10F24BFA3EBD10340EADC001B013D
:1006D80018BF5FEA1C1CE0D1FD2A3FF650AF8B42E1
:1006E80040EBC25008BF20F0010070470CF0004CEE
:1006F8004CEA50207F32C2BFD2F1FF0340EAC25019
:10070800704740F400004FF00003013A37E792F0D9
:10071800000F00F0004C02BF400010F4000F013A37
:10072800F9D040EA0C0093F0000F01F0004C02BF32
:10073800490011F4000F013BF9D041EA0C0195E79B
:100748000CEAD15392EA0C0F08D142027FF47DAF34
:1007580093EA0C0F7FF470AF084676E793EA0C0F24
:1007680004D14B023FF44CAF08466EE730F0004C22
:1007780018BF31F0004CCAD130F000427FF45CAFB2
:1007880031F000437FF43CAF5FE700BF42000ED278
:10079800B2F1FE4F0BD34FF09E03B3EB126209D4B4
:1007A8004FEA002343F0004323FA02F070474FF06A
:1007B8000000704712F1610F01D1420202D14FF0DF
:1007C800FF3070474FF00000704700BF53B94AB977
:1007D800002908BF00281CBF4FF0FF314FF0FF3041
:1007E80000F074B9ADF1080C6DE904CE00F006F81C
:1007F800DDF804E0DDE9022304B070472DE9F04795
:10080800089E0D4604468846002B4DD18A429446E0
:1008180068D9B2FA82F252B101FA02F3C2F12001A8
:1008280020FA01F10CFA02FC41EA030894404FEA6D
:100838001C45210CB8FBF5FE1FFA8CF705FB1E833F
:1008480041EA03430EFB07F199420BD91CEB030362
:100858000EF1FF3080F01E81994240F21B81AEF10B
:10086800020E63445B1AA4B2B3FBF5F005FB103328
:1008780044EA034400FB07F7A7420AD91CEB040427
:1008880000F1FF3380F00881A74240F205816444FB
:100898000238E41B40EA0E4000211EB1D440002378
:1008A800C6E90043BDE8F0878B4208D9002E00F066
:1008B800EE800021C6E900050846BDE8F087B3FAD6
:1008C80083F100294AD1AB4202D3824200F2F98077
:1008D800841A65EB030301209846002EE2D0C6E98E
:1008E8000048DFE702B9FFDEB2FA82F2002A40F0E0
:1008F8009180A1EB0C054FEA1C471FFA8CFE0121E1
:10090800B5FBF7F307FB1350250C45EA00450EFB32
:1009180003F0A84208D91CEB050503F1FF3802D201
:10092800A84200F2CB8043462D1AA4B2B5FBF7F0DB
:1009380007FB105544EA05440EFB00FEA64508D9FE
:100948001CEB040400F1FF3502D2A64500F2BB807F
:100958002846A4EB0E0440EA03409EE7C1F12007B5
:100968008B4022FA07FC4CEA030C20FA07F405FA3C
:1009780001F31C43FD404FEA1C4900FA01F3B5FBA3
:10098800F9F8200C1FFA8CFE09FB185540EA0545BA
:1009980008FB0EF0A84202FA01F20BD91CEB050580
:1009A80008F1FF3A80F08880A84240F28580A8F1DB
:1009B800020865442D1AA4B2B5FBF9F009FB1055DD
:1009C80044EA054500FB0EFEAE4508D91CEB0505BB
:1009D80000F1FF346CD2AE456AD90238654440EA6A
:1009E8000840A0FB0294A5EB0E05A542C846A64602
:1009F80056D353D05EB1B3EB080265EB0E0505FA8A
:100A080007F722FA01F3CD401F43C6E9007500211C
:100A1800BDE8F087C2F1200320FA03F10CFA02FCCA
:100A280025FA03F395400D434FEA1C471FFA8CFE45
:100A3800B3FBF7F107FB11302B0C43EA004301FB32
:100A48000EF0984204FA02F408D91CEB030301F1F2
:100A5800FF382FD298422DD9023963441B1AADB200
:100A6800B3FBF7F007FB103345EA034500FB0EF331
:100A7800AB4208D91CEB050500F1FF3816D2AB4292
:100A880014D902386544ED1A40EA014138E7314685
:100A9800304607E78646E5E61846FAE64B45A9D20A
:100AA800B9EB020864EB0C0E0138A3E74046EAE70D
:100AB800204694E74146D1E7D0467BE7023B6544B0
:100AC80032E7084609E76444023842E7704700BF46
:100AD800844641EA000313F003036DD1403A41D341
:100AE80051F8043B40F8043B51F8043B40F8043B00
:100AF80051F8043B40F8043B51F8043B40F8043BF0
:100B080051F8043B40F8043B51F8043B40F8043BDF
:100B180051F8043B40F8043B51F8043B40F8043BCF
:100B280051F8043B40F8043B51F8043B40F8043BBF
:100B380051F8043B40F8043B51F8043B40F8043BAF
:100B480051F8043B40F8043B51F8043B40F8043B9F
:100B580051F8043B40F8043B51F8043B40F8043B8F
:100B6800403ABDD2303211D351F8043B40F8043B2F
:100B780051F8043B40F8043B51F8043B40F8043B6F
:100B880051F8043B40F8043B103AEDD20C3205D33F
:100B980051F8043B40F8043B043AF9D2043208D037
:100BA800D2071CBF11F8013B00F8013B01D30B88A9
:100BB80003806046704700BF082A13D38B078DD087
:100BC80010F003038AD0C3F10403D21ADB071CBF59
:100BD80011F8013B00F8013B80D331F8023B20F8C3
:100BE800023B7BE7043AD9D3013A11F8013B00F8FC
:100BF800013BF9D20B7803704B7843708B78837084
:100C080060467047034691F82620012A1AD891F8C1
:100C18002700D0B1B1F92C209A4209DA0B6B0133C5
:100C28000B630A6BB1F92E309A420DDD0120704733
:100C38005242934203DA0B6B01330B63F1E7002353
:100C48000B63EEE7002070470020704784460A4691
:100C580000290CDB521053429C4502DA0844431E1B
:100C680018B2824202DA401A013000B270474A1CB8
:100C7800F0E70000092A56D82DE9F04F85B007465D
:100C8800541EC4EBC403284E06EBC3063084B1835C
:100C98008BB2728B9B1AF3837183337E1BB901224B
:100CA800327670847060B8B2DFF87C80E30001931C
:100CB800C4EBC4054FEAC50B08EBC5056B8CC01A1D
:100CC800B5F924A0514600B2FFF7C0FF0390039B7B
:100CD80058F80B0003EB000948F80B9003986B6871
:100CE800184468606F84B5F92A7007FB00F090FB20
:100CF800FAF0FFF7A7FBA86007FB09F090FBFAF0F2
:100D0800FFF7A0FB68610398314600B2FFF77AFF4E
:100D1800019B1C1B08EBC40888F8280000230393D8
:100D280005B0BDE8F08F70476004002400B58DB0B1
:100D38006B4602AA4021114802F044FE10B10DB0E2
:100D48005DF804FB002201210C4802F02BFF029AF7
:100D580040F201239A42F2D19DF800309DF801003B
:100D680000EB03209DF802309DF8031001EB0321EE
:100D7800012209B200B2FFF77DFFE0E7DC0600249C
:100D8800F0B58BB01A4B1B4D1D601B4A5A600024EE
:100D98000294039402260496012705970694079463
:100DA80002A9284602F076FD4FF08043029303948F
:100DB800049605970694079402A9284602F06AFD4E
:100DC8000094234632463146284602F0A4FD2246C6
:100DD8003946284602F0E6FE4FF0004240212846F8
:100DE80002F0B4FD284602F0D3FD0BB0F0BD00BF01
:100DF80090060024DC060024350D000808B5054BD4
:100E0800834200D008BD044B5B68002BFAD0014830
:100E18009847F7E7DC0600249006002408B5454902
:100E28000B689A6842F040029A601A6842F0100211
:100E38001A60D1F880301B683F49404A934218BF76
:100E48008B422FD0183293422CD01832934229D09B
:100E58001832934226D01832934223D01832934244
:100E680020D0183293421DD002F55672934219D001
:100E78001832934216D01832934213D01832934244
:100E880010D0183293420DD0183293420AD018323B
:100E9800934207D01832934204D01A6822F0010214
:100EA8001A6003E01A6822F001021A60214BD3F895
:100EB80080301B682049214A934218BF8B422FD0AB
:100EC800183293422CD01832934229D018329342C8
:100ED80026D01832934223D01832934220D01832A9
:100EE80093421DD002F55672934219D0183293429C
:100EF80016D01832934213D01832934210D01832B9
:100F080093420DD0183293420AD01832934207D038
:100F18001832934204D01A6842F001021A6003E0C2
:100F28001A6842F001021A6024220549014806F0B5
:100F380051FD08BD24090024100002402800024089
:100F48009806002430B50478437844EA0324C4F3AF
:100F58000A040C8090F801E083784FEADE0E4EEA2E
:100F6800431ECEF30A0EA1F802E08378C2789B09EB
:100F780043EA8203027943EA8223C3F30A038B809C
:100F880002794579520842EAC512C2F30A02CA80B8
:100F980090F805C0CCF3011C81F80AC090F805C090
:100FA8004FEA9C1C81F80BC090F806C0C5794CEA42
:100FB800052CA1F80CC090F808C0457A4CEA052C1D
:100FC800A1F80EC090F80AC0C57A4CEA052CA1F821
:100FD80010C0057B8D74457BCD7490F80EC0C57B21
:100FE8004CEA052CA1F81CC090F810C0407C4CEAD3
:100FF800002000B20881A4F580640C80AEF5806EF4
:10100800A1F802E0A3F580638B80A2F58062CA8014
:10101800A0F580600881002030BD000008B50249B5
:101028000248FFF78FFF08BDBC060024980600247D
:1010380070B505460C46164605F0E4F821462846E4
:1010480005F016FC14B92B685E6370BD042C08D03B
:10105800082C09D00C2C0AD0102C0BD02B68DE657C
:10106800F3E72B689E63F0E72B68DE63EDE72B68F8
:101078001E64EAE72B689E65E7E7000000B583B0C9
:101088000B4BD3F8D82042F00102C3F8D820D3F88C
:10109800D83003F001030193019B002211460B2075
:1010A80000F0D4FD0B2000F007FE03B05DF804FB50
:1010B8000044025810B51848184B03604FF44073A9
:1010C80083600023C3600374437483740322426102
:1010D800082282611E22C261092202620122426242
:1010E8000A2181621D24C462016343638263C2636F
:1010F80020210164042242648364C264036542655A
:101108008365C36501664366826602F079FA00B9B1
:1011180010BD00F0C2F8FBE7DC06002400A0004088
:1011280010B5B8B004460021339134913591369109
:101138003791C02202A806F029FD2268214B9A4265
:1011480001D038B010BD4FF400420023CDE902238E
:101158004FF080531E9302A803F07AFF78BB1A4B16
:10116800D3F8EC2042F48072C3F8EC20D3F8EC20DA
:1011780002F480720092009AD3F8E02042F0010253
:10118800C3F8E020D3F8E03003F001030193019B9A
:101198004FF4C05333930223349300243594369488
:1011A8000923379333A9094802F0E2FE2246214673
:1011B800132000F04BFD132000F07EFDC1E700F086
:1011C8006CF8CCE700A00040004402580000025828
:1011D80030B58BB0002405940694079408940994BC
:1011E800274BD3F8E02042F01002C3F8E020D3F8F0
:1011F800E02002F010020092009AD3F8E02042F0BA
:101208008002C3F8E020D3F8E02002F080020192C7
:10121800019AD3F8E02042F00202C3F8E020D3F8A4
:10122800E02002F002020292029AD3F8E02042F093
:101238000402C3F8E020D3F8E02002F0040203928D
:10124800039AD3F8E02042F00102C3F8E020D3F873
:10125800E03003F001030493049B0A4D22463C212D
:10126800284602F099FF3C23059301230693079330
:10127800089405A9284602F07BFE0BB030BD00BFDC
:10128800004402580010025808B50368B3F1804FB3
:1012980000D008BD00F09CFCFBE772B6FEE700003A
:1012A80000B59FB04C2200210BA806F06FFC20224D
:1012B800002103A806F06AFC022002F073FF002355
:1012C8000093394BDA6A22F00102DA62DB6A03F032
:1012D80001030093354B9A6942F440429A619B6935
:1012E80003F440430093009B304B9B6913F4005F69
:1012F800FAD02F4BD3F8F42042F00202C3F8F420BE
:10130800D3F8F43003F002030193019B0023029306
:10131800264B9A6942F440429A619B6903F4404320
:101328000293214BDA6A42F00102DA62DB6A03F0C7
:1013380001030293029B1D4B9B6913F4005FFAD0D3
:1013480001230B934FF480330C93022314931593CA
:1013580005221692C02217921893082219921A93FE
:101368001B9200231C931D930BA802F045FFB0B9F4
:101378003F23039303230493002305930823069331
:101388004023079308934FF4806209920A9304213B
:1013980003A803F097FB20B91FB05DF804FBFFF723
:1013A8007CFFFFF77AFF00BF00040058004802588E
:1013B8000044025808B500F0DDFBFFF771FFFFF7A6
:1013C80007FFFFF75BFE00F0FDFAFFF773FE00F082
:1013D800DBF900F089FA00F045FAFFF71FFDFFF787
:1013E800CFFC184C184D226800212846FFF720FE34
:1013F800226804212846FFF71BFE144D22680821A5
:101408002846FFF715FE22680C212846FFF710FE34
:10141800226804210E48FFF70BFE142000F0EAFBB7
:10142800094B1A68074B1B6853639363074A126892
:10143800D3631364064A12689363142000F0DAFB3E
:10144800EEE700BF00000024C8070024600800245D
:101458001408002482B0074BD3F8F42042F00202AB
:10146800C3F8F420D3F8F43003F002030193019B8E
:1014780002B07047004402580F2801D90120704774
:1014880010B58AB00446002201461C2000F0DEFB9D
:101498001C2000F011FC1B4B1C601B4BD3F8E820F0
:1014A80042F00102C3F8E820D3F8E83003F0010362
:1014B8000093009B01A902A803F094FC079BC3B901
:1014C80003F06CFC03461148A0FB03239B0C013B73
:1014D8000F484FF08042026040F2E732C26043603A
:1014E80000230361836005F06DF830B101200AB074
:1014F80010BD03F053FC4300E5E7054804F0C6FEC1
:10150800F5E700BF100000240044025883DE1B43A7
:101518007C070024FEE7FEE7FEE7FEE7FEE77047EC
:10152800704770477047000008B5024801F0DCFBBF
:1015380008BD00BFAC08002408B5024802F08AFBC9
:1015480008BD00BFDC06002408B5024804F0EAFE26
:1015580008BD00BF7C07002408B5FFF75FFD0348FE
:10156800036810221A6205F065FB08BD24090024EF
:10157800244B1B6803F00F03062B06D8214A136877
:1015880023F00F0343F0070313601F4B1A6842F060
:1015980001021A6000221A6119681C4A0A401A607E
:1015A800184B1B6813F0080F06D0164A136823F06F
:1015B8000F0343F007031360134B00229A61DA61AB
:1015C8001A62134999621349D962134919635A6314
:1015D8009963DA6319645A64196821F480211960DF
:1015E8001A660E4B1A680E4B1340B3F1005F03D214
:1015F8000C4B0122C3F808210B4B43F2D2021A60AC
:10160800704700BF00200052004402587FEDF6EA00
:10161800000202020000FF01800201010010005CCC
:101628000000FFFF008000510040005284B00368B2
:101638001A4A934207D01A4A934212D0194A93423F
:101648001DD004B07047184BD3F8F02042F00102C7
:10165800C3F8F020D3F8F03003F001030193019BA5
:10166800EFE7114BD3F8E82042F00202C3F8E82074
:10167800D3F8E83003F002030293029BE1E70A4B38
:10168800D3F8F02042F00202C3F8F020D3F8F0308B
:1016980003F002030393039BD3E700BF000001405C
:1016A80000040040000401400044025800B589B01D
:1016B80000230393049305930693079303682C4A26
:1016C800934208D02B4A93421FD02B4A934233D0DF
:1016D80009B05DF804FB294BD3F8E02042F0100272
:1016E800C3F8E020D3F8E03003F010030093009B28
:1016F8004FF4206303930223049301230593079374
:1017080003A91F4802F034FCE2E71C4BD3F8E020A1
:1017180042F00402C3F8E020D3F8E03003F00403F9
:101728000193019B8023039302230493079303A946
:10173800144802F01DFCCBE7104BD3F8E02042F030
:101748000402C3F8E020D3F8E03003F00403029366
:10175800029B4FF4407303930223049301230593E0
:101768000323079303A9074802F002FCB0E700BF70
:1017780000000140000400400004014000440258F9
:10178800001002580008025810B596B000241394AF
:10179800149415940C940D940E940F941094119421
:1017A80012942C22214601A806F0F0F92B482C4B64
:1017B8000360EF234360846041F28733C3600461B0
:1017C8004461846104F02EFF002837D1002313936D
:1017D8001493159313A9214805F0FEF8002830D179
:1017E80060230C9300220D920E920F921092119288
:1017F80012920CA9194804F08FFF28BB04220CA9E7
:10180800164804F089FF10BB002301930293039349
:10181800049305934FF400520692079308934FF0F0
:10182800007209920A930B9301A90C4805F024F958
:1018380080B90A48FFF73AFF16B010BDFFF72DFD33
:10184800C4E7FFF72AFDCBE7FFF727FDD6E7FFF749
:1018580024FDD9E7FFF721FDEBE700BFC807002407
:101868000000014000B58BB000230793089309934B
:1018780000930193029303930493059306931848E6
:10188800184A0260EF224260836044F61F62C26019
:101898000361836104F0C6FEC8B900230793099366
:1018A80007A90F4805F098F8A0B960230093002312
:1018B80001930293049304226946094804F02CFF1B
:1018C80058B90748FFF7F2FE0BB05DF804FBFFF7C5
:1018D800E4FCE2E7FFF7E1FCE7E7FFF7DEFCF0E70F
:1018E800140800240004004010B596B00024139496
:1018F800149415940C940D940E940F9410941194C0
:1019080012942C22214601A806F040F92B482C4BB2
:101918000360EF234360846044F61F63C36004617F
:101928004461846104F07EFE002838D100231393BB
:101938001493159313A9214805F04EF8002831D1C6
:1019480060230C9300230D930E930F931093119320
:10195800129308220CA9194804F0DEFE28BB0C22B9
:101968000CA9164804F0D8FE10BB0023019302937B
:101978000393049305934FF4005206920793089338
:101988004FF0007209920A930B9301A90B4805F0D6
:1019980073F880B90948FFF789FE16B010BDFFF744
:1019A8007CFCC3E7FFF779FCCAE7FFF776FCD6E7CC
:1019B800FFF773FCD9E7FFF770FCEBE7600800243A
:1019C8000004014008B51948194B0360194B4360DE
:1019D8004FF4805383600023C3604FF48062026138
:1019E8000C2242618361C36103624362836205F032
:1019F80066FF70B900210D4806F05AF860B9002159
:101A08000A4806F07AF850B9084806F032F848B99A
:101A180008BDFFF742FCEDE7FFF73FFCEFE7FFF7F4
:101A28003CFCF1E7FFF739FCF2E700BF240900248A
:101A380000100140A086010030B5B9B0044600216D
:101A480033913491359136913791C02202A806F02E
:101A58009DF822682D4B9A4201D039B030BD012241
:101A68000023CDE9022302A803F0F2FA002847D1A7
:101A7800274BD3F8F02042F01002C3F8F020D3F837
:101A8800F02002F010020092009AD3F8E02042F011
:101A98000202C3F8E020D3F8E03003F00203019318
:101AA800019B4FF44043339302233493002535952B
:101AB80036950423379333A9164802F059FA164885
:101AC800164B0360292343608560C5604FF480632B
:101AD8000361456185614FF48073C36105624562A6
:101AE80000F00CFB78B90C4BC4F880309C630022E2
:101AF8001146252000F0AAF8252000F0DDF8ACE713
:101B0800FFF7CBFBB4E7FFF7C8FBECE70010014099
:101B18000044025800040258AC0800241000024097
:101B2800DFF834D0FFF724FD0C480D490D4A002397
:101B380002E0D458C4500433C4188C42F9D30A4A7A
:101B48000A4C002301E013600432A242FBD305F0E3
:101B5800F9FFFFF72FFC704700000824000000245D
:101B680044040024E47D000844040024C00900243F
:101B7800FEE7000010B5032000F056F802F096FECC
:101B88000F498B69C3F303230E4AD35C03F01F0389
:101B9800D8408B6903F00F03D35C03F01F0320FACE
:101BA80003F3094A1360094B18600F20FFF764FC20
:101BB80010B10124204610BD0446FFF74BFCF9E79D
:101BC800004402587C7D000808000024040000241A
:101BD800034B1B78034A11680B441360704700BF1E
:101BE8000C000024B8090024014B1868704700BF96
:101BF800B809002438B50446FFF7F6FF0546B4F1E6
:101C0800FF3F02D0044B1B781C44FFF7EDFF401B3D
:101C1800A042FAD338BD00BF0C000024014B18685D
:101C2800000C70470010005C0649CB6823F4E063A1
:101C38001B041B0C000200F4E0600343024A1A4331
:101C4800CA60704700ED00E00000FA0500B5174BC8
:101C5800DB68C3F30223C3F1070CBCF1040F28BFF0
:101C68004FF0040C03F1040EBEF1060F14D9033B28
:101C78004FF0FF3E0EFA0CFC21EA0C0199400EFAD7
:101C880003F322EA03031943002807DB0901C9B259
:101C9800074B19545DF804FB0023E9E700F00F0037
:101CA8000901C9B2034B1954F4E700BF00ED00E085
:101CB80000E400E014ED00E0002807DB00F01F025C
:101CC800400901239340024A42F82030704700BF80
:101CD80000E100E0F0B4876D0468664E664DAC42E2
:101CE80018BFB44242D01835AC423FD01835AC4288
:101CF8003CD01835AC4239D01835AC4236D01835FE
:101D0800AC4233D01835AC4230D005F55675AC42EC
:101D18002CD01835AC4229D01835AC4226D018350D
:101D2800AC4223D01835AC4220D01835AC421DD077
:101D38001835AC421AD01835AC4217D04F4DAC42CA
:101D480014D01435AC4211D01435AC420ED0143531
:101D5800AC420BD01435AC4208D01435AC4205D097
:101D68001435AC4202D01435AC4207D1446E856EAE
:101D78006560C46E14B1046F456F656004683D4EBC
:101D88003D4DAC4218BFB44252D01835AC424FD08A
:101D98001835AC424CD01835AC4249D01835AC4255
:101DA80046D01835AC4243D01835AC4240D005F582
:101DB8005675AC423CD01835AC4239D01835AC42D7
:101DC80036D01835AC4233D01835AC4230D018353F
:101DD800AC422DD01835AC422AD01835AC4227D0A9
:101DE800264E274DAC4218BFB44211D0254DAC4207
:101DF8000ED01435AC420BD01435AC4208D0143593
:101E0800AC4205D01435AC4202D01435AC4224D1D2
:101E1800C46D04F01F050124AC407C600468636055
:101E28008368402B20D0036899600368DA6014E067
:101E3800C46D04F01F0C3F2404FA0CF4BC60056860
:101E48002C6824F480242C60046863608368402B29
:101E580005D0036899600368DA60F0BC70470368CE
:101E68009A600368D960F8E703689A600368D960E4
:101E7800F3E700BF1000024028000240085402584F
:101E88001C5402583054025803682749274A934281
:101E980018BF8B422FD0183293422CD0183293425D
:101EA80029D01832934226D01832934223D01832C0
:101EB800934220D0183293421DD002F556729342B5
:101EC80019D01832934216D01832934213D01832D0
:101ED800934210D0183293420DD0183293420AD050
:101EE8001832934207D01832934204D023F0FF03EC
:101EF8008365806D704710B4D9B210390C4AA2FBC3
:101F08000142C2F302120B4CA25CC2655F2906D9DA
:101F1800094A1A4004328265806D10BC7047064A2F
:101F28001A408265F8E700BF10000240280002400E
:101F3800ABAAAAAA8C7D000800FCFFFF83699BB9A5
:101F4800836A012B0AD0022B02D00BB10020704704
:101F5800C36A13F0807F2AD100207047C36AB3F1A7
:101F6800C07F26D000207047B3F5005F0AD0836A8F
:101F7800022B26D9032B26D1C36A13F0807F24D1E4
:101F880000207047836A032B03D8DFE803F01404AA
:101F9800140A00207047C36A13F0807F0DD1002017
:101FA8007047C36AB3F1C07F09D000207047012091
:101FB80070470120704701207047012070470120B9
:101FC80070470120704700207047012070470000CB
:101FD80003682249224A934218BF8B4228D0143200
:101FE800934225D01432934222D0143293421FD008
:101FF800143293421CD01432934219D014329342B3
:1020080016D0DAB2103A1749A1FB02121209164982
:102018001944A8291FD9154B13449B000366144B78
:10202800436602F01F02012303FA02F28266704738
:10203800DBB2083B0F4AA2FB03230F4A02EB131241
:10204800920002660D4A4266C3F30413012202FAA3
:1020580003F3836670470832DDE700BF085402586F
:102068001C540258ABAAAAAAF0FBFDBF00820010BC
:1020780080080240CDCCCCCC00960016805802587F
:1020880001794A1E072A2CD830B40368154D164C1E
:10209800A34218BFAB4218D01434A34215D014344D
:1020A800A34212D01434A3420FD01434A3420CD04C
:1020B8001434A34209D01434A34206D00B4B0B446A
:1020C8009B00C3660A4B036705E00A4B0B449B0061
:1020D800C366094B0367012303FA02F2426730BC67
:1020E80070477047085402581C5402583F82001029
:1020F800400902403F9600164059025870B5044600
:10210800FFF772FD002C00F0B6810546236853499D
:10211800534A934218BF8B420CBF0122002250D071
:1021280030318B424DD018318B424AD018318B4216
:1021380047D018318B4244D018318B4241D01831E6
:102148008B423ED001F556718B423AD018318B4202
:1021580037D018318B4234D018318B4231D01831F6
:102168008B422ED018318B422BD018318B4228D07D
:1021780018318B4225D03B493B4A934218BF8B42CA
:1021880000F03181394A934200F02D811432934294
:1021980000F029811432934200F0258114329342D1
:1021A80000F021811432934200F01D8114329342D1
:1021B80000F0198140236365032384F8353001203A
:1021C8004AE0022184F83510002184F834107ABBE3
:1021D800274A93422CD01832934229D0183293427E
:1021E80026D01832934223D01832934220D0183286
:1021F80093421DD002F55672934219D01832934279
:1022080016D01832934213D01832934210D0183295
:1022180093420DD0183293420AD01832934207D015
:102228001832934204D01A6822F001021A6003E0BF
:102238001A6822F001021A6023681A6812F0010F66
:1022480018D0FFF7D1FC431B052BF5D92023636574
:10225800032384F83530012070BD00BF1000024010
:1022680028000240085402581C540258305402589E
:10227800400002401A6881481040A168E2680A4399
:1022880021690A4361690A43A1690A43E1690A436A
:10229800216A0A430243616A042900F09980784957
:1022A800086878490140B1F1005F11D36168A1F174
:1022B8002905A1F13F00032888BF052D06D9A1F102
:1022C8004700012802D94F39032901D842F4801266
:1022D8001A602668756925F00705636A1D43042B93
:1022E80008D1A36A1D43E36A23B12046FFF726FEFF
:1022F800002872D175612046FFF7C6FDE36D03F033
:102308001F023F239340836023685F495F4A9342DB
:1023180018BF8B4242D0183293423FD018329342B2
:102328003CD01832934239D01832934236D0183202
:10233800934233D01832934230D002F5567293420A
:102348002CD01832934229D01832934226D0183212
:10235800934223D01832934220D0183293421DD092
:10236800183293421AD01832934217D0484A9342EF
:1023780014D01432934211D0143293420ED0143236
:1023880093420BD01432934208D01432934205D0B2
:102398001432934202D01432934213D12046FFF7ED
:1023A80017FEA368802B59D0236E22791A60636EBA
:1023B800A26E5A606368013B072B52D90023E3667B
:1023C8002367636700206065012384F8353043E79D
:1023D800E16A206B01430A4361E7402363650120FA
:1023E80084F8350038E7022284F83520002284F882
:1023F80034201A6827491140A268402A2CD0802A24
:1024080027D00022E06842EAD002206942EAD002DE
:10241800606942EAD002A06942EAD002E06942EA71
:10242800D002206A42EA10120A431A6022681A4B44
:1024380013441A4AA2FB03231B099B00E3652046A9
:10244800FFF722FDE26D02F01F0101228A4042607F
:102458005AE74FF48042D5E71022D3E700236360A0
:10246800A2E72046FFF70CFEE36E00221A60236FF6
:10247800626F5A60A6E70120EEE600BF3F8010FEBB
:102488000010005C0000FFFF10000240280002401E
:10249800085402580F00FEFFF8ABFDA7CDCCCCCCFA
:1024A800002800F03E8170B5044690F834000128F9
:1024B80000F03981012084F8340094F83500C0B266
:1024C800012807D04FF400636365002384F8343093
:1024D800012070BD022084F8350000206065206866
:1024E800924E934DA84218BFB0422FD01835A8423B
:1024F8002CD01835A84229D01835A84226D018352E
:10250800A84223D01835A84220D01835A8421DD09B
:1025180005F55675A84219D01835A84216D01835B1
:10252800A84213D01835A84210D01835A8420DD0AB
:102538001835A8420AD01835A84207D01835A8423D
:1025480004D0056825F00105056003E0056825F05D
:10255800010505602046FFF7BDFB23687349744AEF
:10256800934218BF8B4238D01832934235D0183274
:10257800934232D0183293422FD0183293422CD043
:102588001832934229D01832934226D002F5567257
:10259800934222D0183293421FD0183293421CD053
:1025A8001832934219D01832934216D018329342F7
:1025B80013D01832934210D0183293420DD01A68B3
:1025C80022F00E0242F00A021A60236C93B12268CC
:1025D800136843F0040313600CE01A6822F01E022B
:1025E80042F016021A60236C23B12268136843F084
:1025F8000803136023684D494D4A934218BF8B4224
:1026080042D0183293423FD0183293423CD018320D
:10261800934239D01832934236D01832934233D08D
:102628001832934230D002F5567293422CD01832A9
:10263800934229D01832934226D01832934223D09D
:102648001832934220D0183293421DD01832934248
:102658001AD01832934217D0364A934214D0143203
:10266800934211D0143293420ED0143293420BD0BD
:102678001432934208D01432934205D01432934254
:1026880002D0143293420ED1236E1A6812F4803F9E
:1026980003D01A6842F480721A60E36E1BB11A689C
:1026A80042F480721A6023682049214A934218BF75
:1026B8008B4230D0183293422DD0183293422AD010
:1026C8001832934227D01832934224D018329342BA
:1026D80021D0183293421ED002F5567293421AD076
:1026E8001832934217D01832934214D018329342BA
:1026F80011D0183293420ED0183293420BD01832B0
:10270800934208D01832934205D01A6842F0010269
:102718001A600020DDE61A6842F001021A60002003
:10272800D7E6012070470220D3E600BF1000024020
:10273800280002400854025870B50446FFF754FABE
:10274800002C00F09181054694F83530DBB2022B5D
:1027580006D080236365002384F83430012070BDDF
:1027680023688C498C4A934218BF8B4230D0183268
:1027780093422DD0183293422AD01832934227D050
:102788001832934224D01832934221D018329342FF
:102798001ED002F5567293421AD01832934217D0BF
:1027A8001832934214D01832934211D018329342FF
:1027B8000ED0183293420BD01832934208D01832F8
:1027C800934205D01A6822F00E021A60266809E0C2
:1027D8001A6822F01E021A602268536923F08003E7
:1027E8005361266823686B496B4A934218BF8B4232
:1027F80042D0183293423FD0183293423CD018321C
:10280800934239D01832934236D01832934233D09B
:102818001832934230D002F5567293422CD01832B7
:10282800934229D01832934226D01832934223D0AB
:102838001832934220D0183293421DD01832934256
:102848001AD01832934217D0544A934214D01432F3
:10285800934211D0143293420ED0143293420BD0CB
:102868001432934208D01432934205D01432934262
:1028780002D01432934204D1226E136823F4807379
:10288800136023684349444A934218BF8B422FD0B0
:10289800183293422CD01832934229D018329342DE
:1028A80026D01832934223D01832934220D01832BF
:1028B80093421DD002F55672934219D018329342B2
:1028C80016D01832934213D01832934210D01832CF
:1028D80093420DD0183293420AD01832934207D04F
:1028E8001832934204D01A6822F001021A6003E0F9
:1028F8001A6822F001021A60336813F0010F0ED033
:10290800FFF772F9431B052BF6D9202363650323D0
:1029180084F83530002384F8343001201FE7236819
:102928001C491D4A934218BF8B4239D01832934232
:1029380036D01832934233D01832934230D01832FE
:1029480093422DD0183293422AD01832934227D07E
:1029580002F55672934223D01832934220D018328F
:1029680093421DD0183293421AD01832934217D08E
:102978001832934214D01832934211D0183293422D
:102988000ED0A16DE36D03F01F02012393404B604D
:102998000DE000BF10000240280002400854025811
:1029A800A16DE36D03F01F023F2393408B60236802
:1029B8002E492F4A934218BF8B4242D01832934275
:1029C8003FD0183293423CD01832934239D0183253
:1029D800934236D01832934233D01832934230D0D3
:1029E80002F5567293422CD01832934229D01832ED
:1029F800934226D01832934223D01832934220D0E3
:102A0800183293421DD0183293421AD0183293428A
:102A180017D0184A934214D01432934211D014326A
:102A280093420ED0143293420BD01432934208D002
:102A38001432934205D01432934202D01432934296
:102A48000BD1636EA26E5A60E36E33B11A6822F43A
:102A580080721A60236F626F5A60012384F83530E0
:102A6800002084F834007AE6012078E6100002405D
:102A78002800024008540258002800F0298108B5AF
:102A8800024690F83530DBB2022B03D08023436531
:102A9800012008BD0368904890498B4218BF8342C3
:102AA8000CBF0121002166D03030834263D018303A
:102AB800834260D0183083425DD0183083425AD0A8
:102AC8001830834257D01830834254D000F55670DE
:102AD800834250D0183083424DD0183083424AD0B8
:102AE8001830834247D01830834244D0183083428C
:102AF80041D0183083423ED0183083423BD0196809
:102B080021F00E0119601368A0F5956073498B4296
:102B180018BF83426AD072498B4267D018318B4202
:102B280064D018318B4261D018318B425ED0183195
:102B38008B425BD018318B4258D001F556718B42CD
:102B480054D018318B4251D018318B424ED01831A5
:102B58008B424BD018318B4248D018318B4245D02C
:102B680018318B4242D018318B423FD0196821F07E
:102B7800010119603EE0042082F8350081BB584A03
:102B880093422DD0183293422AD01832934227D03C
:102B98001832934224D01832934221D018329342EB
:102BA8001ED002F5567293421AD01832934217D0AB
:102BB8001832934214D01832934211D018329342EB
:102BC8000ED0183293420BD01832934208D01832E4
:102BD800934205D01A6822F001021A60002058E7D3
:102BE8001A6822F001021A60002052E7196821F0E1
:102BF800010119601368384838498B4218BF83426D
:102C080042D018318B423FD018318B423CD018311A
:102C18008B4239D018318B4236D018318B4233D0A1
:102C280018318B4230D001F556718B422CD01831B7
:102C38008B4229D018318B4226D018318B4223D0B1
:102C480018318B4220D018318B421DD018318B425D
:102C58001AD018318B4217D022498B4214D0143124
:102C68008B4211D014318B420ED014318B420BD0D1
:102C780014318B4208D014318B4205D014318B4269
:102C880002D014318B4217D1116E0B6823F4807374
:102C98000B60906DD36D03F01F0101238B404360DF
:102CA800536E916E5960D36E33B1196821F48071F7
:102CB8001960136F516F5960012382F83530002372
:102CC80082F83430136D2BB1104698470020E0E6A7
:102CD800012070470020DCE6100002402800024076
:102CE8004000024008540258F0B583B0044600235F
:102CF80001937D4B1D687D4BA3FB0535AD0A876DA0
:102D08003E68D7F800C0036879497A48834218BFFB
:102D18008B420CBF0120002061D0774A93425ED0DD
:102D2800183293425BD01832934258D018329342EB
:102D380055D01832934252D0183293424FD002F5F0
:102D4800567293424BD01832934248D0183293426D
:102D580045D01832934242D0183293423FD01832AD
:102D680093423CD01832934239D01832934236D02D
:102D78006249634A934218BF8B4212D0614A934218
:102D88000FD0143293420CD01432934209D014322B
:102D9800934206D01432934203D01432934240F047
:102DA80061821A68E16D01F01F010420884010EA71
:102DB8000C0F00F0A78212F0040F00F0A3827860D5
:102DC80012F4004F00F05A8212F4803F40F0508213
:102DD800A36C002B00F046822046984742E2E26D41
:102DE80002F01F0108228A40324241D070BB424A99
:102DF80093422BD01832934228D01832934225D0D0
:102E08001832934222D0183293421FD0183293427C
:102E18001CD002F55672934218D01832934215D03E
:102E28001832934212D0183293420FD0183293427C
:102E38000CD01832934209D01832934206D0183277
:102E4800934203D01A68C2F3C00202E01A68C2F3C0
:102E580080026AB11A6822F004021A60E36D03F076
:102E68001F0208239340BB60636D43F00103636551
:102E7800E26D02F01F0226FA02F313F0010F47D0A9
:102E880023681B481B498B4218BF83423CD018312A
:102E98008B4239D018318B4236D018318B4233D01F
:102EA80018318B4230D018318B422DD018318B42DB
:102EB8002AD001F556718B4226D018318B4223D087
:102EC80018318B4220D018318B421DD018318B42DB
:102ED8001AD018318B4217D018318B4214D01831C0
:102EE8008B4211D01B6813E004000024B5814E1BEF
:102EF80010000240280002404000024008540258D6
:102F08001C540258305402585B6913F0800F3BD1AF
:102F1800E36D03F01F03042202FA03F3334240D0A7
:102F28002268964896498A4218BF824235D018319D
:102F38008A4232D018318A422FD018318A422CD096
:102F480018318A4229D018318A4226D018318A424B
:102F580023D001F556718A421FD018318A421CD0FD
:102F680018318A4219D018318A4216D018318A424B
:102F780013D018318A4210D018318A420DD0183136
:102F88008A420AD013680CE0012303FA02F2BA60FD
:102F9800636D43F002036365BAE7126812F0020F2B
:102FA8003DD1E36D03F01F03102202FA03F333420D
:102FB8005FD02268714872498A4218BF824234D071
:102FC80018318A4231D018318A422ED018318A42BB
:102FD8002BD018318A4228D018318A4225D018318E
:102FE8008A4222D001F556718A421ED018318A428F
:102FF8001BD018318A4218D018318A4215D018319E
:103008008A4212D018318A420FD018318A420CD025
:1030180018318A4209D01268C2F3800208E0BB6006
:10302800636D43F004036365BBE71268C2F3C00233
:10303800FAB1BB6023681A6812F4802F0DD01B68A0
:1030480013F4002F04D1236C9BB12046984710E05D
:10305800A36C73B1204698470BE01A6812F4807F7E
:1030680003D11A6822F008021A60236C0BB12046BB
:103078009847E36D03F01F03202202FA03F333425B
:1030880000F0928022683D483D498A4218BF82423A
:103098002ED018318A422BD018318A4228D01831C4
:1030A8008A4225D018318A4222D018318A421FD04C
:1030B80018318A421CD001F556718A4218D018314D
:1030C8008A4215D018318A4212D018318A420FD05C
:1030D80018318A420CD018318A4209D018318A42F4
:1030E80006D018318A4203D01268C2F3400202E0C7
:1030F8001268C2F30012002A56D0BB6094F835302B
:10310800DBB2042B0ED023681A6812F4802F39D052
:103118001B6813F4002F2CD1636C002B44D020467D
:10312800984741E02268136823F016031360226869
:10313800536923F080035361236CB3B12268136889
:1031480023F008031360E36D03F01F023F2393404D
:10315800BB60012384F83530002384F83430236DB4
:10316800002B7FD0204698477CE0A36C002BE5D14C
:10317800E9E7E36BC3B12046984715E01000024029
:10318800280002401A6812F4807F09D11A6822F0D8
:1031980010021A60012384F83530002384F8343093
:1031A800E36B0BB120469847636D002B5AD0636DD3
:1031B80013F0010F52D0042384F835302368964960
:1031C800964A934218BF8B422FD0183293422CD084
:1031D8001832934229D01832934226D0183293429B
:1031E80023D01832934220D0183293421DD002F5D2
:1031F8005672934219D01832934216D0183293421D
:1032080013D01832934210D0183293420DD018328E
:1032180093420AD01832934207D01832934204D00E
:103228001A6822F001021A6003E01A6822F001020B
:103238001A60019B01330193AB4204D823681B68D1
:1032480013F0010FF5D123681B6813F0010F0BD0A1
:10325800032384F83530002384F83430E36C0BB151
:103268002046984703B0F0BD012384F83530F2E7D3
:10327800236C002BF6D020469847F3E712F0200F76
:103288003AD123686449654A934218BF8B422FD0CC
:10329800183293422CD01832934229D018329342D4
:1032A80026D01832934223D01832934220D01832B5
:1032B80093421DD002F55672934219D018329342A8
:1032C80016D01832934213D01832934210D01832C5
:1032D80093420DD0183293420AD01832934207D045
:1032E8001832934204D01A6822F004021A6003E0EC
:1032F8001A6822F008021A60236C002BB2D020460C
:103308009847AFE70220884010EA0C0F60D012F00F
:10331800020F5DD0786012F4004F0ED012F4803F97
:1033280005D1636C002B9DD0204698479AE7E36B44
:10333800002B97D02046984794E712F0200F40D1F1
:1033480023683549354A934218BF8B422FD018322B
:1033580093422CD01832934229D01832934226D067
:103368001832934223D01832934220D01832934215
:103378001DD002F55672934219D01832934216D0D6
:103388001832934213D01832934210D01832934215
:103398000DD0183293420AD01832934207D018320F
:1033A800934204D01A6822F00A021A6003E01A68ED
:1033B80022F014021A60012384F83530002384F8BF
:1033C8003430E36B002B3FF44DAF2046984749E774
:1033D800082000FA01F111EA0C0F3FF443AF12F094
:1033E800080F3FF43FAF1A6822F00E021A60E36D2F
:1033F80003F01F03012202FA03F37B60626584F87D
:103408003520002384F83430E36C002B3FF42AAFD6
:103418002046984726E700BF1000024028000240D7
:1034280010B4446B0368D3F88410724A114041EA1F
:103438008401C3F884100368D3F8841021F47F0151
:10344800D0F838C041EA0C41C3F88410836B234498
:103458000468D4F88810114041EA8301C4F8881040
:103468000468D4F8881021F4FE01D0F83CC041EA81
:103478000C41C4F88810C16B03EB41030468D4F80D
:10348800A010114041EA8301C4F8A0100468D4F8E0
:10349800A01021F4FE01D0F840C041EA0C41C4F864
:1034A800A010016C446C04FB01330468D4F8B0101C
:1034B800114041EA8301C4F8B0100468D4F8B01090
:1034C80021F4FE01D0F848C041EA0C41C4F8B0101C
:1034D800816CC46C04FB01330468D4F8AC1011404F
:1034E80041EA8301C4F8AC10016D446D04FB01335B
:1034F8000468D4F8F010114041EA8301C4F8F010D0
:103508000468D4F8F01021F47C11D0F858C041EACE
:103518000C41C4F8F010816D03EB41030468D4F842
:10352800C0100A4042EA8303C4F8C0300268D2F8E7
:10353800C03023F47C13C16D43EA0143C2F8C030A4
:103548000268D2F8C03023F07C53016E43EA01636D
:10355800C2F8C030436B284A1A449200C266836B93
:1035680002EB83030367C16B03EBC1034367016C81
:10357800446C04FB01F103EB81038367816CC46C29
:1035880004FB01F103EB8103C367016D446D04FB88
:1035980001F103EB8103C0F88030816D03EBC103B7
:1035A800C0F88430816EC46D01FB04FC03EB8C030E
:1035B800C0F88830046E04FB01F103EB8103C0F806
:1035C80090300E498B420DD9D0F89C3043F020033F
:1035D800C0F89C30032380F89830012007E00023CE
:1035E80042F8043BD0F890309342F8D8002010BC41
:1035F800704700BF0300FFFF002B0010FCD3004002
:1036080030B595B004464C22A04901A8FDF760FAF0
:10361800002C00F0388123689D4A934220D094F80A
:1036280098300BB32268936923F010039361FEF777
:10363800DBFA054623689A6912F0080F1AD0FEF7DC
:10364800D3FA431B0A2BF5D9D4F89C3043F0010375
:10365800C4F89C30032384F89830012015B030BD9D
:1036680003F580736360DAE784F899302046FDF744
:1036780057FDD7E79A6942F001029A61FEF7B4FA5A
:10368800054623689A6912F0010F0FD1FEF7ACFACC
:10369800401B0A28F5D9D4F89C3043F00103C4F83C
:1036A8009C30032384F898300120D7E79A6942F0C8
:1036B80002029A61237C012B40D02268936943F06F
:1036C80040039361637C012B3ED02268936923F405
:1036D80080439361A37C012B3CD02268936943F417
:1036E800805393612268936923F44073A1680B4364
:1036F80093612268936923F0A40393612268136994
:1037080023F010031361E368012B29D0002B2CD080
:10371800022B00F09B802268936943F08003936139
:103728002268136943F010031361E368032B1CD16B
:103738002268936943F02003936116E02268936935
:1037480023F040039361BDE72268936943F4804303
:103758009361BFE72268936923F480539361C1E7BB
:103768002268936943F004039361A3695A1EE369CD
:10377800013B1B0243EA4263226A013A134362692E
:10378800013A216843EA0243CB61A368B3F5407F5D
:1037980062D0236E33B12268D2F8C030616E0B4319
:1037A800C2F8C030E36D226ED3420DD02168D1F843
:1037B800C83023F00703A26E14A800EB820252F867
:1037C8004C2C1343C1F8C830236C6BB12168D1F875
:1037D800BC3023F00703626C14A800EB820252F895
:1037E8004C2C1343C1F8BC30A36C73B12168D1F8D9
:1037F800BC3023F07003E26C14A800EB820252F88C
:103808004C2C43EA0213C1F8BC30236D73B1216814
:10381800D1F8BC3023F4E063626D14A800EB820297
:1038280052F84C2C43EA0223C1F8BC302268184BEA
:103838009A4222D00023C4F89430C4F89C30012363
:1038480084F898302046FFF7EBFD07E72268936974
:1038580043F02003936188E7A36A013BE26A013AD7
:1038680043EA0223226B013A43EA0213626A013AED
:10387800216843EA0243CB608BE76268936823F0D0
:1038880003039360D6E70120E8E600BF307D000817
:1038980000A0004090F89830013BDBB2012B07D91B
:1038A800D0F89C3043F00203C0F89C3001207047E8
:1038B800CB680A68D2B9072B0ED08A68DB0643EAC0
:1038C80082730A6943EA02434A691343C26E49682C
:1038D80042F82130002070470A69CB691B0243EA8D
:1038E80002438A69134343F06053EFE70A6942EAE7
:1038F8004372072B0DD04B69D1F808C043EA8C738B
:10390800006F496800EBC10C40F83120CCF8043056
:10391800E0E78B69F4E790F898C05FFA8CFCBCF19B
:10392800010F07D0D0F89C3043F00403C0F89C3056
:1039380001207047920042EA011242EA43020368FA
:1039480000990A43C3F880200020704790F8983007
:10395800DBB2012B07D0D0F89C3043F00403C0F849
:103968009C3001207047402909D00168D1F8B03057
:1039780023F000431A43C1F8B020002070470168C3
:10398800D1F8A03023F000431A43C1F8A020F4E78F
:1039980090F89830DBB2012B07D0D0F89C3043F078
:1039A8000403C0F89C3001207047022380F8983047
:1039B8000268936923F0010393610023C0F89C30E7
:1039C8001846704790F898C05FFA8CFCBCF1020F5B
:1039D80040F0DE8070B540290CD041293BD0046D01
:1039E8008C4269D8D0F89C3043F02003C0F89C3052
:1039F8000120BFE00468D4F8A05015F4FE0F0CD0E5
:103A0800D4F8A45015F07F0F0FD1D0F89C3043F4B0
:103A18008073C0F89C300120ACE0D0F89C3043F0B3
:103A28002003C0F89C300120A4E0D4F8A450C5F3CA
:103A3800006615F0807F02D0D4F8A0500026D4F894
:103A4800A440C4F305242644456F446C06FB04F4E3
:103A580005EB840C37E00468D4F8B05015F4FE0F79
:103A68000CD0D4F8B45015F07F0F0FD1D0F89C309B
:103A780043F48073C0F89C3001207BE0D0F89C3080
:103A880043F02003C0F89C30012073E0D4F8B45010
:103A9800C5F3006615F0807F02D0D4F8B050002638
:103AA800D4F8B440C4F305242644856FC46C06FBDF
:103AB80004F405EB840C06E0C56F446D01FB04F4C7
:103AC80005EB840C0026DCF8004004F080445460C8
:103AD80074BBDCF80040C4F38A441460DCF800408E
:103AE80004F000549460DCF8004004F000441461D1
:103AF800BCF80440D461DCF8044004F47024D460B9
:103B0800DCF8044004F480145461DCF8044004F444
:103B1800001494619CF8074004F07F041462DCF8F8
:103B28000440E40F54620CF1080E4FF0000C0BE057
:103B3800DCF8004024F060441460CFE71EF80C4025
:103B480003F80C400CF1010CD489154D2C5D64452B
:103B5800F4D840290AD041290DD01F290FD802686E
:103B6800012303FA01F1C2F8981002E00368C3F8D0
:103B7800A860002070BD0368C3F8B860F9E701F0D9
:103B88001F010268012303FA01F1C2F89C10F0E753
:103B9800D0F89C3043F00803C0F89C3001207047EF
:103BA800947D000890F89830013BDBB2012B07D9CF
:103BB800D0F89C3043F00203C0F89C3001207047D5
:103BC80010B403689C6D0C4223D1DC6D44F00104F1
:103BD800DC6511F4007F05D00468D4F8E0301343A5
:103BE800C4F8E03011F4806F05D00468D4F8E430EC
:103BF8001A43C4F8E4200068436D0C4A0A40134392
:103C080043650B4A536943EA91715161002010BC26
:103C180070479C6D31EA040402D00324DC65D8E7C0
:103C2800DC6D44F00204DC65D3E700BFFFFFCF3F43
:103C380000A800407047704770477047704770474A
:103C480070477047704770477047704770477047B4
:103C5800704770472DE9F04F83B00446B04B1A699E
:103C68005B699B0703EA8273019303681A6D02F488
:103C7800704A5A6D0AEA020A1A6D02F00F095A6D63
:103C880009EA02091A6D02F0F0085A6D08EA0208FA
:103C98001E6D06F071565A6D16401F6D07F060775D
:103CA8005A6D17405D6DD3F850B015F4807F02D07F
:103CB8001BF4807F64D115F4806F02D01BF4806FF1
:103CC80067D1019B002B74D1BAF1000F7CD1B9F1F7
:103CD800000F40F08580B8F1000F40F08D8015F49A
:103CE800006F03D01BF4006F40F0928015F4007F42
:103CF80003D01BF4007F40F0968015F4002F03D00A
:103D08001BF4002F40F09F8015F4803F03D01BF474
:103D1800803F40F0A38015F4802F03D01BF4802F40
:103D280040F0A78015F4003F0FD01BF4003F0CD0E3
:103D380023684FF400321A65794B00221A61D4F8CF
:103D48009C3043F08003C4F89C30002F40F09C80E6
:103D58004EB123681E65B20F714B1A61D4F89C30BE
:103D68001E43C4F89C6022686E4B9A4200F096800D
:103D7800D4F89C30002B40F0F78003B0BDE8F08FFA
:103D88004FF480721A65664B00221A61FFF75BFFD9
:103D980091E72368D3F8DC10D3F8E4204FF480606F
:103DA80018655F4B0020186111402046FFF747FF58
:103DB80087E7236800221A6501998A0F584B1A6110
:103DC8002046FFF737FF7FE72368C3F850A04FEA84
:103DD8009A72534B1A6151462046FFF72CFF76E73B
:103DE8002368C3F850904FEA99724D4B1A614946BF
:103DF8002046FDF703F86EE72368C3F850804FEAC2
:103E08009872474B1A6141462046FFF715FF66E74F
:103E180023684FF400621A65414B00221A6120465C
:103E2800FFF70BFF62E72368D3F8D810D3F8E02038
:103E38004FF4007018653A4B002018611140204675
:103E4800FFF7FCFE59E723684FF400221A65344B4C
:103E580000221A612046FFF7F3FE55E723684FF466
:103E680080321A652E4B00221A612046FFF7E9FEC0
:103E780051E723684FF480221A65294B00221A6102
:103E88002046FFF7DFFE4DE723681F65BA0F244B76
:103E98001A6139462046FFF7D8FE59E763689A68E1
:103EA80012F0030F3FF464AF196A01F00F015A6A68
:103EB800186A00F03008586A08EA00081F6A07F410
:103EC800C077586A07401E6A06F4FC46586A0640DE
:103ED8001D6A05F4F025586A0540D3F82490D3F8F4
:103EE80020A0114020D1B8F1000F22D119F0400FC5
:103EF80002D01AF0400F24D17FBB36B163681E622E
:103F0800D4F89C301E43C4F89C60002D3FF430AFB9
:103F180063681D62D4F89C301D43C4F89C5027E7A1
:103F280000A8004000A0004019622046FFF78EFE5E
:103F3800D9E76368C3F8208041462046FFF787FE2B
:103F4800D4E76368D96BDA6B4020186202F03F024D
:103F5800090C2046FFF77CFECEE763681F623946EE
:103F68002046FFF776FEC8E72046FFF76DFE04E718
:103F780070B582B000236EE085685E000324B4400B
:103F880025EA0405CC68B4402C438460446824EADC
:103F98000C0C4C68C4F300149C4044EA0C044460C4
:103FA8006CE0DD08083550F8256003F007044FEA97
:103FB800840C0F2404FA0CF426EA040E0C6904FAA3
:103FC8000CF444EA0E0440F825406FE0092400E0B0
:103FD800002404FA0EF42C430CF1020C6B4D45F846
:103FE8002C404FF0B0442568D44325EA0206D1F8A6
:103FF80004C01CF4801F01D042EA05064FF0B0450A
:104008002E606D6804EA0506D1F804C01CF4001F90
:1040180001D042EA05064FF0B0456E60D5F88450ED
:1040280004EA0506D1F804C01CF4003F01D042EAB6
:1040380005064FF0B045C5F88460D5F880502C408F
:104048004E6816F4803F01D042EA05044FF0B042B2
:10405800C2F8804001330A6832FA03F400F0938012
:104068004FF0010C0CFA03FC1CEA0202F2D04C6877
:1040780004F00304013C012C7FF67EAF4C6804F089
:104088000304032C0CD0C4685D004FF0030C0CFA39
:1040980005FC24EA0C0C8C68AC4044EA0C04C460AF
:1040A8004C6804F00304022C3FF47BAF04684FEA29
:1040B800430E4FF0030C0CFA0EFC24EA0C0C4C686F
:1040C80004F0030404FA0EF444EA0C0404604C6897
:1040D80014F4403FBED02E4CD4F8F45045F00205FD
:1040E800C4F8F450D4F8F44004F002040194019C9C
:1040F8004FEA930C0CF10205244C54F8255003F0B8
:1041080003044FEA840E0F2404FA0EF425EA04058A
:10411800204CA0423FF45CAF04F58064A04222D05A
:1041280004F58064A04220D004F58064A0421ED02B
:1041380004F58064A0421CD004F58064A0421AD023
:1041480004F58064A04218D004F58064A04216D01B
:1041580004F58064A04214D004F58064A0423FF4C2
:1041680035AF0A2435E7012433E7022431E7032475
:104178002FE704242DE705242BE7062429E7072445
:1041880027E7082425E702B070BD00BF00040058E7
:1041980000440258000002580AB1816170470904BE
:1041A80081617047134BDB6813F0040F07D1114B83
:1041B800DB6803F0070383421AD00120704710B56B
:1041C8000C4AD36823F007031843D060FDF70CFDB1
:1041D8000446084B5B6813F4005F07D1FDF704FD44
:1041E800001BB0F57A7FF4D9012000E0002010BD53
:1041F8000020704700480258002800F0398338B57D
:104208000446036813F0010F25D0944A136903F09C
:104218003803926A102B15D0182B0FD06368B3F5AA
:10422800803F3FD0002B53D18C4B1A6822F4803248
:104238001A601A6822F480221A6038E002F0030239
:10424800022AEBD1854B1B6813F4003F03D0636847
:10425800002B00F00F83236813F0020F00F0A180F9
:104268007E4A1369926A13F038035AD0182B55D036
:10427800E368002B00F0DE8078490A6822F0190212
:1042880013430B60FDF7B0FC0546744B1B6813F035
:10429800040F40F0AD80FDF7A7FC401B0228F4D9BD
:1042A8000320EEE26D4A136843F4803313606368B9
:1042B8002BB3FDF799FC0546684B1B6813F4003FC8
:1042C800C9D1FDF791FC401B6428F5D90320D8E239
:1042D800B3F5A02F09D0614B1A6822F480321A6016
:1042E8001A6822F480221A60E1E75C4B1A6842F4EB
:1042F80080221A601A6842F480321A60D7E7FDF704
:1043080073FC0546554B1B6813F4003FA3D0FDF71B
:104318006BFC401B6428F5D90320B2E212F0030FAE
:10432800A6D14E4B1B6813F0040F03D0E368002B93
:1043380000F0A282494A136823F01903E1680B438D
:104348001360FDF751FC0546444B1B6813F0040F3E
:1043580006D1FDF749FC401B0228F5D9032090E25D
:10436800FDF75CFC41F20303984212D82269402A07
:1043780007D03A494B6823F47C3343EA02334B6055
:104388000FE0364A536823F47C3343F40033536018
:1043980007E0324A536823F0FE43216943EA016388
:1043A8005360236813F0100F00F088802B4A1369BC
:1043B80003F03803926A082B56D0182B50D0E369C3
:1043C800002B00F0B880254A136843F0800313607F
:1043D800FDF70AFC0546214B1B6813F4807F40F06B
:1043E8008880FDF701FC401B0228F4D9032048E22D
:1043F800FDF714FC41F20303984212D82269402ABF
:1044080007D016494B6823F47C3343EA02334B60E8
:10441800C7E7124A536823F47C3343F400335360EC
:10442800BFE70E4A536823F0FE43216943EA01635C
:104438005360B6E7094A136823F001031360FDF7D8
:10444800D3FB0546054B1B6813F0040FA9D0FDF7F5
:10445800CBFB401B0228F5D9032012E20044025886
:1044680002F00302012AAAD1A14B1B6813F4807F32
:1044780003D0E369802B40F00182FDF7CFFB41F2C6
:104488000303984212D8226A202A07D098494B6819
:1044980023F0F84343EA82634B600FE0944A536881
:1044A80023F0F84343F08043536007E0904AD36811
:1044B80023F07C53216A43EA0163D360236813F035
:1044C800080F60D06369002B49D0894A536F43F0C5
:1044D80001035367FDF788FB0546854B5B6F13F0B7
:1044E800020F50D1FDF780FB401B0228F5D90320AD
:1044F800C7E1FDF793FB41F20303984212D8226A01
:10450800202A07D07A494B6823F0F84343EA8263AC
:104518004B60D3E7764A536823F0F84343F080436F
:104528005360CBE7724AD36823F07C53216A43EA8D
:104538000163D360C2E76E4A136823F080031360F7
:10454800FDF752FB05466A4B1B6813F4807FB5D014
:10455800FDF74AFB401B0228F5D9032091E1644A84
:10456800536F23F001035367FDF73EFB0546604B8D
:104578005B6F13F0020F06D0FDF736FB401B0228D5
:10458800F5D903207DE1236813F0200F29D0A36912
:104598009BB1574A136843F480531360FDF724FB1B
:1045A8000546534B1B6813F4005F1AD1FDF71CFB3B
:1045B800401B0228F5D9032063E14D4A136823F410
:1045C80080531360FDF710FB0546494B1B6813F435
:1045D800005F06D0FDF708FB401B0228F5D9032031
:1045E8004FE1236813F0040F21D1636A002B00F018
:1045F80047813F4A126902F03802182A00F0EE801B
:10460800022B79D03A4A136823F080731360FDF7C0
:10461800EBFA0446364B1B6813F0007F00F0DC8091
:10462800FDF7E2FA001B0228F4D9032029E1314AF8
:10463800136843F480731360FDF7D6FA05462D4BD3
:104648001B6813F4807F06D1FDF7CEFA401B64285F
:10465800F5D9032015E1A368012B0AD00BBB244B25
:104668001A6F22F001021A671A6F22F004021A6701
:1046780004E01F4A136F43F001031367A36833B3C1
:10468800FDF7B2FA05461A4B1B6F13F0020FACD1B7
:10469800FDF7AAFA401B41F288339842F3D9032068
:1046A800EFE0052B09D0124B1A6F22F001021A67AE
:1046B8001A6F22F004021A67E0E70D4B1A6F42F0F6
:1046C80004021A671A6F42F001021A67D6E7FDF76B
:1046D8008BFA0546064B1B6F13F0020F85D0FDF7CA
:1046E80083FA401B41F288339842F3D90320C8E08B
:1046F8000044025800480258694A136823F080733E
:104708001360FDF771FA0546654B1B6813F0007FCF
:1047180006D0FDF769FA401B0228F5D90320B0E05E
:104728005F4B996A5F4A0A40A16AE06A41EA001150
:104738000A439A62226B013AC2F30802616B01399B
:10474800490289B20A43A16B0139090401F4FE0147
:104758000A43E16B0139090601F0FE410A431A6375
:10476800DA6A22F00102DA62596B4F4A0A40A16CF8
:1047780042EAC1025A63DA6A22F00C02216C0A4347
:10478800DA62DA6A22F00202616C0A43DA62DA6AF1
:1047980042F48032DA62DA6A42F40032DA62DA6AC1
:1047A80042F48022DA62DA6A42F00102DA621A68B6
:1047B80042F080721A60FDF717FA0446384B1B68FE
:1047C80013F0007F06D1FDF70FFA001B0228F5D978
:1047D800032056E0002054E0002052E0304A916A5D
:1047E800106B012B4ED001F00303A26A93424BD108
:1047F800C1F30511E36A994248D1C0F30802236B5B
:10480800013B9A4244D1C0F34622636B013B9A4272
:1048180040D1C0F30642A36B013B9A423CD1C0F39E
:104828000660E36B013B984238D11D4B5B6BC3F3C9
:10483800CC03A26C9A4201D1002022E0184AD36A24
:1048480023F00103D362FDF7CFF90546FDF7CCF954
:10485800A842FBD0124A516B134B0B40A16C43EAA0
:10486800C1035363D36A43F00103D362002008E015
:1048780001207047012004E0012002E0012000E04F
:10488800002038BD0120FCE70120FAE70120F8E705
:104898000120F6E70120F4E70120F2E70120F0E724
:1048A800004402580CFCFFFF0700FFFFF8B57E4BE1
:1048B8001B6903F03803102B00F0F280182B10D07E
:1048C80013B17A4C2046F8BD774B1B6813F0200FC4
:1048D80000F0E880744B1868C0F3C100744CC44001
:1048E800F0E7714B9D6A05F003059C6AC4F3051453
:1048F800D86A00F001005B6BC3F3CC0303FB00F044
:10490800FBF79CFD0646002CDCD0012D76D0022D4D
:1049180000F0A4800DB32046FBF790FD01466548E2
:10492800FBF798FE0446604B186BC0F30800FBF7D2
:1049380085FD05464FF064513046FBF7D7FD01462B
:104948002846FBF7CBFC4FF07E51FBF7C7FC01462E
:104958002046FBF7CBFD044671E0534B1B6813F070
:10496800200F29D0504F3B68C3F3C1035048D840AB
:10497800FBF764FD05462046FBF760FD0146284627
:10498800FBF768FE0446386BC0F30800FBF756FDDA
:1049980005464FF064513046FBF7A8FD014628460E
:1049A800FBF79CFC4FF07E51FBF798FC0146204634
:1049B800FBF79CFD044642E02046FBF73FFD01461D
:1049C8003D48FBF747FE0446374B186BC0F3080019
:1049D800FBF734FD05464FF064513046FBF786FD82
:1049E80001462846FBF77AFC4FF07E51FBF776FC30
:1049F80001462046FBF77AFD044620E02046FBF7F7
:104A08001DFD01462B48FBF725FE0446264B186B77
:104A1800C0F30800FBF712FD05464FF0645130461D
:104A2800FBF764FD01462846FBF758FC4FF07E5122
:104A3800FBF754FC01462046FBF758FD04461A4B89
:104A48001B6BC3F34623581CFBF7F8FC01462046B2
:104A5800FBF700FEFBF79AFE044633E72046FBF718
:104A6800EDFC01461548FBF7F5FD04460E4B186BA7
:104A7800C0F30800FBF7E2FC05464FF064513046EE
:104A8800FBF734FD01462846FBF728FC4FF07E5122
:104A9800FBF724FC01462046FBF728FD0446CEE739
:104AA800074C0FE7024C0DE70044025800093D008F
:104AB8000090D0030024744A0024744C20BCBE4BE0
:104AC80040787D01002800F0328170B50D4604461B
:104AD8009B4B1B6803F00F038B420BD2984A136859
:104AE80023F00F030B431360136803F00F038B428B
:104AF80040F01F81236813F0040F0CD02269914BFA
:104B08009B6903F070039A4205D98E498B6923F09B
:104B180070031A438A61236813F0080F0CD0626986
:104B2800884BDB6903F070039A4205D98549CB6944
:104B380023F070031A43CA61236813F0100F0CD0D6
:104B4800A269804BDB6903F4E0639A4205D97D4989
:104B5800CB6923F4E0631A43CA61236813F0200F7A
:104B68000CD0E269774B1B6A03F070039A4205D9AF
:104B780074490B6A23F070031A430A62236813F01E
:104B8800020F0CD0E2686F4B9B6903F00F039A4247
:104B980005D96C498B6923F00F031A438A6123688E
:104BA80013F0010F41D0674A936923F47063A16839
:104BB8000B4393616368022B0AD0032B27D0012B88
:104BC8002CD0604A126812F0040F06D10120ADE023
:104BD800126812F4003F00F0AE805A490A6922F0C8
:104BE800070213430B61FCF7FFFF0646554B1B6991
:104BF80003F038036268B3EBC20F16D0FCF7F4FF7A
:104C0800801B41F288339842F0D903208EE04D4A48
:104C1800126812F0007FE0D1012087E0494A12684B
:104C280012F4807FD9D1012080E0236813F0020FAD
:104C38000CD0E268434B9B6903F00F039A4205D2FC
:104C480040498B6923F00F031A438A613C4B1B6868
:104C580003F00F03AB420AD9394A136823F00F0354
:104C68002B431360136803F00F03AB4265D123682D
:104C780013F0040F0CD02269324B9B6903F07003C8
:104C88009A4205D22F498B6923F070031A438A612F
:104C9800236813F0080F0CD062692A4BDB6903F014
:104CA80070039A4205D22749CB6923F070031A434F
:104CB800CA61236813F0100F0CD0A269214BDB697D
:104CC80003F4E0639A4205D21E49CB6923F4E063FA
:104CD8001A43CA61236813F0200F0CD0E269194BFC
:104CE8001B6A03F070039A4205D216490B6A23F037
:104CF80070031A430A62FFF7D9FD12498B69C3F39F
:104D08000323114AD35C03F01F03D8408B6903F0D7
:104D18000F03D35C03F01F0320FA03F30B4A13605D
:104D28000B4B18600B4B1868FCF7A6FB70BD0120F5
:104D380070470120FAE70120F8E70120F6E700BFF5
:104D480000200052004402587C7D0008080000241E
:104D5800040000241000002408B5FFF7A7FD0B4A43
:104D68009369C3F303230A49CB5C03F01F0320FABA
:104D780003F3926902F00F02885C00F01F0023FA27
:104D880000F0044A1060044A136008BD0044025849
:104D98007C7D0008080000240400002408B5FFF703
:104DA800DBFF054BDB69C3F30213044AD35C03F052
:104DB8001F03D84008BD00BF004402587C7D00088E
:104DC80008B5FFF7C9FF054BDB69C3F30223044AA3
:104DD800D35C03F01F03D84008BD00BF004402584D
:104DE8007C7D00083F230360114B1A6902F007021B
:104DF80042609A6902F4706282609A6902F00F0256
:104E0800C2609A6902F070020261DA6902F0700207
:104E18004261DA6902F4E06282611B6A03F070039E
:104E2800C361044B1B6803F00F030B60704700BF9E
:104E38000044025800200052404B9B6A03F00303D1
:104E4800032B79D070B505460E463C4A136823F00B
:104E580080631360FCF7C8FE0446384B1B6813F0E8
:104E6800006F06D0FCF7C0FE031B022BF5D9032008
:104E780070BD324B9A6A22F47C32296842EA0132C8
:104E88009A626A68013AC2F30802A96801394902BC
:104E980089B20A43E9680139090401F4FE010A43A9
:104EA80029690139090601F0FE410A439A63DA6A61
:104EB80022F0C00269690A43DA62DA6A22F0200243
:104EC800A9690A43DA62DA6A22F01002DA62D96B57
:104ED8001B4A0A40E96942EAC102DA63DA6A42F027
:104EE8001002DA62C6B91A46DB6A43F40023D362B9
:104EF800124A136843F080631360FCF775FE04469A
:104F08000E4B1B6813F0006F14D1FCF76DFE001BED
:104F18000228F5D90320ABE7012E05D0074AD36A4A
:104F280043F40013D362E3E7044AD36A43F48013DB
:104F3800D362DDE700209BE7012070470044025858
:104F48000700FFFF404B9B6A03F00303032B79D054
:104F580070B505460E463C4A136823F0805313602B
:104F6800FCF742FE0446384B1B6813F0005F06D07E
:104F7800FCF73AFE031B022BF5D9032070BD324B18
:104F88009A6A22F07C72296842EA01529A626A6837
:104F9800013AC2F30802A9680139490289B20A43F1
:104FA800E9680139090401F4FE010A432969013954
:104FB800090601F0FE410A431A64DA6A22F44062E3
:104FC80069690A43DA62DA6A22F40072A9690A4353
:104FD800DA62DA6A22F48072DA62596C1B4A0A4091
:104FE800E96942EAC1025A64DA6A42F48072DA6212
:104FF800C6B91A46DB6A43F48003D362124A1368BF
:1050080043F080531360FCF7EFFD04460E4B1B681A
:1050180013F0005F14D1FCF7E7FD001B0228F5D957
:105028000320ABE7012E05D0074AD36A43F080730B
:10503800D362E3E7044AD36A43F40003D362DDE7AB
:1050480000209BE701207047004402580700FFFF3B
:10505800F8B50446036813F0006F30D0836EB3F5DB
:10506800001F26D00ED8EBB1B3F5801F07D102215F
:105078000830FFF7E1FE054645B12E4621E001263E
:1050880035461EE0B3F5401F09D10025984A136D37
:1050980023F44013A16E0B431365002611E001268B
:1050A80035460EE0924AD36A43F40033D3620025B2
:1050B800ECE702212830FFF745FF0546DCE700262C
:1050C8003546236813F4807F14D0A36D042B32D89F
:1050D800DFE803F003232A080800854AD36A43F46B
:1050E8000033D36255BB824A136D23F00703A16DC9
:1050F8000B431365236813F4007F31D0E36D802BD5
:105108004CD020D8002B43D0402B19D1002104F1DA
:105118000800FFF791FE05461AE0002104F1080097
:10512800FFF78AFE0546DDE7002104F12800FFF7B6
:1051380009FF0546D6E701263546DBE72E46D9E7BF
:10514800012635460CE0C02B02D0B3F5807F1CD178
:105158005DBB674A136D23F4E073E16D0B43136580
:10516800236813F4806F46D0D4F8A830B3F5800FC5
:1051780039D01FD88BB3B3F5001F18D1002104F123
:105188000800FFF759FE05461AE001263546E7E70D
:10519800574AD36A43F40033D362D9E7002104F1B4
:1051A8002800FFF7CFFE0546D2E72E46D8E70126AE
:1051B800354620E0B3F5C00F02D0B3F5000F09D192
:1051C800C5B94B4A936D23F46003D4F8A8100B4378
:1051D800936510E0012635460DE0454AD36A43F44D
:1051E8000033D362ECE7002104F12800FFF7AAFEA0
:1051F8000546E5E72E46236813F4006F24D0D4F85B
:10520800AC30B3F1007F42D00ED8002B39D0B3F1C7
:10521800807F06D1002104F10800FFF70DFE054646
:1052280008E0012635460FE0B3F1407F02D0B3F124
:10523800806F23D1002D31D12D4A936D23F0E06387
:10524800D4F8AC100B439365236813F0007F2ED07D
:10525800E36C202B40D026D833B1102B20D1244A20
:10526800D36A43F40033D362002D3CD1204AD36C77
:1052780023F03003E16C0B43D36418E00126354674
:10528800E2E71B4AD36A43F40033D362D2E7002132
:1052980004F12800FFF756FE0546CBE72E46D3E774
:1052A8000126354603E0302BDED00126354623683B
:1052B80013F4805F2DD0236EB3F5005F4FD019D85B
:1052C800002B46D0B3F5805F0FD1002104F1080010
:1052D800FFF7B2FD054613E0022104F10800FFF7CD
:1052E800ABFD0546C0E72E46E1E70126354610E04E
:1052F80000440258B3F5405F02D0B3F5804F25D182
:10530800002D33D1774A136D23F4E043216E0B430C
:105318001365236813F4005F38D0636EB3F5003F5C
:1053280053D028D843B1B3F5803F21D1012104F1EE
:105338000800FFF781FD0546002D4DD1694A136D20
:1053480023F4E023616E0B4313651FE00126354605
:10535800DFE7644AD36A43F40033D362D0E700211D
:1053680004F12800FFF7EEFD0546C9E72E46D0E711
:10537800012635460AE0B3F5802FDDD0B3F5A02F1E
:10538800DAD0B3F5403FD7D001263546236813F469
:10539800804F31D0D4F8B030B3F1005F45D020D879
:1053A80043B1B3F1805F19D1012104F10800FFF77F
:1053B80043FD0546002D3FD14A4A936D23F0E04353
:1053C800D4F8B0100B43936516E0012104F12800CE
:1053D800FFF7B8FD0546AFE72E46D7E70126354665
:1053E8000AE0B3F1804FE5D0B3F1A04FE2D0B3F1BA
:1053F800405FDFD001263546236813F4004F09D0FB
:10540800236FB3F1805F19D0B3F1005F24D0D3B11B
:1054180001263546236813F0807F33D0A36C032B15
:105428005BD8DFE803F027225327012104F1280085
:10543800FFF788FD0546BDE72E46DDE7294AD36A12
:1054480043F40033D36275B9264A136D23F04053F1
:10545800216F0B431365DDE7012104F10800FFF715
:10546800EBFC0546EFE72E46D4E71E4AD36A43F421
:105478000033D362A5BB1B4AD36C23F00303A16C92
:105488000B43D364236813F4800F2DD1236813F0E2
:10549800010F00F0A580E36F282B00F29F80DFE862
:1054A80003F08D9D9D9D9D9D9D9D879D9D9D9D9D91
:1054B8009D9D969D9D9D9D9D9D9D8D9D9D9D9D9D2B
:1054C8009D9D8D9D9D9D9D9D9D9D8D00022104F11D
:1054D8000800FFF7B1FC0546CCE701263546D1E7C1
:1054E8002E46CFE700440258914A136843F480736C
:1054F8001360FCF779FB07468D4B1B6813F4807F1C
:1055080005D1FCF771FBC01B6428F5D90325002DD4
:105518004AD1884B1B6FD4F8B420534013F4407F12
:105528000CD0844B1A6F22F44072196F41F4803109
:105538001967196F21F4803119671A67D4F8B430E4
:10554800B3F5807F15D08DBBD4F8B43003F4407226
:10555800B2F5407F1ED0774A136923F47C53136158
:1055680074490B6FD4F8B420C2F30B0213430B67D2
:105578008CE7FCF739FB07466E4B1B6F13F0020FE5
:10558800E1D1FCF731FBC01B41F288339842F3D9D3
:105598000325D8E76748026922F47C52664901EA84
:1055A800131313430361DBE72E466FE72E466DE7BF
:1055B800012104F10800FFF73FFC0546E5B95D4A03
:1055C800536D23F03803E16F0B43536508E0012165
:1055D80004F12800FFF7B6FC0546EFE7012635463B
:1055E800236813F0020F17D0A36F052B28D8DFE824
:1055F80003F00B05200B0B0B2E46F1E7012104F1FC
:105608000800FFF719FC0546EDB94A4A536D23F027
:105618000703A16F0B435365236813F0040F23D0CE
:10562800D4F89430052B45D8DFE803F0150F3D1565
:105638001515012104F12800FFF784FC0546E3E76E
:1056480001263546E8E72E46E6E7012104F1080081
:10565800FFF7F2FB054685BB364A936D23F0070337
:10566800D4F894100B439365236813F0200F34D0BB
:10567800D4F89030B3F1005F4ED023D843B1B3F1E2
:10568800805F1CD1002104F10800FFF7D5FB054617
:10569800002D48D1274A536D23F0E043D4F89010E9
:1056A8000B43536519E0012104F12800FFF74AFC78
:1056B8000546D0E701263546D6E72E46D4E701262B
:1056C80035460AE0B3F1804FE2D0B3F1A04FDFD006
:1056D800B3F1405FDCD001263546236813F0400F54
:1056E80037D0D4F89C30B3F5006F53D026D843B1E7
:1056F800B3F5806F19D1002104F10800FFF79CFB76
:105708000546002D4DD10B4A936D23F4E053D4F890
:105718009C100B4393651CE0022104F12800FFF75D
:1057280011FC0546B4E72E46D7E70126354610E0BA
:105738000048025800440258CFFFFF00B3F5805FCD
:10574800DFD0B3F5A05FDCD0B3F5406FD9D0012628
:105758003546236813F0800F33D0D4F8A030B3F562
:10576800804F00F0A38021D843B1B3F5005F1AD170
:10577800002104F10800FFF75FFB0546002D40F00B
:105788009C80814A936D23F46043D4F8A0100B43A6
:10579800936516E0022104F12800FFF7D3FB0546C4
:1057A800AFE72E46D5E7012635460AE0B3F5004FA8
:1057B800E4D0B3F5204FE1D0B3F5C04FDED00126D9
:1057C8003546236813F0080F0CD0D4F88430B3F5AD
:1057D800805F74D06C4A536D23F44053D4F884101E
:1057E8000B435365236813F0100F0CD0D4F898308E
:1057F800B3F5807F6CD0644A936D23F44073D4F87A
:1058080098100B439365236813F4002F0BD0D4F83A
:10581800A430B3F5803F74D0B3F5003F67D0002BB8
:105828005FD001263546236813F4802F0CD0D4F8B6
:105838008830B3F5001F7CD0B3F5401F6FD0B3F5A7
:10584800801F67D001263546236813F4803F08D0AF
:10585800236D002B76D0B3F5803F00F081800126C0
:105868003546236813F0005F40F08380236813F403
:10587800003F00F08E80D4F88030B3F5807F00F0D0
:10588800EC8040F28380B3F5007F03D0B3F5407F0E
:1058980040F0E180002D40F0E6803B4A536D23F450
:1058A8004073D4F880100B43536572E0022104F171
:1058B8002800FFF747FB054660E72E4681E70221EF
:1058C80004F12800FFF73EFB002883D0012681E77A
:1058D800022104F12800FFF735FB00288BD00126B0
:1058E80089E7002104F10800FFF7A6FA05467DB90B
:1058F800254A936D23F44033D4F8A4100B439365E1
:1059080091E7022104F12800FFF71CFB0546EEE7AA
:105918002E4688E71C4AD36A43F40033D3627DB924
:10592800194A536D23F44013D4F888100B43536578
:105938008AE7012104F12800FFF704FB0546EEE79A
:105948002E4681E7104AD36A43F40033D36275B90F
:105958000D4AD36C23F48033216D0B43D36480E765
:10596800022104F10800FFF767FA0546EFE72E4623
:1059780077E7022104F12800FFF7E4FA00283FF452
:1059880075AF012672E700BF00440258002B81D092
:105998000126236813F4801F06D04F4A136D23F0A5
:1059A8000043616F0B431365236813F0805F07D0D2
:1059B800494A136923F48043D4F8B8100B431361A0
:1059C800236813F4001F06D0434A136D23F0807335
:1059D800E16E0B431365236813F0804F09D03E4BEB
:1059E8001A6922F400421A611A69D4F8BC100A43F1
:1059F8001A612368002B06DA374AD36C23F0405328
:105A0800616D0B43D364236813F4000F07D0324A47
:105A1800536D23F44003D4F88C100B43536563682B
:105A280013F0010F21D1636813F0020F26D16368C8
:105A380013F0040F2BD1636813F0080F30D163689B
:105A480013F0100F35D1636813F0200F3AD106B167
:105A580001263046F8BD01269BE71F4AD36A43F466
:105A68000033D36216E72E4693E7002104F10800BD
:105A7800FFF7E2F90028D6D00646D4E7012104F161
:105A88000800FFF7D9F90028D1D00646CFE7022150
:105A980004F10800FFF7D0F90028CCD00646CAE781
:105AA800002104F12800FFF74DFA0028C7D0064668
:105AB800C5E7012104F12800FFF744FA0028C2D005
:105AC8000646C0E7022104F12800FFF73BFA002848
